{
	"contracts/MyFirstDAO.sol": {
		"DAO": {
			"abi": [
				{
					"inputs": [],
					"stateMutability": "nonpayable",
					"type": "constructor"
				},
				{
					"anonymous": false,
					"inputs": [
						{
							"indexed": false,
							"internalType": "string",
							"name": "message",
							"type": "string"
						}
					],
					"name": "proposalAccepted",
					"type": "event"
				},
				{
					"anonymous": false,
					"inputs": [
						{
							"indexed": true,
							"internalType": "uint256",
							"name": "proposalId",
							"type": "uint256"
						},
						{
							"indexed": false,
							"internalType": "string",
							"name": "description",
							"type": "string"
						}
					],
					"name": "proposalCreated",
					"type": "event"
				},
				{
					"anonymous": false,
					"inputs": [
						{
							"indexed": false,
							"internalType": "string",
							"name": "rejected",
							"type": "string"
						}
					],
					"name": "proposalRejected",
					"type": "event"
				},
				{
					"anonymous": false,
					"inputs": [
						{
							"indexed": true,
							"internalType": "address",
							"name": "voter",
							"type": "address"
						},
						{
							"indexed": true,
							"internalType": "uint256",
							"name": "proposalId",
							"type": "uint256"
						},
						{
							"indexed": false,
							"internalType": "uint256",
							"name": "tokenAmount",
							"type": "uint256"
						}
					],
					"name": "voteCaste",
					"type": "event"
				},
				{
					"inputs": [
						{
							"internalType": "address",
							"name": "_member",
							"type": "address"
						}
					],
					"name": "addMember",
					"outputs": [],
					"stateMutability": "nonpayable",
					"type": "function"
				},
				{
					"inputs": [
						{
							"internalType": "address",
							"name": "",
							"type": "address"
						}
					],
					"name": "balances",
					"outputs": [
						{
							"internalType": "uint256",
							"name": "",
							"type": "uint256"
						}
					],
					"stateMutability": "view",
					"type": "function"
				},
				{
					"inputs": [
						{
							"internalType": "string",
							"name": "_description",
							"type": "string"
						}
					],
					"name": "createProposal",
					"outputs": [],
					"stateMutability": "nonpayable",
					"type": "function"
				},
				{
					"inputs": [
						{
							"internalType": "uint256",
							"name": "_proposalId",
							"type": "uint256"
						}
					],
					"name": "executeProposal",
					"outputs": [],
					"stateMutability": "nonpayable",
					"type": "function"
				},
				{
					"inputs": [
						{
							"internalType": "address",
							"name": "",
							"type": "address"
						}
					],
					"name": "isMember",
					"outputs": [
						{
							"internalType": "bool",
							"name": "",
							"type": "bool"
						}
					],
					"stateMutability": "view",
					"type": "function"
				},
				{
					"inputs": [
						{
							"internalType": "address",
							"name": "",
							"type": "address"
						}
					],
					"name": "memberInfo",
					"outputs": [
						{
							"internalType": "address",
							"name": "memberAddress",
							"type": "address"
						},
						{
							"internalType": "uint256",
							"name": "memberSince",
							"type": "uint256"
						},
						{
							"internalType": "uint256",
							"name": "tokenBalance",
							"type": "uint256"
						}
					],
					"stateMutability": "view",
					"type": "function"
				},
				{
					"inputs": [
						{
							"internalType": "uint256",
							"name": "",
							"type": "uint256"
						}
					],
					"name": "members",
					"outputs": [
						{
							"internalType": "address",
							"name": "",
							"type": "address"
						}
					],
					"stateMutability": "view",
					"type": "function"
				},
				{
					"inputs": [],
					"name": "owner",
					"outputs": [
						{
							"internalType": "address",
							"name": "",
							"type": "address"
						}
					],
					"stateMutability": "view",
					"type": "function"
				},
				{
					"inputs": [
						{
							"internalType": "uint256",
							"name": "",
							"type": "uint256"
						}
					],
					"name": "proposals",
					"outputs": [
						{
							"internalType": "string",
							"name": "description",
							"type": "string"
						},
						{
							"internalType": "uint256",
							"name": "voteCount",
							"type": "uint256"
						},
						{
							"internalType": "uint256",
							"name": "yesCount",
							"type": "uint256"
						},
						{
							"internalType": "uint256",
							"name": "noCount",
							"type": "uint256"
						},
						{
							"internalType": "bool",
							"name": "executed",
							"type": "bool"
						}
					],
					"stateMutability": "view",
					"type": "function"
				},
				{
					"inputs": [
						{
							"internalType": "address",
							"name": "_member",
							"type": "address"
						}
					],
					"name": "removeMember",
					"outputs": [],
					"stateMutability": "nonpayable",
					"type": "function"
				},
				{
					"inputs": [],
					"name": "totalSupply",
					"outputs": [
						{
							"internalType": "uint256",
							"name": "",
							"type": "uint256"
						}
					],
					"stateMutability": "view",
					"type": "function"
				},
				{
					"inputs": [
						{
							"internalType": "uint256",
							"name": "_proposalId",
							"type": "uint256"
						},
						{
							"internalType": "uint256",
							"name": "_tokenAmount",
							"type": "uint256"
						}
					],
					"name": "voteNo",
					"outputs": [],
					"stateMutability": "nonpayable",
					"type": "function"
				},
				{
					"inputs": [
						{
							"internalType": "uint256",
							"name": "_proposalId",
							"type": "uint256"
						},
						{
							"internalType": "uint256",
							"name": "_tokenAmount",
							"type": "uint256"
						}
					],
					"name": "voteYes",
					"outputs": [],
					"stateMutability": "nonpayable",
					"type": "function"
				},
				{
					"inputs": [
						{
							"internalType": "address",
							"name": "",
							"type": "address"
						},
						{
							"internalType": "uint256",
							"name": "",
							"type": "uint256"
						}
					],
					"name": "votes",
					"outputs": [
						{
							"internalType": "bool",
							"name": "",
							"type": "bool"
						}
					],
					"stateMutability": "view",
					"type": "function"
				}
			],
			"devdoc": {
				"kind": "dev",
				"methods": {},
				"version": 1
			},
			"evm": {
				"assembly": "    /* \"contracts/MyFirstDAO.sol\":60:6488  contract DAO{... */\n  mstore(0x40, 0x80)\n    /* \"contracts/MyFirstDAO.sol\":1662:1712  constructor(){... */\n  callvalue\n  dup1\n  iszero\n  tag_1\n  jumpi\n  0x00\n  dup1\n  revert\ntag_1:\n  pop\n    /* \"contracts/MyFirstDAO.sol\":1694:1704  msg.sender */\n  caller\n    /* \"contracts/MyFirstDAO.sol\":1686:1691  owner */\n  0x07\n  0x00\n    /* \"contracts/MyFirstDAO.sol\":1686:1704  owner = msg.sender */\n  0x0100\n  exp\n  dup2\n  sload\n  dup2\n  0xffffffffffffffffffffffffffffffffffffffff\n  mul\n  not\n  and\n  swap1\n  dup4\n  0xffffffffffffffffffffffffffffffffffffffff\n  and\n  mul\n  or\n  swap1\n  sstore\n  pop\n    /* \"contracts/MyFirstDAO.sol\":60:6488  contract DAO{... */\n  dataSize(sub_0)\n  dup1\n  dataOffset(sub_0)\n  0x00\n  codecopy\n  0x00\n  return\nstop\n\nsub_0: assembly {\n        /* \"contracts/MyFirstDAO.sol\":60:6488  contract DAO{... */\n      mstore(0x40, 0x80)\n      callvalue\n      dup1\n      iszero\n      tag_1\n      jumpi\n      0x00\n      dup1\n      revert\n    tag_1:\n      pop\n      jumpi(tag_2, lt(calldatasize, 0x04))\n      shr(0xe0, calldataload(0x00))\n      dup1\n      0x5daf08ca\n      gt\n      tag_17\n      jumpi\n      dup1\n      0x9f2524ee\n      gt\n      tag_18\n      jumpi\n      dup1\n      0x9f2524ee\n      eq\n      tag_13\n      jumpi\n      dup1\n      0xa230c524\n      eq\n      tag_14\n      jumpi\n      dup1\n      0xa313c371\n      eq\n      tag_15\n      jumpi\n      dup1\n      0xca6d56dc\n      eq\n      tag_16\n      jumpi\n      jump(tag_2)\n    tag_18:\n      dup1\n      0x5daf08ca\n      eq\n      tag_10\n      jumpi\n      dup1\n      0x6d6be0e0\n      eq\n      tag_11\n      jumpi\n      dup1\n      0x8da5cb5b\n      eq\n      tag_12\n      jumpi\n      jump(tag_2)\n    tag_17:\n      dup1\n      0x18160ddd\n      gt\n      tag_19\n      jumpi\n      dup1\n      0x18160ddd\n      eq\n      tag_6\n      jumpi\n      dup1\n      0x27e235e3\n      eq\n      tag_7\n      jumpi\n      dup1\n      0x3ab86904\n      eq\n      tag_8\n      jumpi\n      dup1\n      0x49c2a1a6\n      eq\n      tag_9\n      jumpi\n      jump(tag_2)\n    tag_19:\n      dup1\n      0x013cf08b\n      eq\n      tag_3\n      jumpi\n      dup1\n      0x0b1ca49a\n      eq\n      tag_4\n      jumpi\n      dup1\n      0x0d61b519\n      eq\n      tag_5\n      jumpi\n    tag_2:\n      0x00\n      dup1\n      revert\n        /* \"contracts/MyFirstDAO.sol\":1084:1111  Proposal[] public proposals */\n    tag_3:\n      tag_20\n      0x04\n      dup1\n      calldatasize\n      sub\n      dup2\n      add\n      swap1\n      tag_21\n      swap2\n      swap1\n      tag_22\n      jump\t// in\n    tag_21:\n      tag_23\n      jump\t// in\n    tag_20:\n      mload(0x40)\n      tag_24\n      swap6\n      swap5\n      swap4\n      swap3\n      swap2\n      swap1\n      tag_25\n      jump\t// in\n    tag_24:\n      mload(0x40)\n      dup1\n      swap2\n      sub\n      swap1\n      return\n        /* \"contracts/MyFirstDAO.sol\":2393:3168  function removeMember(address _member) public{... */\n    tag_4:\n      tag_26\n      0x04\n      dup1\n      calldatasize\n      sub\n      dup2\n      add\n      swap1\n      tag_27\n      swap2\n      swap1\n      tag_28\n      jump\t// in\n    tag_27:\n      tag_29\n      jump\t// in\n    tag_26:\n      stop\n        /* \"contracts/MyFirstDAO.sol\":5970:6485  function executeProposal(uint _proposalId) public {... */\n    tag_5:\n      tag_30\n      0x04\n      dup1\n      calldatasize\n      sub\n      dup2\n      add\n      swap1\n      tag_31\n      swap2\n      swap1\n      tag_22\n      jump\t// in\n    tag_31:\n      tag_32\n      jump\t// in\n    tag_30:\n      stop\n        /* \"contracts/MyFirstDAO.sol\":1185:1208  uint public totalSupply */\n    tag_6:\n      tag_33\n      tag_34\n      jump\t// in\n    tag_33:\n      mload(0x40)\n      tag_35\n      swap2\n      swap1\n      tag_36\n      jump\t// in\n    tag_35:\n      mload(0x40)\n      dup1\n      swap2\n      sub\n      swap1\n      return\n        /* \"contracts/MyFirstDAO.sol\":1215:1256  mapping (address => uint) public balances */\n    tag_7:\n      tag_37\n      0x04\n      dup1\n      calldatasize\n      sub\n      dup2\n      add\n      swap1\n      tag_38\n      swap2\n      swap1\n      tag_28\n      jump\t// in\n    tag_38:\n      tag_39\n      jump\t// in\n    tag_37:\n      mload(0x40)\n      tag_40\n      swap2\n      swap1\n      tag_36\n      jump\t// in\n    tag_40:\n      mload(0x40)\n      dup1\n      swap2\n      sub\n      swap1\n      return\n        /* \"contracts/MyFirstDAO.sol\":3788:4726  function voteYes(uint _proposalId, uint _tokenAmount) public { ... */\n    tag_8:\n      tag_41\n      0x04\n      dup1\n      calldatasize\n      sub\n      dup2\n      add\n      swap1\n      tag_42\n      swap2\n      swap1\n      tag_43\n      jump\t// in\n    tag_42:\n      tag_44\n      jump\t// in\n    tag_41:\n      stop\n        /* \"contracts/MyFirstDAO.sol\":3314:3705  function createProposal(string memory _description) public {... */\n    tag_9:\n      tag_45\n      0x04\n      dup1\n      calldatasize\n      sub\n      dup2\n      add\n      swap1\n      tag_46\n      swap2\n      swap1\n      tag_47\n      jump\t// in\n    tag_46:\n      tag_48\n      jump\t// in\n    tag_45:\n      stop\n        /* \"contracts/MyFirstDAO.sol\":497:521  address[] public members */\n    tag_10:\n      tag_49\n      0x04\n      dup1\n      calldatasize\n      sub\n      dup2\n      add\n      swap1\n      tag_50\n      swap2\n      swap1\n      tag_22\n      jump\t// in\n    tag_50:\n      tag_51\n      jump\t// in\n    tag_49:\n      mload(0x40)\n      tag_52\n      swap2\n      swap1\n      tag_53\n      jump\t// in\n    tag_52:\n      mload(0x40)\n      dup1\n      swap2\n      sub\n      swap1\n      return\n        /* \"contracts/MyFirstDAO.sol\":4777:5884  function voteNo(uint _proposalId, uint _tokenAmount) public{... */\n    tag_11:\n      tag_54\n      0x04\n      dup1\n      calldatasize\n      sub\n      dup2\n      add\n      swap1\n      tag_55\n      swap2\n      swap1\n      tag_43\n      jump\t// in\n    tag_55:\n      tag_56\n      jump\t// in\n    tag_54:\n      stop\n        /* \"contracts/MyFirstDAO.sol\":1635:1655  address public owner */\n    tag_12:\n      tag_57\n      tag_58\n      jump\t// in\n    tag_57:\n      mload(0x40)\n      tag_59\n      swap2\n      swap1\n      tag_53\n      jump\t// in\n    tag_59:\n      mload(0x40)\n      dup1\n      swap2\n      sub\n      swap1\n      return\n        /* \"contracts/MyFirstDAO.sol\":861:916  mapping(address => mapping (uint => bool)) public votes */\n    tag_13:\n      tag_60\n      0x04\n      dup1\n      calldatasize\n      sub\n      dup2\n      add\n      swap1\n      tag_61\n      swap2\n      swap1\n      tag_62\n      jump\t// in\n    tag_61:\n      tag_63\n      jump\t// in\n    tag_60:\n      mload(0x40)\n      tag_64\n      swap2\n      swap1\n      tag_65\n      jump\t// in\n    tag_64:\n      mload(0x40)\n      dup1\n      swap2\n      sub\n      swap1\n      return\n        /* \"contracts/MyFirstDAO.sol\":566:606  mapping(address => bool) public isMember */\n    tag_14:\n      tag_66\n      0x04\n      dup1\n      calldatasize\n      sub\n      dup2\n      add\n      swap1\n      tag_67\n      swap2\n      swap1\n      tag_28\n      jump\t// in\n    tag_67:\n      tag_68\n      jump\t// in\n    tag_66:\n      mload(0x40)\n      tag_69\n      swap2\n      swap1\n      tag_65\n      jump\t// in\n    tag_69:\n      mload(0x40)\n      dup1\n      swap2\n      sub\n      swap1\n      return\n        /* \"contracts/MyFirstDAO.sol\":716:761  mapping(address => Members) public memberInfo */\n    tag_15:\n      tag_70\n      0x04\n      dup1\n      calldatasize\n      sub\n      dup2\n      add\n      swap1\n      tag_71\n      swap2\n      swap1\n      tag_28\n      jump\t// in\n    tag_71:\n      tag_72\n      jump\t// in\n    tag_70:\n      mload(0x40)\n      tag_73\n      swap4\n      swap3\n      swap2\n      swap1\n      tag_74\n      jump\t// in\n    tag_73:\n      mload(0x40)\n      dup1\n      swap2\n      sub\n      swap1\n      return\n        /* \"contracts/MyFirstDAO.sol\":1771:2362  function addMember(address _member) public {... */\n    tag_16:\n      tag_75\n      0x04\n      dup1\n      calldatasize\n      sub\n      dup2\n      add\n      swap1\n      tag_76\n      swap2\n      swap1\n      tag_28\n      jump\t// in\n    tag_76:\n      tag_77\n      jump\t// in\n    tag_75:\n      stop\n        /* \"contracts/MyFirstDAO.sol\":1084:1111  Proposal[] public proposals */\n    tag_23:\n      0x04\n      dup2\n      dup2\n      sload\n      dup2\n      lt\n      tag_78\n      jumpi\n      0x00\n      dup1\n      revert\n    tag_78:\n      swap1\n      0x00\n      mstore\n      keccak256(0x00, 0x20)\n      swap1\n      0x05\n      mul\n      add\n      0x00\n      swap2\n      pop\n      swap1\n      pop\n      dup1\n      0x00\n      add\n      dup1\n      sload\n      tag_80\n      swap1\n      tag_81\n      jump\t// in\n    tag_80:\n      dup1\n      0x1f\n      add\n      0x20\n      dup1\n      swap2\n      div\n      mul\n      0x20\n      add\n      mload(0x40)\n      swap1\n      dup2\n      add\n      0x40\n      mstore\n      dup1\n      swap3\n      swap2\n      swap1\n      dup2\n      dup2\n      mstore\n      0x20\n      add\n      dup3\n      dup1\n      sload\n      tag_82\n      swap1\n      tag_81\n      jump\t// in\n    tag_82:\n      dup1\n      iszero\n      tag_83\n      jumpi\n      dup1\n      0x1f\n      lt\n      tag_84\n      jumpi\n      0x0100\n      dup1\n      dup4\n      sload\n      div\n      mul\n      dup4\n      mstore\n      swap2\n      0x20\n      add\n      swap2\n      jump(tag_83)\n    tag_84:\n      dup3\n      add\n      swap2\n      swap1\n      0x00\n      mstore\n      keccak256(0x00, 0x20)\n      swap1\n    tag_85:\n      dup2\n      sload\n      dup2\n      mstore\n      swap1\n      0x01\n      add\n      swap1\n      0x20\n      add\n      dup1\n      dup4\n      gt\n      tag_85\n      jumpi\n      dup3\n      swap1\n      sub\n      0x1f\n      and\n      dup3\n      add\n      swap2\n    tag_83:\n      pop\n      pop\n      pop\n      pop\n      pop\n      swap1\n      dup1\n      0x01\n      add\n      sload\n      swap1\n      dup1\n      0x02\n      add\n      sload\n      swap1\n      dup1\n      0x03\n      add\n      sload\n      swap1\n      dup1\n      0x04\n      add\n      0x00\n      swap1\n      sload\n      swap1\n      0x0100\n      exp\n      swap1\n      div\n      0xff\n      and\n      swap1\n      pop\n      dup6\n      jump\t// out\n        /* \"contracts/MyFirstDAO.sol\":2393:3168  function removeMember(address _member) public{... */\n    tag_29:\n        /* \"contracts/MyFirstDAO.sol\":2478:2482  true */\n      0x01\n        /* \"contracts/MyFirstDAO.sol\":2457:2482  isMember[_member] == true */\n      iszero\n      iszero\n        /* \"contracts/MyFirstDAO.sol\":2457:2465  isMember */\n      0x01\n        /* \"contracts/MyFirstDAO.sol\":2457:2474  isMember[_member] */\n      0x00\n        /* \"contracts/MyFirstDAO.sol\":2466:2473  _member */\n      dup4\n        /* \"contracts/MyFirstDAO.sol\":2457:2474  isMember[_member] */\n      0xffffffffffffffffffffffffffffffffffffffff\n      and\n      0xffffffffffffffffffffffffffffffffffffffff\n      and\n      dup2\n      mstore\n      0x20\n      add\n      swap1\n      dup2\n      mstore\n      0x20\n      add\n      0x00\n      keccak256\n      0x00\n      swap1\n      sload\n      swap1\n      0x0100\n      exp\n      swap1\n      div\n      0xff\n      and\n        /* \"contracts/MyFirstDAO.sol\":2457:2482  isMember[_member] == true */\n      iszero\n      iszero\n      eq\n        /* \"contracts/MyFirstDAO.sol\":2449:2507  require(isMember[_member] == true,\"Member does not exist\") */\n      tag_87\n      jumpi\n      mload(0x40)\n      0x08c379a000000000000000000000000000000000000000000000000000000000\n      dup2\n      mstore\n      0x04\n      add\n      tag_88\n      swap1\n      tag_89\n      jump\t// in\n    tag_88:\n      mload(0x40)\n      dup1\n      swap2\n      sub\n      swap1\n      revert\n    tag_87:\n        /* \"contracts/MyFirstDAO.sol\":2540:2659  Members({... */\n      mload(0x40)\n      dup1\n      0x60\n      add\n      0x40\n      mstore\n      dup1\n        /* \"contracts/MyFirstDAO.sol\":2586:2587  0 */\n      0x00\n        /* \"contracts/MyFirstDAO.sol\":2540:2659  Members({... */\n      0xffffffffffffffffffffffffffffffffffffffff\n      and\n      dup2\n      mstore\n      0x20\n      add\n        /* \"contracts/MyFirstDAO.sol\":2616:2617  0 */\n      0x00\n        /* \"contracts/MyFirstDAO.sol\":2540:2659  Members({... */\n      dup2\n      mstore\n      0x20\n      add\n        /* \"contracts/MyFirstDAO.sol\":2646:2647  0 */\n      0x00\n        /* \"contracts/MyFirstDAO.sol\":2540:2659  Members({... */\n      dup2\n      mstore\n      pop\n        /* \"contracts/MyFirstDAO.sol\":2518:2528  memberInfo */\n      0x02\n        /* \"contracts/MyFirstDAO.sol\":2518:2537  memberInfo[_member] */\n      0x00\n        /* \"contracts/MyFirstDAO.sol\":2529:2536  _member */\n      dup4\n        /* \"contracts/MyFirstDAO.sol\":2518:2537  memberInfo[_member] */\n      0xffffffffffffffffffffffffffffffffffffffff\n      and\n      0xffffffffffffffffffffffffffffffffffffffff\n      and\n      dup2\n      mstore\n      0x20\n      add\n      swap1\n      dup2\n      mstore\n      0x20\n      add\n      0x00\n      keccak256\n        /* \"contracts/MyFirstDAO.sol\":2518:2659  memberInfo[_member] = Members({... */\n      0x00\n      dup3\n      add\n      mload\n      dup2\n      0x00\n      add\n      exp(0x0100, 0x00)\n      dup2\n      sload\n      dup2\n      0xffffffffffffffffffffffffffffffffffffffff\n      mul\n      not\n      and\n      swap1\n      dup4\n      0xffffffffffffffffffffffffffffffffffffffff\n      and\n      mul\n      or\n      swap1\n      sstore\n      pop\n      0x20\n      dup3\n      add\n      mload\n      dup2\n      0x01\n      add\n      sstore\n      0x40\n      dup3\n      add\n      mload\n      dup2\n      0x02\n      add\n      sstore\n      swap1\n      pop\n      pop\n        /* \"contracts/MyFirstDAO.sol\":2674:2680  uint i */\n      0x00\n        /* \"contracts/MyFirstDAO.sol\":2670:2981  for(uint i=0; i<members.length; i++){//basic stack function to remve element , swap node with last node and then pop the last node... */\n    tag_90:\n        /* \"contracts/MyFirstDAO.sol\":2686:2693  members */\n      0x00\n        /* \"contracts/MyFirstDAO.sol\":2686:2700  members.length */\n      dup1\n      sload\n      swap1\n      pop\n        /* \"contracts/MyFirstDAO.sol\":2684:2685  i */\n      dup2\n        /* \"contracts/MyFirstDAO.sol\":2684:2700  i<members.length */\n      lt\n        /* \"contracts/MyFirstDAO.sol\":2670:2981  for(uint i=0; i<members.length; i++){//basic stack function to remve element , swap node with last node and then pop the last node... */\n      iszero\n      tag_91\n      jumpi\n        /* \"contracts/MyFirstDAO.sol\":2831:2838  _member */\n      dup2\n        /* \"contracts/MyFirstDAO.sol\":2817:2838  members[i] == _member */\n      0xffffffffffffffffffffffffffffffffffffffff\n      and\n        /* \"contracts/MyFirstDAO.sol\":2817:2824  members */\n      0x00\n        /* \"contracts/MyFirstDAO.sol\":2825:2826  i */\n      dup3\n        /* \"contracts/MyFirstDAO.sol\":2817:2827  members[i] */\n      dup2\n      sload\n      dup2\n      lt\n      tag_93\n      jumpi\n      tag_94\n      tag_95\n      jump\t// in\n    tag_94:\n    tag_93:\n      swap1\n      0x00\n      mstore\n      keccak256(0x00, 0x20)\n      add\n      0x00\n      swap1\n      sload\n      swap1\n      0x0100\n      exp\n      swap1\n      div\n      0xffffffffffffffffffffffffffffffffffffffff\n      and\n        /* \"contracts/MyFirstDAO.sol\":2817:2838  members[i] == _member */\n      0xffffffffffffffffffffffffffffffffffffffff\n      and\n      sub\n        /* \"contracts/MyFirstDAO.sol\":2814:2970  if(members[i] == _member){... */\n      tag_97\n      jumpi\n        /* \"contracts/MyFirstDAO.sol\":2871:2878  members */\n      0x00\n        /* \"contracts/MyFirstDAO.sol\":2896:2897  1 */\n      0x01\n        /* \"contracts/MyFirstDAO.sol\":2879:2886  members */\n      0x00\n        /* \"contracts/MyFirstDAO.sol\":2879:2893  members.length */\n      dup1\n      sload\n      swap1\n      pop\n        /* \"contracts/MyFirstDAO.sol\":2879:2897  members.length - 1 */\n      tag_98\n      swap2\n      swap1\n      tag_99\n      jump\t// in\n    tag_98:\n        /* \"contracts/MyFirstDAO.sol\":2871:2898  members[members.length - 1] */\n      dup2\n      sload\n      dup2\n      lt\n      tag_100\n      jumpi\n      tag_101\n      tag_95\n      jump\t// in\n    tag_101:\n    tag_100:\n      swap1\n      0x00\n      mstore\n      keccak256(0x00, 0x20)\n      add\n      0x00\n      swap1\n      sload\n      swap1\n      0x0100\n      exp\n      swap1\n      div\n      0xffffffffffffffffffffffffffffffffffffffff\n      and\n        /* \"contracts/MyFirstDAO.sol\":2858:2865  members */\n      0x00\n        /* \"contracts/MyFirstDAO.sol\":2866:2867  i */\n      dup3\n        /* \"contracts/MyFirstDAO.sol\":2858:2868  members[i] */\n      dup2\n      sload\n      dup2\n      lt\n      tag_103\n      jumpi\n      tag_104\n      tag_95\n      jump\t// in\n    tag_104:\n    tag_103:\n      swap1\n      0x00\n      mstore\n      keccak256(0x00, 0x20)\n      add\n      0x00\n        /* \"contracts/MyFirstDAO.sol\":2858:2898  members[i] = members[members.length - 1] */\n      0x0100\n      exp\n      dup2\n      sload\n      dup2\n      0xffffffffffffffffffffffffffffffffffffffff\n      mul\n      not\n      and\n      swap1\n      dup4\n      0xffffffffffffffffffffffffffffffffffffffff\n      and\n      mul\n      or\n      swap1\n      sstore\n      pop\n        /* \"contracts/MyFirstDAO.sol\":2917:2924  members */\n      0x00\n        /* \"contracts/MyFirstDAO.sol\":2917:2930  members.pop() */\n      dup1\n      sload\n      dup1\n      tag_106\n      jumpi\n      tag_107\n      tag_108\n      jump\t// in\n    tag_107:\n    tag_106:\n      0x01\n      swap1\n      sub\n      dup2\n      dup2\n      swap1\n      0x00\n      mstore\n      keccak256(0x00, 0x20)\n      add\n      exp(0x0100, 0x00)\n      dup2\n      sload\n      swap1\n      0xffffffffffffffffffffffffffffffffffffffff\n      mul\n      not\n      and\n      swap1\n      sstore\n      swap1\n      sstore\n        /* \"contracts/MyFirstDAO.sol\":2949:2954  break */\n      jump(tag_91)\n        /* \"contracts/MyFirstDAO.sol\":2814:2970  if(members[i] == _member){... */\n    tag_97:\n        /* \"contracts/MyFirstDAO.sol\":2702:2705  i++ */\n      dup1\n      dup1\n      0x01\n      add\n      swap2\n      pop\n      pop\n        /* \"contracts/MyFirstDAO.sol\":2670:2981  for(uint i=0; i<members.length; i++){//basic stack function to remve element , swap node with last node and then pop the last node... */\n      jump(tag_90)\n    tag_91:\n      pop\n        /* \"contracts/MyFirstDAO.sol\":3067:3072  false */\n      0x00\n        /* \"contracts/MyFirstDAO.sol\":3047:3055  isMember */\n      0x01\n        /* \"contracts/MyFirstDAO.sol\":3047:3064  isMember[_member] */\n      0x00\n        /* \"contracts/MyFirstDAO.sol\":3056:3063  _member */\n      dup4\n        /* \"contracts/MyFirstDAO.sol\":3047:3064  isMember[_member] */\n      0xffffffffffffffffffffffffffffffffffffffff\n      and\n      0xffffffffffffffffffffffffffffffffffffffff\n      and\n      dup2\n      mstore\n      0x20\n      add\n      swap1\n      dup2\n      mstore\n      0x20\n      add\n      0x00\n      keccak256\n      0x00\n        /* \"contracts/MyFirstDAO.sol\":3047:3072  isMember[_member] = false */\n      0x0100\n      exp\n      dup2\n      sload\n      dup2\n      0xff\n      mul\n      not\n      and\n      swap1\n      dup4\n      iszero\n      iszero\n      mul\n      or\n      swap1\n      sstore\n      pop\n        /* \"contracts/MyFirstDAO.sol\":3103:3104  0 */\n      0x00\n        /* \"contracts/MyFirstDAO.sol\":3083:3091  balances */\n      0x06\n        /* \"contracts/MyFirstDAO.sol\":3083:3100  balances[_member] */\n      0x00\n        /* \"contracts/MyFirstDAO.sol\":3092:3099  _member */\n      dup4\n        /* \"contracts/MyFirstDAO.sol\":3083:3100  balances[_member] */\n      0xffffffffffffffffffffffffffffffffffffffff\n      and\n      0xffffffffffffffffffffffffffffffffffffffff\n      and\n      dup2\n      mstore\n      0x20\n      add\n      swap1\n      dup2\n      mstore\n      0x20\n      add\n      0x00\n      keccak256\n        /* \"contracts/MyFirstDAO.sol\":3083:3104  balances[_member] = 0 */\n      dup2\n      swap1\n      sstore\n      pop\n        /* \"contracts/MyFirstDAO.sol\":3129:3132  100 */\n      0x64\n        /* \"contracts/MyFirstDAO.sol\":3115:3126  totalSupply */\n      0x05\n      0x00\n        /* \"contracts/MyFirstDAO.sol\":3115:3132  totalSupply -=100 */\n      dup3\n      dup3\n      sload\n      tag_110\n      swap2\n      swap1\n      tag_99\n      jump\t// in\n    tag_110:\n      swap3\n      pop\n      pop\n      dup2\n      swap1\n      sstore\n      pop\n        /* \"contracts/MyFirstDAO.sol\":2393:3168  function removeMember(address _member) public{... */\n      pop\n      jump\t// out\n        /* \"contracts/MyFirstDAO.sol\":5970:6485  function executeProposal(uint _proposalId) public {... */\n    tag_32:\n        /* \"contracts/MyFirstDAO.sol\":6074:6079  false */\n      0x00\n        /* \"contracts/MyFirstDAO.sol\":6039:6079  proposals[_proposalId].executed == false */\n      iszero\n      iszero\n        /* \"contracts/MyFirstDAO.sol\":6039:6048  proposals */\n      0x04\n        /* \"contracts/MyFirstDAO.sol\":6049:6060  _proposalId */\n      dup3\n        /* \"contracts/MyFirstDAO.sol\":6039:6061  proposals[_proposalId] */\n      dup2\n      sload\n      dup2\n      lt\n      tag_112\n      jumpi\n      tag_113\n      tag_95\n      jump\t// in\n    tag_113:\n    tag_112:\n      swap1\n      0x00\n      mstore\n      keccak256(0x00, 0x20)\n      swap1\n      0x05\n      mul\n      add\n        /* \"contracts/MyFirstDAO.sol\":6039:6070  proposals[_proposalId].executed */\n      0x04\n      add\n      0x00\n      swap1\n      sload\n      swap1\n      0x0100\n      exp\n      swap1\n      div\n      0xff\n      and\n        /* \"contracts/MyFirstDAO.sol\":6039:6079  proposals[_proposalId].executed == false */\n      iszero\n      iszero\n      eq\n        /* \"contracts/MyFirstDAO.sol\":6031:6117  require(proposals[_proposalId].executed == false,\"Proposal has already been executed\") */\n      tag_115\n      jumpi\n      mload(0x40)\n      0x08c379a000000000000000000000000000000000000000000000000000000000\n      dup2\n      mstore\n      0x04\n      add\n      tag_116\n      swap1\n      tag_117\n      jump\t// in\n    tag_116:\n      mload(0x40)\n      dup1\n      swap2\n      sub\n      swap1\n      revert\n    tag_115:\n        /* \"contracts/MyFirstDAO.sol\":6170:6179  proposals */\n      0x04\n        /* \"contracts/MyFirstDAO.sol\":6180:6191  _proposalId */\n      dup2\n        /* \"contracts/MyFirstDAO.sol\":6170:6192  proposals[_proposalId] */\n      dup2\n      sload\n      dup2\n      lt\n      tag_118\n      jumpi\n      tag_119\n      tag_95\n      jump\t// in\n    tag_119:\n    tag_118:\n      swap1\n      0x00\n      mstore\n      keccak256(0x00, 0x20)\n      swap1\n      0x05\n      mul\n      add\n        /* \"contracts/MyFirstDAO.sol\":6170:6200  proposals[_proposalId].noCount */\n      0x03\n      add\n      sload\n        /* \"contracts/MyFirstDAO.sol\":6136:6145  proposals */\n      0x04\n        /* \"contracts/MyFirstDAO.sol\":6146:6157  _proposalId */\n      dup3\n        /* \"contracts/MyFirstDAO.sol\":6136:6158  proposals[_proposalId] */\n      dup2\n      sload\n      dup2\n      lt\n      tag_121\n      jumpi\n      tag_122\n      tag_95\n      jump\t// in\n    tag_122:\n    tag_121:\n      swap1\n      0x00\n      mstore\n      keccak256(0x00, 0x20)\n      swap1\n      0x05\n      mul\n      add\n        /* \"contracts/MyFirstDAO.sol\":6136:6167  proposals[_proposalId].yesCount */\n      0x02\n      add\n      sload\n        /* \"contracts/MyFirstDAO.sol\":6136:6200  proposals[_proposalId].yesCount > proposals[_proposalId].noCount */\n      gt\n        /* \"contracts/MyFirstDAO.sol\":6128:6201  require(proposals[_proposalId].yesCount > proposals[_proposalId].noCount) */\n      tag_124\n      jumpi\n      0x00\n      dup1\n      revert\n    tag_124:\n        /* \"contracts/MyFirstDAO.sol\":6351:6355  true */\n      0x01\n        /* \"contracts/MyFirstDAO.sol\":6317:6326  proposals */\n      0x04\n        /* \"contracts/MyFirstDAO.sol\":6327:6338  _proposalId */\n      dup3\n        /* \"contracts/MyFirstDAO.sol\":6317:6339  proposals[_proposalId] */\n      dup2\n      sload\n      dup2\n      lt\n      tag_125\n      jumpi\n      tag_126\n      tag_95\n      jump\t// in\n    tag_126:\n    tag_125:\n      swap1\n      0x00\n      mstore\n      keccak256(0x00, 0x20)\n      swap1\n      0x05\n      mul\n      add\n        /* \"contracts/MyFirstDAO.sol\":6317:6348  proposals[_proposalId].executed */\n      0x04\n      add\n      0x00\n        /* \"contracts/MyFirstDAO.sol\":6317:6355  proposals[_proposalId].executed = true */\n      0x0100\n      exp\n      dup2\n      sload\n      dup2\n      0xff\n      mul\n      not\n      and\n      swap1\n      dup4\n      iszero\n      iszero\n      mul\n      or\n      swap1\n      sstore\n      pop\n        /* \"contracts/MyFirstDAO.sol\":6431:6477  proposalAccepted(\"Proposal has been approved\") */\n      0x5fee5f0f4677bb6b478e6288c343995c7e31bbec0987f077b0d1594c4861c289\n      mload(0x40)\n      tag_128\n      swap1\n      tag_129\n      jump\t// in\n    tag_128:\n      mload(0x40)\n      dup1\n      swap2\n      sub\n      swap1\n      log1\n        /* \"contracts/MyFirstDAO.sol\":5970:6485  function executeProposal(uint _proposalId) public {... */\n      pop\n      jump\t// out\n        /* \"contracts/MyFirstDAO.sol\":1185:1208  uint public totalSupply */\n    tag_34:\n      sload(0x05)\n      dup2\n      jump\t// out\n        /* \"contracts/MyFirstDAO.sol\":1215:1256  mapping (address => uint) public balances */\n    tag_39:\n      mstore(0x20, 0x06)\n      dup1\n      0x00\n      mstore\n      keccak256(0x00, 0x40)\n      0x00\n      swap2\n      pop\n      swap1\n      pop\n      sload\n      dup2\n      jump\t// out\n        /* \"contracts/MyFirstDAO.sol\":3788:4726  function voteYes(uint _proposalId, uint _tokenAmount) public { ... */\n    tag_44:\n        /* \"contracts/MyFirstDAO.sol\":3996:4000  true */\n      0x01\n        /* \"contracts/MyFirstDAO.sol\":3972:4000  isMember[msg.sender] == true */\n      iszero\n      iszero\n        /* \"contracts/MyFirstDAO.sol\":3972:3980  isMember */\n      0x01\n        /* \"contracts/MyFirstDAO.sol\":3972:3992  isMember[msg.sender] */\n      0x00\n        /* \"contracts/MyFirstDAO.sol\":3981:3991  msg.sender */\n      caller\n        /* \"contracts/MyFirstDAO.sol\":3972:3992  isMember[msg.sender] */\n      0xffffffffffffffffffffffffffffffffffffffff\n      and\n      0xffffffffffffffffffffffffffffffffffffffff\n      and\n      dup2\n      mstore\n      0x20\n      add\n      swap1\n      dup2\n      mstore\n      0x20\n      add\n      0x00\n      keccak256\n      0x00\n      swap1\n      sload\n      swap1\n      0x0100\n      exp\n      swap1\n      div\n      0xff\n      and\n        /* \"contracts/MyFirstDAO.sol\":3972:4000  isMember[msg.sender] == true */\n      iszero\n      iszero\n      eq\n        /* \"contracts/MyFirstDAO.sol\":3964:4037  require(isMember[msg.sender] == true , \"You have to be a member to vote\") */\n      tag_131\n      jumpi\n      mload(0x40)\n      0x08c379a000000000000000000000000000000000000000000000000000000000\n      dup2\n      mstore\n      0x04\n      add\n      tag_132\n      swap1\n      tag_133\n      jump\t// in\n    tag_132:\n      mload(0x40)\n      dup1\n      swap2\n      sub\n      swap1\n      revert\n    tag_131:\n        /* \"contracts/MyFirstDAO.sol\":4080:4092  _tokenAmount */\n      dup1\n        /* \"contracts/MyFirstDAO.sol\":4056:4064  balances */\n      0x06\n        /* \"contracts/MyFirstDAO.sol\":4056:4076  balances[msg.sender] */\n      0x00\n        /* \"contracts/MyFirstDAO.sol\":4065:4075  msg.sender */\n      caller\n        /* \"contracts/MyFirstDAO.sol\":4056:4076  balances[msg.sender] */\n      0xffffffffffffffffffffffffffffffffffffffff\n      and\n      0xffffffffffffffffffffffffffffffffffffffff\n      and\n      dup2\n      mstore\n      0x20\n      add\n      swap1\n      dup2\n      mstore\n      0x20\n      add\n      0x00\n      keccak256\n      sload\n        /* \"contracts/MyFirstDAO.sol\":4056:4092  balances[msg.sender] >= _tokenAmount */\n      lt\n      iszero\n        /* \"contracts/MyFirstDAO.sol\":4048:4122  require(balances[msg.sender] >= _tokenAmount, \"Not enough tokens to vote\") */\n      tag_134\n      jumpi\n      mload(0x40)\n      0x08c379a000000000000000000000000000000000000000000000000000000000\n      dup2\n      mstore\n      0x04\n      add\n      tag_135\n      swap1\n      tag_136\n      jump\t// in\n    tag_135:\n      mload(0x40)\n      dup1\n      swap2\n      sub\n      swap1\n      revert\n    tag_134:\n        /* \"contracts/MyFirstDAO.sol\":4175:4180  false */\n      0x00\n        /* \"contracts/MyFirstDAO.sol\":4141:4180  votes[msg.sender][_proposalId] == false */\n      iszero\n      iszero\n        /* \"contracts/MyFirstDAO.sol\":4141:4146  votes */\n      0x03\n        /* \"contracts/MyFirstDAO.sol\":4141:4158  votes[msg.sender] */\n      0x00\n        /* \"contracts/MyFirstDAO.sol\":4147:4157  msg.sender */\n      caller\n        /* \"contracts/MyFirstDAO.sol\":4141:4158  votes[msg.sender] */\n      0xffffffffffffffffffffffffffffffffffffffff\n      and\n      0xffffffffffffffffffffffffffffffffffffffff\n      and\n      dup2\n      mstore\n      0x20\n      add\n      swap1\n      dup2\n      mstore\n      0x20\n      add\n      0x00\n      keccak256\n        /* \"contracts/MyFirstDAO.sol\":4141:4171  votes[msg.sender][_proposalId] */\n      0x00\n        /* \"contracts/MyFirstDAO.sol\":4159:4170  _proposalId */\n      dup5\n        /* \"contracts/MyFirstDAO.sol\":4141:4171  votes[msg.sender][_proposalId] */\n      dup2\n      mstore\n      0x20\n      add\n      swap1\n      dup2\n      mstore\n      0x20\n      add\n      0x00\n      keccak256\n      0x00\n      swap1\n      sload\n      swap1\n      0x0100\n      exp\n      swap1\n      div\n      0xff\n      and\n        /* \"contracts/MyFirstDAO.sol\":4141:4180  votes[msg.sender][_proposalId] == false */\n      iszero\n      iszero\n      eq\n        /* \"contracts/MyFirstDAO.sol\":4133:4207  require(votes[msg.sender][_proposalId] == false, \"You have already voted\") */\n      tag_137\n      jumpi\n      mload(0x40)\n      0x08c379a000000000000000000000000000000000000000000000000000000000\n      dup2\n      mstore\n      0x04\n      add\n      tag_138\n      swap1\n      tag_139\n      jump\t// in\n    tag_138:\n      mload(0x40)\n      dup1\n      swap2\n      sub\n      swap1\n      revert\n    tag_137:\n        /* \"contracts/MyFirstDAO.sol\":4251:4255  true */\n      0x01\n        /* \"contracts/MyFirstDAO.sol\":4218:4223  votes */\n      0x03\n        /* \"contracts/MyFirstDAO.sol\":4218:4235  votes[msg.sender] */\n      0x00\n        /* \"contracts/MyFirstDAO.sol\":4224:4234  msg.sender */\n      caller\n        /* \"contracts/MyFirstDAO.sol\":4218:4235  votes[msg.sender] */\n      0xffffffffffffffffffffffffffffffffffffffff\n      and\n      0xffffffffffffffffffffffffffffffffffffffff\n      and\n      dup2\n      mstore\n      0x20\n      add\n      swap1\n      dup2\n      mstore\n      0x20\n      add\n      0x00\n      keccak256\n        /* \"contracts/MyFirstDAO.sol\":4218:4248  votes[msg.sender][_proposalId] */\n      0x00\n        /* \"contracts/MyFirstDAO.sol\":4236:4247  _proposalId */\n      dup5\n        /* \"contracts/MyFirstDAO.sol\":4218:4248  votes[msg.sender][_proposalId] */\n      dup2\n      mstore\n      0x20\n      add\n      swap1\n      dup2\n      mstore\n      0x20\n      add\n      0x00\n      keccak256\n      0x00\n        /* \"contracts/MyFirstDAO.sol\":4218:4255  votes[msg.sender][_proposalId] = true */\n      0x0100\n      exp\n      dup2\n      sload\n      dup2\n      0xff\n      mul\n      not\n      and\n      swap1\n      dup4\n      iszero\n      iszero\n      mul\n      or\n      swap1\n      sstore\n      pop\n        /* \"contracts/MyFirstDAO.sol\":4305:4317  _tokenAmount */\n      dup1\n        /* \"contracts/MyFirstDAO.sol\":4266:4276  memberInfo */\n      0x02\n        /* \"contracts/MyFirstDAO.sol\":4266:4288  memberInfo[msg.sender] */\n      0x00\n        /* \"contracts/MyFirstDAO.sol\":4277:4287  msg.sender */\n      caller\n        /* \"contracts/MyFirstDAO.sol\":4266:4288  memberInfo[msg.sender] */\n      0xffffffffffffffffffffffffffffffffffffffff\n      and\n      0xffffffffffffffffffffffffffffffffffffffff\n      and\n      dup2\n      mstore\n      0x20\n      add\n      swap1\n      dup2\n      mstore\n      0x20\n      add\n      0x00\n      keccak256\n        /* \"contracts/MyFirstDAO.sol\":4266:4301  memberInfo[msg.sender].tokenBalance */\n      0x02\n      add\n      0x00\n        /* \"contracts/MyFirstDAO.sol\":4266:4317  memberInfo[msg.sender].tokenBalance -= _tokenAmount */\n      dup3\n      dup3\n      sload\n      tag_140\n      swap2\n      swap1\n      tag_99\n      jump\t// in\n    tag_140:\n      swap3\n      pop\n      pop\n      dup2\n      swap1\n      sstore\n      pop\n        /* \"contracts/MyFirstDAO.sol\":4412:4424  _tokenAmount */\n      dup1\n        /* \"contracts/MyFirstDAO.sol\":4376:4385  proposals */\n      0x04\n        /* \"contracts/MyFirstDAO.sol\":4386:4397  _proposalId */\n      dup4\n        /* \"contracts/MyFirstDAO.sol\":4376:4398  proposals[_proposalId] */\n      dup2\n      sload\n      dup2\n      lt\n      tag_141\n      jumpi\n      tag_142\n      tag_95\n      jump\t// in\n    tag_142:\n    tag_141:\n      swap1\n      0x00\n      mstore\n      keccak256(0x00, 0x20)\n      swap1\n      0x05\n      mul\n      add\n        /* \"contracts/MyFirstDAO.sol\":4376:4408  proposals[_proposalId].voteCount */\n      0x01\n      add\n      0x00\n        /* \"contracts/MyFirstDAO.sol\":4376:4424  proposals[_proposalId].voteCount += _tokenAmount */\n      dup3\n      dup3\n      sload\n      tag_144\n      swap2\n      swap1\n      tag_145\n      jump\t// in\n    tag_144:\n      swap3\n      pop\n      pop\n      dup2\n      swap1\n      sstore\n      pop\n        /* \"contracts/MyFirstDAO.sol\":4612:4624  _tokenAmount */\n      dup1\n        /* \"contracts/MyFirstDAO.sol\":4577:4586  proposals */\n      0x04\n        /* \"contracts/MyFirstDAO.sol\":4587:4598  _proposalId */\n      dup4\n        /* \"contracts/MyFirstDAO.sol\":4577:4599  proposals[_proposalId] */\n      dup2\n      sload\n      dup2\n      lt\n      tag_146\n      jumpi\n      tag_147\n      tag_95\n      jump\t// in\n    tag_147:\n    tag_146:\n      swap1\n      0x00\n      mstore\n      keccak256(0x00, 0x20)\n      swap1\n      0x05\n      mul\n      add\n        /* \"contracts/MyFirstDAO.sol\":4577:4608  proposals[_proposalId].yesCount */\n      0x02\n      add\n      0x00\n        /* \"contracts/MyFirstDAO.sol\":4577:4624  proposals[_proposalId].yesCount += _tokenAmount */\n      dup3\n      dup3\n      sload\n      tag_149\n      swap2\n      swap1\n      tag_145\n      jump\t// in\n    tag_149:\n      swap3\n      pop\n      pop\n      dup2\n      swap1\n      sstore\n      pop\n        /* \"contracts/MyFirstDAO.sol\":4662:4673  _proposalId */\n      dup2\n        /* \"contracts/MyFirstDAO.sol\":4650:4660  msg.sender */\n      caller\n        /* \"contracts/MyFirstDAO.sol\":4640:4688  voteCaste(msg.sender, _proposalId, _tokenAmount) */\n      0xffffffffffffffffffffffffffffffffffffffff\n      and\n      0x3380729ed0962b6604f46f1805714f3e4301a891533dd1dc8394c59f5c7921ec\n        /* \"contracts/MyFirstDAO.sol\":4675:4687  _tokenAmount */\n      dup4\n        /* \"contracts/MyFirstDAO.sol\":4640:4688  voteCaste(msg.sender, _proposalId, _tokenAmount) */\n      mload(0x40)\n      tag_150\n      swap2\n      swap1\n      tag_36\n      jump\t// in\n    tag_150:\n      mload(0x40)\n      dup1\n      swap2\n      sub\n      swap1\n      log3\n        /* \"contracts/MyFirstDAO.sol\":3788:4726  function voteYes(uint _proposalId, uint _tokenAmount) public { ... */\n      pop\n      pop\n      jump\t// out\n        /* \"contracts/MyFirstDAO.sol\":3314:3705  function createProposal(string memory _description) public {... */\n    tag_48:\n        /* \"contracts/MyFirstDAO.sol\":3384:3393  proposals */\n      0x04\n        /* \"contracts/MyFirstDAO.sol\":3399:3573  Proposal({... */\n      mload(0x40)\n      dup1\n      0xa0\n      add\n      0x40\n      mstore\n      dup1\n        /* \"contracts/MyFirstDAO.sol\":3437:3449  _description */\n      dup4\n        /* \"contracts/MyFirstDAO.sol\":3399:3573  Proposal({... */\n      dup2\n      mstore\n      0x20\n      add\n        /* \"contracts/MyFirstDAO.sol\":3476:3477  0 */\n      0x00\n        /* \"contracts/MyFirstDAO.sol\":3399:3573  Proposal({... */\n      dup2\n      mstore\n      0x20\n      add\n        /* \"contracts/MyFirstDAO.sol\":3503:3504  0 */\n      0x00\n        /* \"contracts/MyFirstDAO.sol\":3399:3573  Proposal({... */\n      dup2\n      mstore\n      0x20\n      add\n        /* \"contracts/MyFirstDAO.sol\":3529:3530  0 */\n      0x00\n        /* \"contracts/MyFirstDAO.sol\":3399:3573  Proposal({... */\n      dup2\n      mstore\n      0x20\n      add\n        /* \"contracts/MyFirstDAO.sol\":3556:3561  false */\n      0x00\n        /* \"contracts/MyFirstDAO.sol\":3399:3573  Proposal({... */\n      iszero\n      iszero\n      dup2\n      mstore\n      pop\n        /* \"contracts/MyFirstDAO.sol\":3384:3574  proposals.push(Proposal({... */\n      swap1\n      dup1\n      0x01\n      dup2\n      sload\n      add\n      dup1\n      dup3\n      sstore\n      dup1\n      swap2\n      pop\n      pop\n      0x01\n      swap1\n      sub\n      swap1\n      0x00\n      mstore\n      keccak256(0x00, 0x20)\n      swap1\n      0x05\n      mul\n      add\n      0x00\n      swap1\n      swap2\n      swap1\n      swap2\n      swap1\n      swap2\n      pop\n      0x00\n      dup3\n      add\n      mload\n      dup2\n      0x00\n      add\n      swap1\n      dup2\n      tag_153\n      swap2\n      swap1\n      tag_154\n      jump\t// in\n    tag_153:\n      pop\n      0x20\n      dup3\n      add\n      mload\n      dup2\n      0x01\n      add\n      sstore\n      0x40\n      dup3\n      add\n      mload\n      dup2\n      0x02\n      add\n      sstore\n      0x60\n      dup3\n      add\n      mload\n      dup2\n      0x03\n      add\n      sstore\n      0x80\n      dup3\n      add\n      mload\n      dup2\n      0x04\n      add\n      exp(0x0100, 0x00)\n      dup2\n      sload\n      dup2\n      0xff\n      mul\n      not\n      and\n      swap1\n      dup4\n      iszero\n      iszero\n      mul\n      or\n      swap1\n      sstore\n      pop\n      pop\n      pop\n        /* \"contracts/MyFirstDAO.sol\":3624:3625  1 */\n      0x01\n        /* \"contracts/MyFirstDAO.sol\":3606:3615  proposals */\n      0x04\n        /* \"contracts/MyFirstDAO.sol\":3606:3622  proposals.length */\n      dup1\n      sload\n      swap1\n      pop\n        /* \"contracts/MyFirstDAO.sol\":3606:3625  proposals.length -1 */\n      tag_155\n      swap2\n      swap1\n      tag_99\n      jump\t// in\n    tag_155:\n        /* \"contracts/MyFirstDAO.sol\":3590:3641  proposalCreated(proposals.length -1 , _description) */\n      0x224bdf126f8278f806ff6df5fa55141664543f82b918e5b6695864d1c6d4bbed\n        /* \"contracts/MyFirstDAO.sol\":3628:3640  _description */\n      dup3\n        /* \"contracts/MyFirstDAO.sol\":3590:3641  proposalCreated(proposals.length -1 , _description) */\n      mload(0x40)\n      tag_156\n      swap2\n      swap1\n      tag_157\n      jump\t// in\n    tag_156:\n      mload(0x40)\n      dup1\n      swap2\n      sub\n      swap1\n      log2\n        /* \"contracts/MyFirstDAO.sol\":3314:3705  function createProposal(string memory _description) public {... */\n      pop\n      jump\t// out\n        /* \"contracts/MyFirstDAO.sol\":497:521  address[] public members */\n    tag_51:\n      0x00\n      dup2\n      dup2\n      sload\n      dup2\n      lt\n      tag_158\n      jumpi\n      0x00\n      dup1\n      revert\n    tag_158:\n      swap1\n      0x00\n      mstore\n      keccak256(0x00, 0x20)\n      add\n      0x00\n      swap2\n      pop\n      sload\n      swap1\n      0x0100\n      exp\n      swap1\n      div\n      0xffffffffffffffffffffffffffffffffffffffff\n      and\n      dup2\n      jump\t// out\n        /* \"contracts/MyFirstDAO.sol\":4777:5884  function voteNo(uint _proposalId, uint _tokenAmount) public{... */\n    tag_56:\n        /* \"contracts/MyFirstDAO.sol\":4917:4921  true */\n      0x01\n        /* \"contracts/MyFirstDAO.sol\":4893:4921  isMember[msg.sender] == true */\n      iszero\n      iszero\n        /* \"contracts/MyFirstDAO.sol\":4893:4901  isMember */\n      0x01\n        /* \"contracts/MyFirstDAO.sol\":4893:4913  isMember[msg.sender] */\n      0x00\n        /* \"contracts/MyFirstDAO.sol\":4902:4912  msg.sender */\n      caller\n        /* \"contracts/MyFirstDAO.sol\":4893:4913  isMember[msg.sender] */\n      0xffffffffffffffffffffffffffffffffffffffff\n      and\n      0xffffffffffffffffffffffffffffffffffffffff\n      and\n      dup2\n      mstore\n      0x20\n      add\n      swap1\n      dup2\n      mstore\n      0x20\n      add\n      0x00\n      keccak256\n      0x00\n      swap1\n      sload\n      swap1\n      0x0100\n      exp\n      swap1\n      div\n      0xff\n      and\n        /* \"contracts/MyFirstDAO.sol\":4893:4921  isMember[msg.sender] == true */\n      iszero\n      iszero\n      eq\n        /* \"contracts/MyFirstDAO.sol\":4885:4958  require(isMember[msg.sender] == true , \"You have to be a member to vote\") */\n      tag_161\n      jumpi\n      mload(0x40)\n      0x08c379a000000000000000000000000000000000000000000000000000000000\n      dup2\n      mstore\n      0x04\n      add\n      tag_162\n      swap1\n      tag_133\n      jump\t// in\n    tag_162:\n      mload(0x40)\n      dup1\n      swap2\n      sub\n      swap1\n      revert\n    tag_161:\n        /* \"contracts/MyFirstDAO.sol\":5239:5251  _tokenAmount */\n      dup1\n        /* \"contracts/MyFirstDAO.sol\":5215:5223  balances */\n      0x06\n        /* \"contracts/MyFirstDAO.sol\":5215:5235  balances[msg.sender] */\n      0x00\n        /* \"contracts/MyFirstDAO.sol\":5224:5234  msg.sender */\n      caller\n        /* \"contracts/MyFirstDAO.sol\":5215:5235  balances[msg.sender] */\n      0xffffffffffffffffffffffffffffffffffffffff\n      and\n      0xffffffffffffffffffffffffffffffffffffffff\n      and\n      dup2\n      mstore\n      0x20\n      add\n      swap1\n      dup2\n      mstore\n      0x20\n      add\n      0x00\n      keccak256\n      sload\n        /* \"contracts/MyFirstDAO.sol\":5215:5251  balances[msg.sender] >= _tokenAmount */\n      lt\n      iszero\n        /* \"contracts/MyFirstDAO.sol\":5207:5281  require(balances[msg.sender] >= _tokenAmount, \"Not enough tokens to vote\") */\n      tag_163\n      jumpi\n      mload(0x40)\n      0x08c379a000000000000000000000000000000000000000000000000000000000\n      dup2\n      mstore\n      0x04\n      add\n      tag_164\n      swap1\n      tag_136\n      jump\t// in\n    tag_164:\n      mload(0x40)\n      dup1\n      swap2\n      sub\n      swap1\n      revert\n    tag_163:\n        /* \"contracts/MyFirstDAO.sol\":5334:5339  false */\n      0x00\n        /* \"contracts/MyFirstDAO.sol\":5300:5339  votes[msg.sender][_proposalId] == false */\n      iszero\n      iszero\n        /* \"contracts/MyFirstDAO.sol\":5300:5305  votes */\n      0x03\n        /* \"contracts/MyFirstDAO.sol\":5300:5317  votes[msg.sender] */\n      0x00\n        /* \"contracts/MyFirstDAO.sol\":5306:5316  msg.sender */\n      caller\n        /* \"contracts/MyFirstDAO.sol\":5300:5317  votes[msg.sender] */\n      0xffffffffffffffffffffffffffffffffffffffff\n      and\n      0xffffffffffffffffffffffffffffffffffffffff\n      and\n      dup2\n      mstore\n      0x20\n      add\n      swap1\n      dup2\n      mstore\n      0x20\n      add\n      0x00\n      keccak256\n        /* \"contracts/MyFirstDAO.sol\":5300:5330  votes[msg.sender][_proposalId] */\n      0x00\n        /* \"contracts/MyFirstDAO.sol\":5318:5329  _proposalId */\n      dup5\n        /* \"contracts/MyFirstDAO.sol\":5300:5330  votes[msg.sender][_proposalId] */\n      dup2\n      mstore\n      0x20\n      add\n      swap1\n      dup2\n      mstore\n      0x20\n      add\n      0x00\n      keccak256\n      0x00\n      swap1\n      sload\n      swap1\n      0x0100\n      exp\n      swap1\n      div\n      0xff\n      and\n        /* \"contracts/MyFirstDAO.sol\":5300:5339  votes[msg.sender][_proposalId] == false */\n      iszero\n      iszero\n      eq\n        /* \"contracts/MyFirstDAO.sol\":5292:5366  require(votes[msg.sender][_proposalId] == false, \"You have already voted\") */\n      tag_165\n      jumpi\n      mload(0x40)\n      0x08c379a000000000000000000000000000000000000000000000000000000000\n      dup2\n      mstore\n      0x04\n      add\n      tag_166\n      swap1\n      tag_139\n      jump\t// in\n    tag_166:\n      mload(0x40)\n      dup1\n      swap2\n      sub\n      swap1\n      revert\n    tag_165:\n        /* \"contracts/MyFirstDAO.sol\":5410:5414  true */\n      0x01\n        /* \"contracts/MyFirstDAO.sol\":5377:5382  votes */\n      0x03\n        /* \"contracts/MyFirstDAO.sol\":5377:5394  votes[msg.sender] */\n      0x00\n        /* \"contracts/MyFirstDAO.sol\":5383:5393  msg.sender */\n      caller\n        /* \"contracts/MyFirstDAO.sol\":5377:5394  votes[msg.sender] */\n      0xffffffffffffffffffffffffffffffffffffffff\n      and\n      0xffffffffffffffffffffffffffffffffffffffff\n      and\n      dup2\n      mstore\n      0x20\n      add\n      swap1\n      dup2\n      mstore\n      0x20\n      add\n      0x00\n      keccak256\n        /* \"contracts/MyFirstDAO.sol\":5377:5407  votes[msg.sender][_proposalId] */\n      0x00\n        /* \"contracts/MyFirstDAO.sol\":5395:5406  _proposalId */\n      dup5\n        /* \"contracts/MyFirstDAO.sol\":5377:5407  votes[msg.sender][_proposalId] */\n      dup2\n      mstore\n      0x20\n      add\n      swap1\n      dup2\n      mstore\n      0x20\n      add\n      0x00\n      keccak256\n      0x00\n        /* \"contracts/MyFirstDAO.sol\":5377:5414  votes[msg.sender][_proposalId] = true */\n      0x0100\n      exp\n      dup2\n      sload\n      dup2\n      0xff\n      mul\n      not\n      and\n      swap1\n      dup4\n      iszero\n      iszero\n      mul\n      or\n      swap1\n      sstore\n      pop\n        /* \"contracts/MyFirstDAO.sol\":5464:5476  _tokenAmount */\n      dup1\n        /* \"contracts/MyFirstDAO.sol\":5425:5435  memberInfo */\n      0x02\n        /* \"contracts/MyFirstDAO.sol\":5425:5447  memberInfo[msg.sender] */\n      0x00\n        /* \"contracts/MyFirstDAO.sol\":5436:5446  msg.sender */\n      caller\n        /* \"contracts/MyFirstDAO.sol\":5425:5447  memberInfo[msg.sender] */\n      0xffffffffffffffffffffffffffffffffffffffff\n      and\n      0xffffffffffffffffffffffffffffffffffffffff\n      and\n      dup2\n      mstore\n      0x20\n      add\n      swap1\n      dup2\n      mstore\n      0x20\n      add\n      0x00\n      keccak256\n        /* \"contracts/MyFirstDAO.sol\":5425:5460  memberInfo[msg.sender].tokenBalance */\n      0x02\n      add\n      0x00\n        /* \"contracts/MyFirstDAO.sol\":5425:5476  memberInfo[msg.sender].tokenBalance -= _tokenAmount */\n      dup3\n      dup3\n      sload\n      tag_167\n      swap2\n      swap1\n      tag_99\n      jump\t// in\n    tag_167:\n      swap3\n      pop\n      pop\n      dup2\n      swap1\n      sstore\n      pop\n        /* \"contracts/MyFirstDAO.sol\":5571:5583  _tokenAmount */\n      dup1\n        /* \"contracts/MyFirstDAO.sol\":5535:5544  proposals */\n      0x04\n        /* \"contracts/MyFirstDAO.sol\":5545:5556  _proposalId */\n      dup4\n        /* \"contracts/MyFirstDAO.sol\":5535:5557  proposals[_proposalId] */\n      dup2\n      sload\n      dup2\n      lt\n      tag_168\n      jumpi\n      tag_169\n      tag_95\n      jump\t// in\n    tag_169:\n    tag_168:\n      swap1\n      0x00\n      mstore\n      keccak256(0x00, 0x20)\n      swap1\n      0x05\n      mul\n      add\n        /* \"contracts/MyFirstDAO.sol\":5535:5567  proposals[_proposalId].voteCount */\n      0x01\n      add\n      0x00\n        /* \"contracts/MyFirstDAO.sol\":5535:5583  proposals[_proposalId].voteCount += _tokenAmount */\n      dup3\n      dup3\n      sload\n      tag_171\n      swap2\n      swap1\n      tag_145\n      jump\t// in\n    tag_171:\n      swap3\n      pop\n      pop\n      dup2\n      swap1\n      sstore\n      pop\n        /* \"contracts/MyFirstDAO.sol\":5770:5782  _tokenAmount */\n      dup1\n        /* \"contracts/MyFirstDAO.sol\":5736:5745  proposals */\n      0x04\n        /* \"contracts/MyFirstDAO.sol\":5746:5757  _proposalId */\n      dup4\n        /* \"contracts/MyFirstDAO.sol\":5736:5758  proposals[_proposalId] */\n      dup2\n      sload\n      dup2\n      lt\n      tag_172\n      jumpi\n      tag_173\n      tag_95\n      jump\t// in\n    tag_173:\n    tag_172:\n      swap1\n      0x00\n      mstore\n      keccak256(0x00, 0x20)\n      swap1\n      0x05\n      mul\n      add\n        /* \"contracts/MyFirstDAO.sol\":5736:5766  proposals[_proposalId].noCount */\n      0x03\n      add\n      0x00\n        /* \"contracts/MyFirstDAO.sol\":5736:5782  proposals[_proposalId].noCount += _tokenAmount */\n      dup3\n      dup3\n      sload\n      tag_175\n      swap2\n      swap1\n      tag_145\n      jump\t// in\n    tag_175:\n      swap3\n      pop\n      pop\n      dup2\n      swap1\n      sstore\n      pop\n        /* \"contracts/MyFirstDAO.sol\":5820:5831  _proposalId */\n      dup2\n        /* \"contracts/MyFirstDAO.sol\":5808:5818  msg.sender */\n      caller\n        /* \"contracts/MyFirstDAO.sol\":5798:5846  voteCaste(msg.sender, _proposalId, _tokenAmount) */\n      0xffffffffffffffffffffffffffffffffffffffff\n      and\n      0x3380729ed0962b6604f46f1805714f3e4301a891533dd1dc8394c59f5c7921ec\n        /* \"contracts/MyFirstDAO.sol\":5833:5845  _tokenAmount */\n      dup4\n        /* \"contracts/MyFirstDAO.sol\":5798:5846  voteCaste(msg.sender, _proposalId, _tokenAmount) */\n      mload(0x40)\n      tag_176\n      swap2\n      swap1\n      tag_36\n      jump\t// in\n    tag_176:\n      mload(0x40)\n      dup1\n      swap2\n      sub\n      swap1\n      log3\n        /* \"contracts/MyFirstDAO.sol\":4777:5884  function voteNo(uint _proposalId, uint _tokenAmount) public{... */\n      pop\n      pop\n      jump\t// out\n        /* \"contracts/MyFirstDAO.sol\":1635:1655  address public owner */\n    tag_58:\n      0x07\n      0x00\n      swap1\n      sload\n      swap1\n      0x0100\n      exp\n      swap1\n      div\n      0xffffffffffffffffffffffffffffffffffffffff\n      and\n      dup2\n      jump\t// out\n        /* \"contracts/MyFirstDAO.sol\":861:916  mapping(address => mapping (uint => bool)) public votes */\n    tag_63:\n      mstore(0x20, 0x03)\n      dup2\n      0x00\n      mstore\n      mstore(0x20, keccak256(0x00, 0x40))\n      dup1\n      0x00\n      mstore\n      keccak256(0x00, 0x40)\n      0x00\n      swap2\n      pop\n      swap2\n      pop\n      swap1\n      sload\n      swap1\n      0x0100\n      exp\n      swap1\n      div\n      0xff\n      and\n      dup2\n      jump\t// out\n        /* \"contracts/MyFirstDAO.sol\":566:606  mapping(address => bool) public isMember */\n    tag_68:\n      mstore(0x20, 0x01)\n      dup1\n      0x00\n      mstore\n      keccak256(0x00, 0x40)\n      0x00\n      swap2\n      pop\n      sload\n      swap1\n      0x0100\n      exp\n      swap1\n      div\n      0xff\n      and\n      dup2\n      jump\t// out\n        /* \"contracts/MyFirstDAO.sol\":716:761  mapping(address => Members) public memberInfo */\n    tag_72:\n      mstore(0x20, 0x02)\n      dup1\n      0x00\n      mstore\n      keccak256(0x00, 0x40)\n      0x00\n      swap2\n      pop\n      swap1\n      pop\n      dup1\n      0x00\n      add\n      0x00\n      swap1\n      sload\n      swap1\n      0x0100\n      exp\n      swap1\n      div\n      0xffffffffffffffffffffffffffffffffffffffff\n      and\n      swap1\n      dup1\n      0x01\n      add\n      sload\n      swap1\n      dup1\n      0x02\n      add\n      sload\n      swap1\n      pop\n      dup4\n      jump\t// out\n        /* \"contracts/MyFirstDAO.sol\":1771:2362  function addMember(address _member) public {... */\n    tag_77:\n        /* \"contracts/MyFirstDAO.sol\":1847:1852  owner */\n      0x07\n      0x00\n      swap1\n      sload\n      swap1\n      0x0100\n      exp\n      swap1\n      div\n      0xffffffffffffffffffffffffffffffffffffffff\n      and\n        /* \"contracts/MyFirstDAO.sol\":1833:1852  msg.sender == owner */\n      0xffffffffffffffffffffffffffffffffffffffff\n      and\n        /* \"contracts/MyFirstDAO.sol\":1833:1843  msg.sender */\n      caller\n        /* \"contracts/MyFirstDAO.sol\":1833:1852  msg.sender == owner */\n      0xffffffffffffffffffffffffffffffffffffffff\n      and\n      eq\n        /* \"contracts/MyFirstDAO.sol\":1825:1853  require(msg.sender == owner) */\n      tag_178\n      jumpi\n      0x00\n      dup1\n      revert\n    tag_178:\n        /* \"contracts/MyFirstDAO.sol\":1931:1936  false */\n      0x00\n        /* \"contracts/MyFirstDAO.sol\":1912:1936  isMember[_member]==false */\n      iszero\n      iszero\n        /* \"contracts/MyFirstDAO.sol\":1912:1920  isMember */\n      0x01\n        /* \"contracts/MyFirstDAO.sol\":1912:1929  isMember[_member] */\n      0x00\n        /* \"contracts/MyFirstDAO.sol\":1921:1928  _member */\n      dup4\n        /* \"contracts/MyFirstDAO.sol\":1912:1929  isMember[_member] */\n      0xffffffffffffffffffffffffffffffffffffffff\n      and\n      0xffffffffffffffffffffffffffffffffffffffff\n      and\n      dup2\n      mstore\n      0x20\n      add\n      swap1\n      dup2\n      mstore\n      0x20\n      add\n      0x00\n      keccak256\n      0x00\n      swap1\n      sload\n      swap1\n      0x0100\n      exp\n      swap1\n      div\n      0xff\n      and\n        /* \"contracts/MyFirstDAO.sol\":1912:1936  isMember[_member]==false */\n      iszero\n      iszero\n      eq\n        /* \"contracts/MyFirstDAO.sol\":1904:1961  require(isMember[_member]==false,\"Member already exists\") */\n      tag_179\n      jumpi\n      mload(0x40)\n      0x08c379a000000000000000000000000000000000000000000000000000000000\n      dup2\n      mstore\n      0x04\n      add\n      tag_180\n      swap1\n      tag_181\n      jump\t// in\n    tag_180:\n      mload(0x40)\n      dup1\n      swap2\n      sub\n      swap1\n      revert\n    tag_179:\n        /* \"contracts/MyFirstDAO.sol\":2030:2162  Members({... */\n      mload(0x40)\n      dup1\n      0x60\n      add\n      0x40\n      mstore\n      dup1\n        /* \"contracts/MyFirstDAO.sol\":2068:2075  _member */\n      dup3\n        /* \"contracts/MyFirstDAO.sol\":2030:2162  Members({... */\n      0xffffffffffffffffffffffffffffffffffffffff\n      and\n      dup2\n      mstore\n      0x20\n      add\n        /* \"contracts/MyFirstDAO.sol\":2103:2118  block.timestamp */\n      timestamp\n        /* \"contracts/MyFirstDAO.sol\":2030:2162  Members({... */\n      dup2\n      mstore\n      0x20\n      add\n        /* \"contracts/MyFirstDAO.sol\":2147:2150  100 */\n      0x64\n        /* \"contracts/MyFirstDAO.sol\":2030:2162  Members({... */\n      dup2\n      mstore\n      pop\n        /* \"contracts/MyFirstDAO.sol\":2008:2018  memberInfo */\n      0x02\n        /* \"contracts/MyFirstDAO.sol\":2008:2027  memberInfo[_member] */\n      0x00\n        /* \"contracts/MyFirstDAO.sol\":2019:2026  _member */\n      dup4\n        /* \"contracts/MyFirstDAO.sol\":2008:2027  memberInfo[_member] */\n      0xffffffffffffffffffffffffffffffffffffffff\n      and\n      0xffffffffffffffffffffffffffffffffffffffff\n      and\n      dup2\n      mstore\n      0x20\n      add\n      swap1\n      dup2\n      mstore\n      0x20\n      add\n      0x00\n      keccak256\n        /* \"contracts/MyFirstDAO.sol\":2008:2162  memberInfo[_member] = Members({... */\n      0x00\n      dup3\n      add\n      mload\n      dup2\n      0x00\n      add\n      exp(0x0100, 0x00)\n      dup2\n      sload\n      dup2\n      0xffffffffffffffffffffffffffffffffffffffff\n      mul\n      not\n      and\n      swap1\n      dup4\n      0xffffffffffffffffffffffffffffffffffffffff\n      and\n      mul\n      or\n      swap1\n      sstore\n      pop\n      0x20\n      dup3\n      add\n      mload\n      dup2\n      0x01\n      add\n      sstore\n      0x40\n      dup3\n      add\n      mload\n      dup2\n      0x02\n      add\n      sstore\n      swap1\n      pop\n      pop\n        /* \"contracts/MyFirstDAO.sol\":2216:2223  members */\n      0x00\n        /* \"contracts/MyFirstDAO.sol\":2229:2236  _member */\n      dup2\n        /* \"contracts/MyFirstDAO.sol\":2216:2237  members.push(_member) */\n      swap1\n      dup1\n      0x01\n      dup2\n      sload\n      add\n      dup1\n      dup3\n      sstore\n      dup1\n      swap2\n      pop\n      pop\n      0x01\n      swap1\n      sub\n      swap1\n      0x00\n      mstore\n      keccak256(0x00, 0x20)\n      add\n      0x00\n      swap1\n      swap2\n      swap1\n      swap2\n      swap1\n      swap2\n      0x0100\n      exp\n      dup2\n      sload\n      dup2\n      0xffffffffffffffffffffffffffffffffffffffff\n      mul\n      not\n      and\n      swap1\n      dup4\n      0xffffffffffffffffffffffffffffffffffffffff\n      and\n      mul\n      or\n      swap1\n      sstore\n      pop\n        /* \"contracts/MyFirstDAO.sol\":2287:2291  true */\n      0x01\n        /* \"contracts/MyFirstDAO.sol\":2267:2275  isMember */\n      dup1\n        /* \"contracts/MyFirstDAO.sol\":2267:2284  isMember[_member] */\n      0x00\n        /* \"contracts/MyFirstDAO.sol\":2276:2283  _member */\n      dup4\n        /* \"contracts/MyFirstDAO.sol\":2267:2284  isMember[_member] */\n      0xffffffffffffffffffffffffffffffffffffffff\n      and\n      0xffffffffffffffffffffffffffffffffffffffff\n      and\n      dup2\n      mstore\n      0x20\n      add\n      swap1\n      dup2\n      mstore\n      0x20\n      add\n      0x00\n      keccak256\n      0x00\n        /* \"contracts/MyFirstDAO.sol\":2267:2291  isMember[_member] = true */\n      0x0100\n      exp\n      dup2\n      sload\n      dup2\n      0xff\n      mul\n      not\n      and\n      swap1\n      dup4\n      iszero\n      iszero\n      mul\n      or\n      swap1\n      sstore\n      pop\n        /* \"contracts/MyFirstDAO.sol\":2322:2325  100 */\n      0x64\n        /* \"contracts/MyFirstDAO.sol\":2302:2310  balances */\n      0x06\n        /* \"contracts/MyFirstDAO.sol\":2302:2319  balances[_member] */\n      0x00\n        /* \"contracts/MyFirstDAO.sol\":2311:2318  _member */\n      dup4\n        /* \"contracts/MyFirstDAO.sol\":2302:2319  balances[_member] */\n      0xffffffffffffffffffffffffffffffffffffffff\n      and\n      0xffffffffffffffffffffffffffffffffffffffff\n      and\n      dup2\n      mstore\n      0x20\n      add\n      swap1\n      dup2\n      mstore\n      0x20\n      add\n      0x00\n      keccak256\n        /* \"contracts/MyFirstDAO.sol\":2302:2325  balances[_member] = 100 */\n      dup2\n      swap1\n      sstore\n      pop\n        /* \"contracts/MyFirstDAO.sol\":2351:2354  100 */\n      0x64\n        /* \"contracts/MyFirstDAO.sol\":2336:2347  totalSupply */\n      0x05\n      0x00\n        /* \"contracts/MyFirstDAO.sol\":2336:2354  totalSupply += 100 */\n      dup3\n      dup3\n      sload\n      tag_183\n      swap2\n      swap1\n      tag_145\n      jump\t// in\n    tag_183:\n      swap3\n      pop\n      pop\n      dup2\n      swap1\n      sstore\n      pop\n        /* \"contracts/MyFirstDAO.sol\":1771:2362  function addMember(address _member) public {... */\n      pop\n      jump\t// out\n        /* \"#utility.yul\":7:82   */\n    tag_184:\n        /* \"#utility.yul\":40:46   */\n      0x00\n        /* \"#utility.yul\":73:75   */\n      0x40\n        /* \"#utility.yul\":67:76   */\n      mload\n        /* \"#utility.yul\":57:76   */\n      swap1\n      pop\n        /* \"#utility.yul\":7:82   */\n      swap1\n      jump\t// out\n        /* \"#utility.yul\":88:205   */\n    tag_185:\n        /* \"#utility.yul\":197:198   */\n      0x00\n        /* \"#utility.yul\":194:195   */\n      dup1\n        /* \"#utility.yul\":187:199   */\n      revert\n        /* \"#utility.yul\":211:328   */\n    tag_186:\n        /* \"#utility.yul\":320:321   */\n      0x00\n        /* \"#utility.yul\":317:318   */\n      dup1\n        /* \"#utility.yul\":310:322   */\n      revert\n        /* \"#utility.yul\":334:411   */\n    tag_187:\n        /* \"#utility.yul\":371:378   */\n      0x00\n        /* \"#utility.yul\":400:405   */\n      dup2\n        /* \"#utility.yul\":389:405   */\n      swap1\n      pop\n        /* \"#utility.yul\":334:411   */\n      swap2\n      swap1\n      pop\n      jump\t// out\n        /* \"#utility.yul\":417:539   */\n    tag_188:\n        /* \"#utility.yul\":490:514   */\n      tag_249\n        /* \"#utility.yul\":508:513   */\n      dup2\n        /* \"#utility.yul\":490:514   */\n      tag_187\n      jump\t// in\n    tag_249:\n        /* \"#utility.yul\":483:488   */\n      dup2\n        /* \"#utility.yul\":480:515   */\n      eq\n        /* \"#utility.yul\":470:533   */\n      tag_250\n      jumpi\n        /* \"#utility.yul\":529:530   */\n      0x00\n        /* \"#utility.yul\":526:527   */\n      dup1\n        /* \"#utility.yul\":519:531   */\n      revert\n        /* \"#utility.yul\":470:533   */\n    tag_250:\n        /* \"#utility.yul\":417:539   */\n      pop\n      jump\t// out\n        /* \"#utility.yul\":545:684   */\n    tag_189:\n        /* \"#utility.yul\":591:596   */\n      0x00\n        /* \"#utility.yul\":629:635   */\n      dup2\n        /* \"#utility.yul\":616:636   */\n      calldataload\n        /* \"#utility.yul\":607:636   */\n      swap1\n      pop\n        /* \"#utility.yul\":645:678   */\n      tag_252\n        /* \"#utility.yul\":672:677   */\n      dup2\n        /* \"#utility.yul\":645:678   */\n      tag_188\n      jump\t// in\n    tag_252:\n        /* \"#utility.yul\":545:684   */\n      swap3\n      swap2\n      pop\n      pop\n      jump\t// out\n        /* \"#utility.yul\":690:1019   */\n    tag_22:\n        /* \"#utility.yul\":749:755   */\n      0x00\n        /* \"#utility.yul\":798:800   */\n      0x20\n        /* \"#utility.yul\":786:795   */\n      dup3\n        /* \"#utility.yul\":777:784   */\n      dup5\n        /* \"#utility.yul\":773:796   */\n      sub\n        /* \"#utility.yul\":769:801   */\n      slt\n        /* \"#utility.yul\":766:885   */\n      iszero\n      tag_254\n      jumpi\n        /* \"#utility.yul\":804:883   */\n      tag_255\n      tag_185\n      jump\t// in\n    tag_255:\n        /* \"#utility.yul\":766:885   */\n    tag_254:\n        /* \"#utility.yul\":924:925   */\n      0x00\n        /* \"#utility.yul\":949:1002   */\n      tag_256\n        /* \"#utility.yul\":994:1001   */\n      dup5\n        /* \"#utility.yul\":985:991   */\n      dup3\n        /* \"#utility.yul\":974:983   */\n      dup6\n        /* \"#utility.yul\":970:992   */\n      add\n        /* \"#utility.yul\":949:1002   */\n      tag_189\n      jump\t// in\n    tag_256:\n        /* \"#utility.yul\":939:1002   */\n      swap2\n      pop\n        /* \"#utility.yul\":895:1012   */\n      pop\n        /* \"#utility.yul\":690:1019   */\n      swap3\n      swap2\n      pop\n      pop\n      jump\t// out\n        /* \"#utility.yul\":1025:1124   */\n    tag_190:\n        /* \"#utility.yul\":1077:1083   */\n      0x00\n        /* \"#utility.yul\":1111:1116   */\n      dup2\n        /* \"#utility.yul\":1105:1117   */\n      mload\n        /* \"#utility.yul\":1095:1117   */\n      swap1\n      pop\n        /* \"#utility.yul\":1025:1124   */\n      swap2\n      swap1\n      pop\n      jump\t// out\n        /* \"#utility.yul\":1130:1299   */\n    tag_191:\n        /* \"#utility.yul\":1214:1225   */\n      0x00\n        /* \"#utility.yul\":1248:1254   */\n      dup3\n        /* \"#utility.yul\":1243:1246   */\n      dup3\n        /* \"#utility.yul\":1236:1255   */\n      mstore\n        /* \"#utility.yul\":1288:1292   */\n      0x20\n        /* \"#utility.yul\":1283:1286   */\n      dup3\n        /* \"#utility.yul\":1279:1293   */\n      add\n        /* \"#utility.yul\":1264:1293   */\n      swap1\n      pop\n        /* \"#utility.yul\":1130:1299   */\n      swap3\n      swap2\n      pop\n      pop\n      jump\t// out\n        /* \"#utility.yul\":1305:1551   */\n    tag_192:\n        /* \"#utility.yul\":1386:1387   */\n      0x00\n        /* \"#utility.yul\":1396:1509   */\n    tag_260:\n        /* \"#utility.yul\":1410:1416   */\n      dup4\n        /* \"#utility.yul\":1407:1408   */\n      dup2\n        /* \"#utility.yul\":1404:1417   */\n      lt\n        /* \"#utility.yul\":1396:1509   */\n      iszero\n      tag_262\n      jumpi\n        /* \"#utility.yul\":1495:1496   */\n      dup1\n        /* \"#utility.yul\":1490:1493   */\n      dup3\n        /* \"#utility.yul\":1486:1497   */\n      add\n        /* \"#utility.yul\":1480:1498   */\n      mload\n        /* \"#utility.yul\":1476:1477   */\n      dup2\n        /* \"#utility.yul\":1471:1474   */\n      dup5\n        /* \"#utility.yul\":1467:1478   */\n      add\n        /* \"#utility.yul\":1460:1499   */\n      mstore\n        /* \"#utility.yul\":1432:1434   */\n      0x20\n        /* \"#utility.yul\":1429:1430   */\n      dup2\n        /* \"#utility.yul\":1425:1435   */\n      add\n        /* \"#utility.yul\":1420:1435   */\n      swap1\n      pop\n        /* \"#utility.yul\":1396:1509   */\n      jump(tag_260)\n    tag_262:\n        /* \"#utility.yul\":1543:1544   */\n      0x00\n        /* \"#utility.yul\":1534:1540   */\n      dup5\n        /* \"#utility.yul\":1529:1532   */\n      dup5\n        /* \"#utility.yul\":1525:1541   */\n      add\n        /* \"#utility.yul\":1518:1545   */\n      mstore\n        /* \"#utility.yul\":1367:1551   */\n      pop\n        /* \"#utility.yul\":1305:1551   */\n      pop\n      pop\n      pop\n      jump\t// out\n        /* \"#utility.yul\":1557:1659   */\n    tag_193:\n        /* \"#utility.yul\":1598:1604   */\n      0x00\n        /* \"#utility.yul\":1649:1651   */\n      0x1f\n        /* \"#utility.yul\":1645:1652   */\n      not\n        /* \"#utility.yul\":1640:1642   */\n      0x1f\n        /* \"#utility.yul\":1633:1638   */\n      dup4\n        /* \"#utility.yul\":1629:1643   */\n      add\n        /* \"#utility.yul\":1625:1653   */\n      and\n        /* \"#utility.yul\":1615:1653   */\n      swap1\n      pop\n        /* \"#utility.yul\":1557:1659   */\n      swap2\n      swap1\n      pop\n      jump\t// out\n        /* \"#utility.yul\":1665:2042   */\n    tag_194:\n        /* \"#utility.yul\":1753:1756   */\n      0x00\n        /* \"#utility.yul\":1781:1820   */\n      tag_265\n        /* \"#utility.yul\":1814:1819   */\n      dup3\n        /* \"#utility.yul\":1781:1820   */\n      tag_190\n      jump\t// in\n    tag_265:\n        /* \"#utility.yul\":1836:1907   */\n      tag_266\n        /* \"#utility.yul\":1900:1906   */\n      dup2\n        /* \"#utility.yul\":1895:1898   */\n      dup6\n        /* \"#utility.yul\":1836:1907   */\n      tag_191\n      jump\t// in\n    tag_266:\n        /* \"#utility.yul\":1829:1907   */\n      swap4\n      pop\n        /* \"#utility.yul\":1916:1981   */\n      tag_267\n        /* \"#utility.yul\":1974:1980   */\n      dup2\n        /* \"#utility.yul\":1969:1972   */\n      dup6\n        /* \"#utility.yul\":1962:1966   */\n      0x20\n        /* \"#utility.yul\":1955:1960   */\n      dup7\n        /* \"#utility.yul\":1951:1967   */\n      add\n        /* \"#utility.yul\":1916:1981   */\n      tag_192\n      jump\t// in\n    tag_267:\n        /* \"#utility.yul\":2006:2035   */\n      tag_268\n        /* \"#utility.yul\":2028:2034   */\n      dup2\n        /* \"#utility.yul\":2006:2035   */\n      tag_193\n      jump\t// in\n    tag_268:\n        /* \"#utility.yul\":2001:2004   */\n      dup5\n        /* \"#utility.yul\":1997:2036   */\n      add\n        /* \"#utility.yul\":1990:2036   */\n      swap2\n      pop\n        /* \"#utility.yul\":1757:2042   */\n      pop\n        /* \"#utility.yul\":1665:2042   */\n      swap3\n      swap2\n      pop\n      pop\n      jump\t// out\n        /* \"#utility.yul\":2048:2166   */\n    tag_195:\n        /* \"#utility.yul\":2135:2159   */\n      tag_270\n        /* \"#utility.yul\":2153:2158   */\n      dup2\n        /* \"#utility.yul\":2135:2159   */\n      tag_187\n      jump\t// in\n    tag_270:\n        /* \"#utility.yul\":2130:2133   */\n      dup3\n        /* \"#utility.yul\":2123:2160   */\n      mstore\n        /* \"#utility.yul\":2048:2166   */\n      pop\n      pop\n      jump\t// out\n        /* \"#utility.yul\":2172:2262   */\n    tag_196:\n        /* \"#utility.yul\":2206:2213   */\n      0x00\n        /* \"#utility.yul\":2249:2254   */\n      dup2\n        /* \"#utility.yul\":2242:2255   */\n      iszero\n        /* \"#utility.yul\":2235:2256   */\n      iszero\n        /* \"#utility.yul\":2224:2256   */\n      swap1\n      pop\n        /* \"#utility.yul\":2172:2262   */\n      swap2\n      swap1\n      pop\n      jump\t// out\n        /* \"#utility.yul\":2268:2377   */\n    tag_197:\n        /* \"#utility.yul\":2349:2370   */\n      tag_273\n        /* \"#utility.yul\":2364:2369   */\n      dup2\n        /* \"#utility.yul\":2349:2370   */\n      tag_196\n      jump\t// in\n    tag_273:\n        /* \"#utility.yul\":2344:2347   */\n      dup3\n        /* \"#utility.yul\":2337:2371   */\n      mstore\n        /* \"#utility.yul\":2268:2377   */\n      pop\n      pop\n      jump\t// out\n        /* \"#utility.yul\":2383:3126   */\n    tag_25:\n        /* \"#utility.yul\":2602:2606   */\n      0x00\n        /* \"#utility.yul\":2640:2643   */\n      0xa0\n        /* \"#utility.yul\":2629:2638   */\n      dup3\n        /* \"#utility.yul\":2625:2644   */\n      add\n        /* \"#utility.yul\":2617:2644   */\n      swap1\n      pop\n        /* \"#utility.yul\":2690:2699   */\n      dup2\n        /* \"#utility.yul\":2684:2688   */\n      dup2\n        /* \"#utility.yul\":2680:2700   */\n      sub\n        /* \"#utility.yul\":2676:2677   */\n      0x00\n        /* \"#utility.yul\":2665:2674   */\n      dup4\n        /* \"#utility.yul\":2661:2678   */\n      add\n        /* \"#utility.yul\":2654:2701   */\n      mstore\n        /* \"#utility.yul\":2718:2796   */\n      tag_275\n        /* \"#utility.yul\":2791:2795   */\n      dup2\n        /* \"#utility.yul\":2782:2788   */\n      dup9\n        /* \"#utility.yul\":2718:2796   */\n      tag_194\n      jump\t// in\n    tag_275:\n        /* \"#utility.yul\":2710:2796   */\n      swap1\n      pop\n        /* \"#utility.yul\":2806:2878   */\n      tag_276\n        /* \"#utility.yul\":2874:2876   */\n      0x20\n        /* \"#utility.yul\":2863:2872   */\n      dup4\n        /* \"#utility.yul\":2859:2877   */\n      add\n        /* \"#utility.yul\":2850:2856   */\n      dup8\n        /* \"#utility.yul\":2806:2878   */\n      tag_195\n      jump\t// in\n    tag_276:\n        /* \"#utility.yul\":2888:2960   */\n      tag_277\n        /* \"#utility.yul\":2956:2958   */\n      0x40\n        /* \"#utility.yul\":2945:2954   */\n      dup4\n        /* \"#utility.yul\":2941:2959   */\n      add\n        /* \"#utility.yul\":2932:2938   */\n      dup7\n        /* \"#utility.yul\":2888:2960   */\n      tag_195\n      jump\t// in\n    tag_277:\n        /* \"#utility.yul\":2970:3042   */\n      tag_278\n        /* \"#utility.yul\":3038:3040   */\n      0x60\n        /* \"#utility.yul\":3027:3036   */\n      dup4\n        /* \"#utility.yul\":3023:3041   */\n      add\n        /* \"#utility.yul\":3014:3020   */\n      dup6\n        /* \"#utility.yul\":2970:3042   */\n      tag_195\n      jump\t// in\n    tag_278:\n        /* \"#utility.yul\":3052:3119   */\n      tag_279\n        /* \"#utility.yul\":3114:3117   */\n      0x80\n        /* \"#utility.yul\":3103:3112   */\n      dup4\n        /* \"#utility.yul\":3099:3118   */\n      add\n        /* \"#utility.yul\":3090:3096   */\n      dup5\n        /* \"#utility.yul\":3052:3119   */\n      tag_197\n      jump\t// in\n    tag_279:\n        /* \"#utility.yul\":2383:3126   */\n      swap7\n      swap6\n      pop\n      pop\n      pop\n      pop\n      pop\n      pop\n      jump\t// out\n        /* \"#utility.yul\":3132:3258   */\n    tag_198:\n        /* \"#utility.yul\":3169:3176   */\n      0x00\n        /* \"#utility.yul\":3209:3251   */\n      0xffffffffffffffffffffffffffffffffffffffff\n        /* \"#utility.yul\":3202:3207   */\n      dup3\n        /* \"#utility.yul\":3198:3252   */\n      and\n        /* \"#utility.yul\":3187:3252   */\n      swap1\n      pop\n        /* \"#utility.yul\":3132:3258   */\n      swap2\n      swap1\n      pop\n      jump\t// out\n        /* \"#utility.yul\":3264:3360   */\n    tag_199:\n        /* \"#utility.yul\":3301:3308   */\n      0x00\n        /* \"#utility.yul\":3330:3354   */\n      tag_282\n        /* \"#utility.yul\":3348:3353   */\n      dup3\n        /* \"#utility.yul\":3330:3354   */\n      tag_198\n      jump\t// in\n    tag_282:\n        /* \"#utility.yul\":3319:3354   */\n      swap1\n      pop\n        /* \"#utility.yul\":3264:3360   */\n      swap2\n      swap1\n      pop\n      jump\t// out\n        /* \"#utility.yul\":3366:3488   */\n    tag_200:\n        /* \"#utility.yul\":3439:3463   */\n      tag_284\n        /* \"#utility.yul\":3457:3462   */\n      dup2\n        /* \"#utility.yul\":3439:3463   */\n      tag_199\n      jump\t// in\n    tag_284:\n        /* \"#utility.yul\":3432:3437   */\n      dup2\n        /* \"#utility.yul\":3429:3464   */\n      eq\n        /* \"#utility.yul\":3419:3482   */\n      tag_285\n      jumpi\n        /* \"#utility.yul\":3478:3479   */\n      0x00\n        /* \"#utility.yul\":3475:3476   */\n      dup1\n        /* \"#utility.yul\":3468:3480   */\n      revert\n        /* \"#utility.yul\":3419:3482   */\n    tag_285:\n        /* \"#utility.yul\":3366:3488   */\n      pop\n      jump\t// out\n        /* \"#utility.yul\":3494:3633   */\n    tag_201:\n        /* \"#utility.yul\":3540:3545   */\n      0x00\n        /* \"#utility.yul\":3578:3584   */\n      dup2\n        /* \"#utility.yul\":3565:3585   */\n      calldataload\n        /* \"#utility.yul\":3556:3585   */\n      swap1\n      pop\n        /* \"#utility.yul\":3594:3627   */\n      tag_287\n        /* \"#utility.yul\":3621:3626   */\n      dup2\n        /* \"#utility.yul\":3594:3627   */\n      tag_200\n      jump\t// in\n    tag_287:\n        /* \"#utility.yul\":3494:3633   */\n      swap3\n      swap2\n      pop\n      pop\n      jump\t// out\n        /* \"#utility.yul\":3639:3968   */\n    tag_28:\n        /* \"#utility.yul\":3698:3704   */\n      0x00\n        /* \"#utility.yul\":3747:3749   */\n      0x20\n        /* \"#utility.yul\":3735:3744   */\n      dup3\n        /* \"#utility.yul\":3726:3733   */\n      dup5\n        /* \"#utility.yul\":3722:3745   */\n      sub\n        /* \"#utility.yul\":3718:3750   */\n      slt\n        /* \"#utility.yul\":3715:3834   */\n      iszero\n      tag_289\n      jumpi\n        /* \"#utility.yul\":3753:3832   */\n      tag_290\n      tag_185\n      jump\t// in\n    tag_290:\n        /* \"#utility.yul\":3715:3834   */\n    tag_289:\n        /* \"#utility.yul\":3873:3874   */\n      0x00\n        /* \"#utility.yul\":3898:3951   */\n      tag_291\n        /* \"#utility.yul\":3943:3950   */\n      dup5\n        /* \"#utility.yul\":3934:3940   */\n      dup3\n        /* \"#utility.yul\":3923:3932   */\n      dup6\n        /* \"#utility.yul\":3919:3941   */\n      add\n        /* \"#utility.yul\":3898:3951   */\n      tag_201\n      jump\t// in\n    tag_291:\n        /* \"#utility.yul\":3888:3951   */\n      swap2\n      pop\n        /* \"#utility.yul\":3844:3961   */\n      pop\n        /* \"#utility.yul\":3639:3968   */\n      swap3\n      swap2\n      pop\n      pop\n      jump\t// out\n        /* \"#utility.yul\":3974:4196   */\n    tag_36:\n        /* \"#utility.yul\":4067:4071   */\n      0x00\n        /* \"#utility.yul\":4105:4107   */\n      0x20\n        /* \"#utility.yul\":4094:4103   */\n      dup3\n        /* \"#utility.yul\":4090:4108   */\n      add\n        /* \"#utility.yul\":4082:4108   */\n      swap1\n      pop\n        /* \"#utility.yul\":4118:4189   */\n      tag_293\n        /* \"#utility.yul\":4186:4187   */\n      0x00\n        /* \"#utility.yul\":4175:4184   */\n      dup4\n        /* \"#utility.yul\":4171:4188   */\n      add\n        /* \"#utility.yul\":4162:4168   */\n      dup5\n        /* \"#utility.yul\":4118:4189   */\n      tag_195\n      jump\t// in\n    tag_293:\n        /* \"#utility.yul\":3974:4196   */\n      swap3\n      swap2\n      pop\n      pop\n      jump\t// out\n        /* \"#utility.yul\":4202:4676   */\n    tag_43:\n        /* \"#utility.yul\":4270:4276   */\n      0x00\n        /* \"#utility.yul\":4278:4284   */\n      dup1\n        /* \"#utility.yul\":4327:4329   */\n      0x40\n        /* \"#utility.yul\":4315:4324   */\n      dup4\n        /* \"#utility.yul\":4306:4313   */\n      dup6\n        /* \"#utility.yul\":4302:4325   */\n      sub\n        /* \"#utility.yul\":4298:4330   */\n      slt\n        /* \"#utility.yul\":4295:4414   */\n      iszero\n      tag_295\n      jumpi\n        /* \"#utility.yul\":4333:4412   */\n      tag_296\n      tag_185\n      jump\t// in\n    tag_296:\n        /* \"#utility.yul\":4295:4414   */\n    tag_295:\n        /* \"#utility.yul\":4453:4454   */\n      0x00\n        /* \"#utility.yul\":4478:4531   */\n      tag_297\n        /* \"#utility.yul\":4523:4530   */\n      dup6\n        /* \"#utility.yul\":4514:4520   */\n      dup3\n        /* \"#utility.yul\":4503:4512   */\n      dup7\n        /* \"#utility.yul\":4499:4521   */\n      add\n        /* \"#utility.yul\":4478:4531   */\n      tag_189\n      jump\t// in\n    tag_297:\n        /* \"#utility.yul\":4468:4531   */\n      swap3\n      pop\n        /* \"#utility.yul\":4424:4541   */\n      pop\n        /* \"#utility.yul\":4580:4582   */\n      0x20\n        /* \"#utility.yul\":4606:4659   */\n      tag_298\n        /* \"#utility.yul\":4651:4658   */\n      dup6\n        /* \"#utility.yul\":4642:4648   */\n      dup3\n        /* \"#utility.yul\":4631:4640   */\n      dup7\n        /* \"#utility.yul\":4627:4649   */\n      add\n        /* \"#utility.yul\":4606:4659   */\n      tag_189\n      jump\t// in\n    tag_298:\n        /* \"#utility.yul\":4596:4659   */\n      swap2\n      pop\n        /* \"#utility.yul\":4551:4669   */\n      pop\n        /* \"#utility.yul\":4202:4676   */\n      swap3\n      pop\n      swap3\n      swap1\n      pop\n      jump\t// out\n        /* \"#utility.yul\":4682:4799   */\n    tag_202:\n        /* \"#utility.yul\":4791:4792   */\n      0x00\n        /* \"#utility.yul\":4788:4789   */\n      dup1\n        /* \"#utility.yul\":4781:4793   */\n      revert\n        /* \"#utility.yul\":4805:4922   */\n    tag_203:\n        /* \"#utility.yul\":4914:4915   */\n      0x00\n        /* \"#utility.yul\":4911:4912   */\n      dup1\n        /* \"#utility.yul\":4904:4916   */\n      revert\n        /* \"#utility.yul\":4928:5108   */\n    tag_204:\n        /* \"#utility.yul\":4976:5053   */\n      0x4e487b7100000000000000000000000000000000000000000000000000000000\n        /* \"#utility.yul\":4973:4974   */\n      0x00\n        /* \"#utility.yul\":4966:5054   */\n      mstore\n        /* \"#utility.yul\":5073:5077   */\n      0x41\n        /* \"#utility.yul\":5070:5071   */\n      0x04\n        /* \"#utility.yul\":5063:5078   */\n      mstore\n        /* \"#utility.yul\":5097:5101   */\n      0x24\n        /* \"#utility.yul\":5094:5095   */\n      0x00\n        /* \"#utility.yul\":5087:5102   */\n      revert\n        /* \"#utility.yul\":5114:5395   */\n    tag_205:\n        /* \"#utility.yul\":5197:5224   */\n      tag_303\n        /* \"#utility.yul\":5219:5223   */\n      dup3\n        /* \"#utility.yul\":5197:5224   */\n      tag_193\n      jump\t// in\n    tag_303:\n        /* \"#utility.yul\":5189:5195   */\n      dup2\n        /* \"#utility.yul\":5185:5225   */\n      add\n        /* \"#utility.yul\":5327:5333   */\n      dup2\n        /* \"#utility.yul\":5315:5325   */\n      dup2\n        /* \"#utility.yul\":5312:5334   */\n      lt\n        /* \"#utility.yul\":5291:5309   */\n      0xffffffffffffffff\n        /* \"#utility.yul\":5279:5289   */\n      dup3\n        /* \"#utility.yul\":5276:5310   */\n      gt\n        /* \"#utility.yul\":5273:5335   */\n      or\n        /* \"#utility.yul\":5270:5358   */\n      iszero\n      tag_304\n      jumpi\n        /* \"#utility.yul\":5338:5356   */\n      tag_305\n      tag_204\n      jump\t// in\n    tag_305:\n        /* \"#utility.yul\":5270:5358   */\n    tag_304:\n        /* \"#utility.yul\":5378:5388   */\n      dup1\n        /* \"#utility.yul\":5374:5376   */\n      0x40\n        /* \"#utility.yul\":5367:5389   */\n      mstore\n        /* \"#utility.yul\":5157:5395   */\n      pop\n        /* \"#utility.yul\":5114:5395   */\n      pop\n      pop\n      jump\t// out\n        /* \"#utility.yul\":5401:5530   */\n    tag_206:\n        /* \"#utility.yul\":5435:5441   */\n      0x00\n        /* \"#utility.yul\":5462:5482   */\n      tag_307\n      tag_184\n      jump\t// in\n    tag_307:\n        /* \"#utility.yul\":5452:5482   */\n      swap1\n      pop\n        /* \"#utility.yul\":5491:5524   */\n      tag_308\n        /* \"#utility.yul\":5519:5523   */\n      dup3\n        /* \"#utility.yul\":5511:5517   */\n      dup3\n        /* \"#utility.yul\":5491:5524   */\n      tag_205\n      jump\t// in\n    tag_308:\n        /* \"#utility.yul\":5401:5530   */\n      swap2\n      swap1\n      pop\n      jump\t// out\n        /* \"#utility.yul\":5536:5844   */\n    tag_207:\n        /* \"#utility.yul\":5598:5602   */\n      0x00\n        /* \"#utility.yul\":5688:5706   */\n      0xffffffffffffffff\n        /* \"#utility.yul\":5680:5686   */\n      dup3\n        /* \"#utility.yul\":5677:5707   */\n      gt\n        /* \"#utility.yul\":5674:5730   */\n      iszero\n      tag_310\n      jumpi\n        /* \"#utility.yul\":5710:5728   */\n      tag_311\n      tag_204\n      jump\t// in\n    tag_311:\n        /* \"#utility.yul\":5674:5730   */\n    tag_310:\n        /* \"#utility.yul\":5748:5777   */\n      tag_312\n        /* \"#utility.yul\":5770:5776   */\n      dup3\n        /* \"#utility.yul\":5748:5777   */\n      tag_193\n      jump\t// in\n    tag_312:\n        /* \"#utility.yul\":5740:5777   */\n      swap1\n      pop\n        /* \"#utility.yul\":5832:5836   */\n      0x20\n        /* \"#utility.yul\":5826:5830   */\n      dup2\n        /* \"#utility.yul\":5822:5837   */\n      add\n        /* \"#utility.yul\":5814:5837   */\n      swap1\n      pop\n        /* \"#utility.yul\":5536:5844   */\n      swap2\n      swap1\n      pop\n      jump\t// out\n        /* \"#utility.yul\":5850:5996   */\n    tag_208:\n        /* \"#utility.yul\":5947:5953   */\n      dup3\n        /* \"#utility.yul\":5942:5945   */\n      dup2\n        /* \"#utility.yul\":5937:5940   */\n      dup4\n        /* \"#utility.yul\":5924:5954   */\n      calldatacopy\n        /* \"#utility.yul\":5988:5989   */\n      0x00\n        /* \"#utility.yul\":5979:5985   */\n      dup4\n        /* \"#utility.yul\":5974:5977   */\n      dup4\n        /* \"#utility.yul\":5970:5986   */\n      add\n        /* \"#utility.yul\":5963:5990   */\n      mstore\n        /* \"#utility.yul\":5850:5996   */\n      pop\n      pop\n      pop\n      jump\t// out\n        /* \"#utility.yul\":6002:6427   */\n    tag_209:\n        /* \"#utility.yul\":6080:6085   */\n      0x00\n        /* \"#utility.yul\":6105:6171   */\n      tag_315\n        /* \"#utility.yul\":6121:6170   */\n      tag_316\n        /* \"#utility.yul\":6163:6169   */\n      dup5\n        /* \"#utility.yul\":6121:6170   */\n      tag_207\n      jump\t// in\n    tag_316:\n        /* \"#utility.yul\":6105:6171   */\n      tag_206\n      jump\t// in\n    tag_315:\n        /* \"#utility.yul\":6096:6171   */\n      swap1\n      pop\n        /* \"#utility.yul\":6194:6200   */\n      dup3\n        /* \"#utility.yul\":6187:6192   */\n      dup2\n        /* \"#utility.yul\":6180:6201   */\n      mstore\n        /* \"#utility.yul\":6232:6236   */\n      0x20\n        /* \"#utility.yul\":6225:6230   */\n      dup2\n        /* \"#utility.yul\":6221:6237   */\n      add\n        /* \"#utility.yul\":6270:6273   */\n      dup5\n        /* \"#utility.yul\":6261:6267   */\n      dup5\n        /* \"#utility.yul\":6256:6259   */\n      dup5\n        /* \"#utility.yul\":6252:6268   */\n      add\n        /* \"#utility.yul\":6249:6274   */\n      gt\n        /* \"#utility.yul\":6246:6358   */\n      iszero\n      tag_317\n      jumpi\n        /* \"#utility.yul\":6277:6356   */\n      tag_318\n      tag_203\n      jump\t// in\n    tag_318:\n        /* \"#utility.yul\":6246:6358   */\n    tag_317:\n        /* \"#utility.yul\":6367:6421   */\n      tag_319\n        /* \"#utility.yul\":6414:6420   */\n      dup5\n        /* \"#utility.yul\":6409:6412   */\n      dup3\n        /* \"#utility.yul\":6404:6407   */\n      dup6\n        /* \"#utility.yul\":6367:6421   */\n      tag_208\n      jump\t// in\n    tag_319:\n        /* \"#utility.yul\":6086:6427   */\n      pop\n        /* \"#utility.yul\":6002:6427   */\n      swap4\n      swap3\n      pop\n      pop\n      pop\n      jump\t// out\n        /* \"#utility.yul\":6447:6787   */\n    tag_210:\n        /* \"#utility.yul\":6503:6508   */\n      0x00\n        /* \"#utility.yul\":6552:6555   */\n      dup3\n        /* \"#utility.yul\":6545:6549   */\n      0x1f\n        /* \"#utility.yul\":6537:6543   */\n      dup4\n        /* \"#utility.yul\":6533:6550   */\n      add\n        /* \"#utility.yul\":6529:6556   */\n      slt\n        /* \"#utility.yul\":6519:6641   */\n      tag_321\n      jumpi\n        /* \"#utility.yul\":6560:6639   */\n      tag_322\n      tag_202\n      jump\t// in\n    tag_322:\n        /* \"#utility.yul\":6519:6641   */\n    tag_321:\n        /* \"#utility.yul\":6677:6683   */\n      dup2\n        /* \"#utility.yul\":6664:6684   */\n      calldataload\n        /* \"#utility.yul\":6702:6781   */\n      tag_323\n        /* \"#utility.yul\":6777:6780   */\n      dup5\n        /* \"#utility.yul\":6769:6775   */\n      dup3\n        /* \"#utility.yul\":6762:6766   */\n      0x20\n        /* \"#utility.yul\":6754:6760   */\n      dup7\n        /* \"#utility.yul\":6750:6767   */\n      add\n        /* \"#utility.yul\":6702:6781   */\n      tag_209\n      jump\t// in\n    tag_323:\n        /* \"#utility.yul\":6693:6781   */\n      swap2\n      pop\n        /* \"#utility.yul\":6509:6787   */\n      pop\n        /* \"#utility.yul\":6447:6787   */\n      swap3\n      swap2\n      pop\n      pop\n      jump\t// out\n        /* \"#utility.yul\":6793:7302   */\n    tag_47:\n        /* \"#utility.yul\":6862:6868   */\n      0x00\n        /* \"#utility.yul\":6911:6913   */\n      0x20\n        /* \"#utility.yul\":6899:6908   */\n      dup3\n        /* \"#utility.yul\":6890:6897   */\n      dup5\n        /* \"#utility.yul\":6886:6909   */\n      sub\n        /* \"#utility.yul\":6882:6914   */\n      slt\n        /* \"#utility.yul\":6879:6998   */\n      iszero\n      tag_325\n      jumpi\n        /* \"#utility.yul\":6917:6996   */\n      tag_326\n      tag_185\n      jump\t// in\n    tag_326:\n        /* \"#utility.yul\":6879:6998   */\n    tag_325:\n        /* \"#utility.yul\":7065:7066   */\n      0x00\n        /* \"#utility.yul\":7054:7063   */\n      dup3\n        /* \"#utility.yul\":7050:7067   */\n      add\n        /* \"#utility.yul\":7037:7068   */\n      calldataload\n        /* \"#utility.yul\":7095:7113   */\n      0xffffffffffffffff\n        /* \"#utility.yul\":7087:7093   */\n      dup2\n        /* \"#utility.yul\":7084:7114   */\n      gt\n        /* \"#utility.yul\":7081:7198   */\n      iszero\n      tag_327\n      jumpi\n        /* \"#utility.yul\":7117:7196   */\n      tag_328\n      tag_186\n      jump\t// in\n    tag_328:\n        /* \"#utility.yul\":7081:7198   */\n    tag_327:\n        /* \"#utility.yul\":7222:7285   */\n      tag_329\n        /* \"#utility.yul\":7277:7284   */\n      dup5\n        /* \"#utility.yul\":7268:7274   */\n      dup3\n        /* \"#utility.yul\":7257:7266   */\n      dup6\n        /* \"#utility.yul\":7253:7275   */\n      add\n        /* \"#utility.yul\":7222:7285   */\n      tag_210\n      jump\t// in\n    tag_329:\n        /* \"#utility.yul\":7212:7285   */\n      swap2\n      pop\n        /* \"#utility.yul\":7008:7295   */\n      pop\n        /* \"#utility.yul\":6793:7302   */\n      swap3\n      swap2\n      pop\n      pop\n      jump\t// out\n        /* \"#utility.yul\":7308:7426   */\n    tag_211:\n        /* \"#utility.yul\":7395:7419   */\n      tag_331\n        /* \"#utility.yul\":7413:7418   */\n      dup2\n        /* \"#utility.yul\":7395:7419   */\n      tag_199\n      jump\t// in\n    tag_331:\n        /* \"#utility.yul\":7390:7393   */\n      dup3\n        /* \"#utility.yul\":7383:7420   */\n      mstore\n        /* \"#utility.yul\":7308:7426   */\n      pop\n      pop\n      jump\t// out\n        /* \"#utility.yul\":7432:7654   */\n    tag_53:\n        /* \"#utility.yul\":7525:7529   */\n      0x00\n        /* \"#utility.yul\":7563:7565   */\n      0x20\n        /* \"#utility.yul\":7552:7561   */\n      dup3\n        /* \"#utility.yul\":7548:7566   */\n      add\n        /* \"#utility.yul\":7540:7566   */\n      swap1\n      pop\n        /* \"#utility.yul\":7576:7647   */\n      tag_333\n        /* \"#utility.yul\":7644:7645   */\n      0x00\n        /* \"#utility.yul\":7633:7642   */\n      dup4\n        /* \"#utility.yul\":7629:7646   */\n      add\n        /* \"#utility.yul\":7620:7626   */\n      dup5\n        /* \"#utility.yul\":7576:7647   */\n      tag_211\n      jump\t// in\n    tag_333:\n        /* \"#utility.yul\":7432:7654   */\n      swap3\n      swap2\n      pop\n      pop\n      jump\t// out\n        /* \"#utility.yul\":7660:8134   */\n    tag_62:\n        /* \"#utility.yul\":7728:7734   */\n      0x00\n        /* \"#utility.yul\":7736:7742   */\n      dup1\n        /* \"#utility.yul\":7785:7787   */\n      0x40\n        /* \"#utility.yul\":7773:7782   */\n      dup4\n        /* \"#utility.yul\":7764:7771   */\n      dup6\n        /* \"#utility.yul\":7760:7783   */\n      sub\n        /* \"#utility.yul\":7756:7788   */\n      slt\n        /* \"#utility.yul\":7753:7872   */\n      iszero\n      tag_335\n      jumpi\n        /* \"#utility.yul\":7791:7870   */\n      tag_336\n      tag_185\n      jump\t// in\n    tag_336:\n        /* \"#utility.yul\":7753:7872   */\n    tag_335:\n        /* \"#utility.yul\":7911:7912   */\n      0x00\n        /* \"#utility.yul\":7936:7989   */\n      tag_337\n        /* \"#utility.yul\":7981:7988   */\n      dup6\n        /* \"#utility.yul\":7972:7978   */\n      dup3\n        /* \"#utility.yul\":7961:7970   */\n      dup7\n        /* \"#utility.yul\":7957:7979   */\n      add\n        /* \"#utility.yul\":7936:7989   */\n      tag_201\n      jump\t// in\n    tag_337:\n        /* \"#utility.yul\":7926:7989   */\n      swap3\n      pop\n        /* \"#utility.yul\":7882:7999   */\n      pop\n        /* \"#utility.yul\":8038:8040   */\n      0x20\n        /* \"#utility.yul\":8064:8117   */\n      tag_338\n        /* \"#utility.yul\":8109:8116   */\n      dup6\n        /* \"#utility.yul\":8100:8106   */\n      dup3\n        /* \"#utility.yul\":8089:8098   */\n      dup7\n        /* \"#utility.yul\":8085:8107   */\n      add\n        /* \"#utility.yul\":8064:8117   */\n      tag_189\n      jump\t// in\n    tag_338:\n        /* \"#utility.yul\":8054:8117   */\n      swap2\n      pop\n        /* \"#utility.yul\":8009:8127   */\n      pop\n        /* \"#utility.yul\":7660:8134   */\n      swap3\n      pop\n      swap3\n      swap1\n      pop\n      jump\t// out\n        /* \"#utility.yul\":8140:8350   */\n    tag_65:\n        /* \"#utility.yul\":8227:8231   */\n      0x00\n        /* \"#utility.yul\":8265:8267   */\n      0x20\n        /* \"#utility.yul\":8254:8263   */\n      dup3\n        /* \"#utility.yul\":8250:8268   */\n      add\n        /* \"#utility.yul\":8242:8268   */\n      swap1\n      pop\n        /* \"#utility.yul\":8278:8343   */\n      tag_340\n        /* \"#utility.yul\":8340:8341   */\n      0x00\n        /* \"#utility.yul\":8329:8338   */\n      dup4\n        /* \"#utility.yul\":8325:8342   */\n      add\n        /* \"#utility.yul\":8316:8322   */\n      dup5\n        /* \"#utility.yul\":8278:8343   */\n      tag_197\n      jump\t// in\n    tag_340:\n        /* \"#utility.yul\":8140:8350   */\n      swap3\n      swap2\n      pop\n      pop\n      jump\t// out\n        /* \"#utility.yul\":8356:8798   */\n    tag_74:\n        /* \"#utility.yul\":8505:8509   */\n      0x00\n        /* \"#utility.yul\":8543:8545   */\n      0x60\n        /* \"#utility.yul\":8532:8541   */\n      dup3\n        /* \"#utility.yul\":8528:8546   */\n      add\n        /* \"#utility.yul\":8520:8546   */\n      swap1\n      pop\n        /* \"#utility.yul\":8556:8627   */\n      tag_342\n        /* \"#utility.yul\":8624:8625   */\n      0x00\n        /* \"#utility.yul\":8613:8622   */\n      dup4\n        /* \"#utility.yul\":8609:8626   */\n      add\n        /* \"#utility.yul\":8600:8606   */\n      dup7\n        /* \"#utility.yul\":8556:8627   */\n      tag_211\n      jump\t// in\n    tag_342:\n        /* \"#utility.yul\":8637:8709   */\n      tag_343\n        /* \"#utility.yul\":8705:8707   */\n      0x20\n        /* \"#utility.yul\":8694:8703   */\n      dup4\n        /* \"#utility.yul\":8690:8708   */\n      add\n        /* \"#utility.yul\":8681:8687   */\n      dup6\n        /* \"#utility.yul\":8637:8709   */\n      tag_195\n      jump\t// in\n    tag_343:\n        /* \"#utility.yul\":8719:8791   */\n      tag_344\n        /* \"#utility.yul\":8787:8789   */\n      0x40\n        /* \"#utility.yul\":8776:8785   */\n      dup4\n        /* \"#utility.yul\":8772:8790   */\n      add\n        /* \"#utility.yul\":8763:8769   */\n      dup5\n        /* \"#utility.yul\":8719:8791   */\n      tag_195\n      jump\t// in\n    tag_344:\n        /* \"#utility.yul\":8356:8798   */\n      swap5\n      swap4\n      pop\n      pop\n      pop\n      pop\n      jump\t// out\n        /* \"#utility.yul\":8804:8984   */\n    tag_212:\n        /* \"#utility.yul\":8852:8929   */\n      0x4e487b7100000000000000000000000000000000000000000000000000000000\n        /* \"#utility.yul\":8849:8850   */\n      0x00\n        /* \"#utility.yul\":8842:8930   */\n      mstore\n        /* \"#utility.yul\":8949:8953   */\n      0x22\n        /* \"#utility.yul\":8946:8947   */\n      0x04\n        /* \"#utility.yul\":8939:8954   */\n      mstore\n        /* \"#utility.yul\":8973:8977   */\n      0x24\n        /* \"#utility.yul\":8970:8971   */\n      0x00\n        /* \"#utility.yul\":8963:8978   */\n      revert\n        /* \"#utility.yul\":8990:9310   */\n    tag_81:\n        /* \"#utility.yul\":9034:9040   */\n      0x00\n        /* \"#utility.yul\":9071:9072   */\n      0x02\n        /* \"#utility.yul\":9065:9069   */\n      dup3\n        /* \"#utility.yul\":9061:9073   */\n      div\n        /* \"#utility.yul\":9051:9073   */\n      swap1\n      pop\n        /* \"#utility.yul\":9118:9119   */\n      0x01\n        /* \"#utility.yul\":9112:9116   */\n      dup3\n        /* \"#utility.yul\":9108:9120   */\n      and\n        /* \"#utility.yul\":9139:9157   */\n      dup1\n        /* \"#utility.yul\":9129:9210   */\n      tag_347\n      jumpi\n        /* \"#utility.yul\":9195:9199   */\n      0x7f\n        /* \"#utility.yul\":9187:9193   */\n      dup3\n        /* \"#utility.yul\":9183:9200   */\n      and\n        /* \"#utility.yul\":9173:9200   */\n      swap2\n      pop\n        /* \"#utility.yul\":9129:9210   */\n    tag_347:\n        /* \"#utility.yul\":9257:9259   */\n      0x20\n        /* \"#utility.yul\":9249:9255   */\n      dup3\n        /* \"#utility.yul\":9246:9260   */\n      lt\n        /* \"#utility.yul\":9226:9244   */\n      dup2\n        /* \"#utility.yul\":9223:9261   */\n      sub\n        /* \"#utility.yul\":9220:9304   */\n      tag_348\n      jumpi\n        /* \"#utility.yul\":9276:9294   */\n      tag_349\n      tag_212\n      jump\t// in\n    tag_349:\n        /* \"#utility.yul\":9220:9304   */\n    tag_348:\n        /* \"#utility.yul\":9041:9310   */\n      pop\n        /* \"#utility.yul\":8990:9310   */\n      swap2\n      swap1\n      pop\n      jump\t// out\n        /* \"#utility.yul\":9316:9487   */\n    tag_213:\n        /* \"#utility.yul\":9456:9479   */\n      0x4d656d62657220646f6573206e6f742065786973740000000000000000000000\n        /* \"#utility.yul\":9452:9453   */\n      0x00\n        /* \"#utility.yul\":9444:9450   */\n      dup3\n        /* \"#utility.yul\":9440:9454   */\n      add\n        /* \"#utility.yul\":9433:9480   */\n      mstore\n        /* \"#utility.yul\":9316:9487   */\n      pop\n      jump\t// out\n        /* \"#utility.yul\":9493:9859   */\n    tag_214:\n        /* \"#utility.yul\":9635:9638   */\n      0x00\n        /* \"#utility.yul\":9656:9723   */\n      tag_352\n        /* \"#utility.yul\":9720:9722   */\n      0x15\n        /* \"#utility.yul\":9715:9718   */\n      dup4\n        /* \"#utility.yul\":9656:9723   */\n      tag_191\n      jump\t// in\n    tag_352:\n        /* \"#utility.yul\":9649:9723   */\n      swap2\n      pop\n        /* \"#utility.yul\":9732:9825   */\n      tag_353\n        /* \"#utility.yul\":9821:9824   */\n      dup3\n        /* \"#utility.yul\":9732:9825   */\n      tag_213\n      jump\t// in\n    tag_353:\n        /* \"#utility.yul\":9850:9852   */\n      0x20\n        /* \"#utility.yul\":9845:9848   */\n      dup3\n        /* \"#utility.yul\":9841:9853   */\n      add\n        /* \"#utility.yul\":9834:9853   */\n      swap1\n      pop\n        /* \"#utility.yul\":9493:9859   */\n      swap2\n      swap1\n      pop\n      jump\t// out\n        /* \"#utility.yul\":9865:10284   */\n    tag_89:\n        /* \"#utility.yul\":10031:10035   */\n      0x00\n        /* \"#utility.yul\":10069:10071   */\n      0x20\n        /* \"#utility.yul\":10058:10067   */\n      dup3\n        /* \"#utility.yul\":10054:10072   */\n      add\n        /* \"#utility.yul\":10046:10072   */\n      swap1\n      pop\n        /* \"#utility.yul\":10118:10127   */\n      dup2\n        /* \"#utility.yul\":10112:10116   */\n      dup2\n        /* \"#utility.yul\":10108:10128   */\n      sub\n        /* \"#utility.yul\":10104:10105   */\n      0x00\n        /* \"#utility.yul\":10093:10102   */\n      dup4\n        /* \"#utility.yul\":10089:10106   */\n      add\n        /* \"#utility.yul\":10082:10129   */\n      mstore\n        /* \"#utility.yul\":10146:10277   */\n      tag_355\n        /* \"#utility.yul\":10272:10276   */\n      dup2\n        /* \"#utility.yul\":10146:10277   */\n      tag_214\n      jump\t// in\n    tag_355:\n        /* \"#utility.yul\":10138:10277   */\n      swap1\n      pop\n        /* \"#utility.yul\":9865:10284   */\n      swap2\n      swap1\n      pop\n      jump\t// out\n        /* \"#utility.yul\":10290:10470   */\n    tag_95:\n        /* \"#utility.yul\":10338:10415   */\n      0x4e487b7100000000000000000000000000000000000000000000000000000000\n        /* \"#utility.yul\":10335:10336   */\n      0x00\n        /* \"#utility.yul\":10328:10416   */\n      mstore\n        /* \"#utility.yul\":10435:10439   */\n      0x32\n        /* \"#utility.yul\":10432:10433   */\n      0x04\n        /* \"#utility.yul\":10425:10440   */\n      mstore\n        /* \"#utility.yul\":10459:10463   */\n      0x24\n        /* \"#utility.yul\":10456:10457   */\n      0x00\n        /* \"#utility.yul\":10449:10464   */\n      revert\n        /* \"#utility.yul\":10476:10656   */\n    tag_215:\n        /* \"#utility.yul\":10524:10601   */\n      0x4e487b7100000000000000000000000000000000000000000000000000000000\n        /* \"#utility.yul\":10521:10522   */\n      0x00\n        /* \"#utility.yul\":10514:10602   */\n      mstore\n        /* \"#utility.yul\":10621:10625   */\n      0x11\n        /* \"#utility.yul\":10618:10619   */\n      0x04\n        /* \"#utility.yul\":10611:10626   */\n      mstore\n        /* \"#utility.yul\":10645:10649   */\n      0x24\n        /* \"#utility.yul\":10642:10643   */\n      0x00\n        /* \"#utility.yul\":10635:10650   */\n      revert\n        /* \"#utility.yul\":10662:10856   */\n    tag_99:\n        /* \"#utility.yul\":10702:10706   */\n      0x00\n        /* \"#utility.yul\":10722:10742   */\n      tag_359\n        /* \"#utility.yul\":10740:10741   */\n      dup3\n        /* \"#utility.yul\":10722:10742   */\n      tag_187\n      jump\t// in\n    tag_359:\n        /* \"#utility.yul\":10717:10742   */\n      swap2\n      pop\n        /* \"#utility.yul\":10756:10776   */\n      tag_360\n        /* \"#utility.yul\":10774:10775   */\n      dup4\n        /* \"#utility.yul\":10756:10776   */\n      tag_187\n      jump\t// in\n    tag_360:\n        /* \"#utility.yul\":10751:10776   */\n      swap3\n      pop\n        /* \"#utility.yul\":10800:10801   */\n      dup3\n        /* \"#utility.yul\":10797:10798   */\n      dup3\n        /* \"#utility.yul\":10793:10802   */\n      sub\n        /* \"#utility.yul\":10785:10802   */\n      swap1\n      pop\n        /* \"#utility.yul\":10824:10825   */\n      dup2\n        /* \"#utility.yul\":10818:10822   */\n      dup2\n        /* \"#utility.yul\":10815:10826   */\n      gt\n        /* \"#utility.yul\":10812:10849   */\n      iszero\n      tag_361\n      jumpi\n        /* \"#utility.yul\":10829:10847   */\n      tag_362\n      tag_215\n      jump\t// in\n    tag_362:\n        /* \"#utility.yul\":10812:10849   */\n    tag_361:\n        /* \"#utility.yul\":10662:10856   */\n      swap3\n      swap2\n      pop\n      pop\n      jump\t// out\n        /* \"#utility.yul\":10862:11042   */\n    tag_108:\n        /* \"#utility.yul\":10910:10987   */\n      0x4e487b7100000000000000000000000000000000000000000000000000000000\n        /* \"#utility.yul\":10907:10908   */\n      0x00\n        /* \"#utility.yul\":10900:10988   */\n      mstore\n        /* \"#utility.yul\":11007:11011   */\n      0x31\n        /* \"#utility.yul\":11004:11005   */\n      0x04\n        /* \"#utility.yul\":10997:11012   */\n      mstore\n        /* \"#utility.yul\":11031:11035   */\n      0x24\n        /* \"#utility.yul\":11028:11029   */\n      0x00\n        /* \"#utility.yul\":11021:11036   */\n      revert\n        /* \"#utility.yul\":11048:11269   */\n    tag_216:\n        /* \"#utility.yul\":11188:11222   */\n      0x50726f706f73616c2068617320616c7265616479206265656e20657865637574\n        /* \"#utility.yul\":11184:11185   */\n      0x00\n        /* \"#utility.yul\":11176:11182   */\n      dup3\n        /* \"#utility.yul\":11172:11186   */\n      add\n        /* \"#utility.yul\":11165:11223   */\n      mstore\n        /* \"#utility.yul\":11257:11261   */\n      0x6564000000000000000000000000000000000000000000000000000000000000\n        /* \"#utility.yul\":11252:11254   */\n      0x20\n        /* \"#utility.yul\":11244:11250   */\n      dup3\n        /* \"#utility.yul\":11240:11255   */\n      add\n        /* \"#utility.yul\":11233:11262   */\n      mstore\n        /* \"#utility.yul\":11048:11269   */\n      pop\n      jump\t// out\n        /* \"#utility.yul\":11275:11641   */\n    tag_217:\n        /* \"#utility.yul\":11417:11420   */\n      0x00\n        /* \"#utility.yul\":11438:11505   */\n      tag_366\n        /* \"#utility.yul\":11502:11504   */\n      0x22\n        /* \"#utility.yul\":11497:11500   */\n      dup4\n        /* \"#utility.yul\":11438:11505   */\n      tag_191\n      jump\t// in\n    tag_366:\n        /* \"#utility.yul\":11431:11505   */\n      swap2\n      pop\n        /* \"#utility.yul\":11514:11607   */\n      tag_367\n        /* \"#utility.yul\":11603:11606   */\n      dup3\n        /* \"#utility.yul\":11514:11607   */\n      tag_216\n      jump\t// in\n    tag_367:\n        /* \"#utility.yul\":11632:11634   */\n      0x40\n        /* \"#utility.yul\":11627:11630   */\n      dup3\n        /* \"#utility.yul\":11623:11635   */\n      add\n        /* \"#utility.yul\":11616:11635   */\n      swap1\n      pop\n        /* \"#utility.yul\":11275:11641   */\n      swap2\n      swap1\n      pop\n      jump\t// out\n        /* \"#utility.yul\":11647:12066   */\n    tag_117:\n        /* \"#utility.yul\":11813:11817   */\n      0x00\n        /* \"#utility.yul\":11851:11853   */\n      0x20\n        /* \"#utility.yul\":11840:11849   */\n      dup3\n        /* \"#utility.yul\":11836:11854   */\n      add\n        /* \"#utility.yul\":11828:11854   */\n      swap1\n      pop\n        /* \"#utility.yul\":11900:11909   */\n      dup2\n        /* \"#utility.yul\":11894:11898   */\n      dup2\n        /* \"#utility.yul\":11890:11910   */\n      sub\n        /* \"#utility.yul\":11886:11887   */\n      0x00\n        /* \"#utility.yul\":11875:11884   */\n      dup4\n        /* \"#utility.yul\":11871:11888   */\n      add\n        /* \"#utility.yul\":11864:11911   */\n      mstore\n        /* \"#utility.yul\":11928:12059   */\n      tag_369\n        /* \"#utility.yul\":12054:12058   */\n      dup2\n        /* \"#utility.yul\":11928:12059   */\n      tag_217\n      jump\t// in\n    tag_369:\n        /* \"#utility.yul\":11920:12059   */\n      swap1\n      pop\n        /* \"#utility.yul\":11647:12066   */\n      swap2\n      swap1\n      pop\n      jump\t// out\n        /* \"#utility.yul\":12072:12248   */\n    tag_218:\n        /* \"#utility.yul\":12212:12240   */\n      0x50726f706f73616c20686173206265656e20617070726f766564000000000000\n        /* \"#utility.yul\":12208:12209   */\n      0x00\n        /* \"#utility.yul\":12200:12206   */\n      dup3\n        /* \"#utility.yul\":12196:12210   */\n      add\n        /* \"#utility.yul\":12189:12241   */\n      mstore\n        /* \"#utility.yul\":12072:12248   */\n      pop\n      jump\t// out\n        /* \"#utility.yul\":12254:12620   */\n    tag_219:\n        /* \"#utility.yul\":12396:12399   */\n      0x00\n        /* \"#utility.yul\":12417:12484   */\n      tag_372\n        /* \"#utility.yul\":12481:12483   */\n      0x1a\n        /* \"#utility.yul\":12476:12479   */\n      dup4\n        /* \"#utility.yul\":12417:12484   */\n      tag_191\n      jump\t// in\n    tag_372:\n        /* \"#utility.yul\":12410:12484   */\n      swap2\n      pop\n        /* \"#utility.yul\":12493:12586   */\n      tag_373\n        /* \"#utility.yul\":12582:12585   */\n      dup3\n        /* \"#utility.yul\":12493:12586   */\n      tag_218\n      jump\t// in\n    tag_373:\n        /* \"#utility.yul\":12611:12613   */\n      0x20\n        /* \"#utility.yul\":12606:12609   */\n      dup3\n        /* \"#utility.yul\":12602:12614   */\n      add\n        /* \"#utility.yul\":12595:12614   */\n      swap1\n      pop\n        /* \"#utility.yul\":12254:12620   */\n      swap2\n      swap1\n      pop\n      jump\t// out\n        /* \"#utility.yul\":12626:13045   */\n    tag_129:\n        /* \"#utility.yul\":12792:12796   */\n      0x00\n        /* \"#utility.yul\":12830:12832   */\n      0x20\n        /* \"#utility.yul\":12819:12828   */\n      dup3\n        /* \"#utility.yul\":12815:12833   */\n      add\n        /* \"#utility.yul\":12807:12833   */\n      swap1\n      pop\n        /* \"#utility.yul\":12879:12888   */\n      dup2\n        /* \"#utility.yul\":12873:12877   */\n      dup2\n        /* \"#utility.yul\":12869:12889   */\n      sub\n        /* \"#utility.yul\":12865:12866   */\n      0x00\n        /* \"#utility.yul\":12854:12863   */\n      dup4\n        /* \"#utility.yul\":12850:12867   */\n      add\n        /* \"#utility.yul\":12843:12890   */\n      mstore\n        /* \"#utility.yul\":12907:13038   */\n      tag_375\n        /* \"#utility.yul\":13033:13037   */\n      dup2\n        /* \"#utility.yul\":12907:13038   */\n      tag_219\n      jump\t// in\n    tag_375:\n        /* \"#utility.yul\":12899:13038   */\n      swap1\n      pop\n        /* \"#utility.yul\":12626:13045   */\n      swap2\n      swap1\n      pop\n      jump\t// out\n        /* \"#utility.yul\":13051:13232   */\n    tag_220:\n        /* \"#utility.yul\":13191:13224   */\n      0x596f75206861766520746f2062652061206d656d62657220746f20766f746500\n        /* \"#utility.yul\":13187:13188   */\n      0x00\n        /* \"#utility.yul\":13179:13185   */\n      dup3\n        /* \"#utility.yul\":13175:13189   */\n      add\n        /* \"#utility.yul\":13168:13225   */\n      mstore\n        /* \"#utility.yul\":13051:13232   */\n      pop\n      jump\t// out\n        /* \"#utility.yul\":13238:13604   */\n    tag_221:\n        /* \"#utility.yul\":13380:13383   */\n      0x00\n        /* \"#utility.yul\":13401:13468   */\n      tag_378\n        /* \"#utility.yul\":13465:13467   */\n      0x1f\n        /* \"#utility.yul\":13460:13463   */\n      dup4\n        /* \"#utility.yul\":13401:13468   */\n      tag_191\n      jump\t// in\n    tag_378:\n        /* \"#utility.yul\":13394:13468   */\n      swap2\n      pop\n        /* \"#utility.yul\":13477:13570   */\n      tag_379\n        /* \"#utility.yul\":13566:13569   */\n      dup3\n        /* \"#utility.yul\":13477:13570   */\n      tag_220\n      jump\t// in\n    tag_379:\n        /* \"#utility.yul\":13595:13597   */\n      0x20\n        /* \"#utility.yul\":13590:13593   */\n      dup3\n        /* \"#utility.yul\":13586:13598   */\n      add\n        /* \"#utility.yul\":13579:13598   */\n      swap1\n      pop\n        /* \"#utility.yul\":13238:13604   */\n      swap2\n      swap1\n      pop\n      jump\t// out\n        /* \"#utility.yul\":13610:14029   */\n    tag_133:\n        /* \"#utility.yul\":13776:13780   */\n      0x00\n        /* \"#utility.yul\":13814:13816   */\n      0x20\n        /* \"#utility.yul\":13803:13812   */\n      dup3\n        /* \"#utility.yul\":13799:13817   */\n      add\n        /* \"#utility.yul\":13791:13817   */\n      swap1\n      pop\n        /* \"#utility.yul\":13863:13872   */\n      dup2\n        /* \"#utility.yul\":13857:13861   */\n      dup2\n        /* \"#utility.yul\":13853:13873   */\n      sub\n        /* \"#utility.yul\":13849:13850   */\n      0x00\n        /* \"#utility.yul\":13838:13847   */\n      dup4\n        /* \"#utility.yul\":13834:13851   */\n      add\n        /* \"#utility.yul\":13827:13874   */\n      mstore\n        /* \"#utility.yul\":13891:14022   */\n      tag_381\n        /* \"#utility.yul\":14017:14021   */\n      dup2\n        /* \"#utility.yul\":13891:14022   */\n      tag_221\n      jump\t// in\n    tag_381:\n        /* \"#utility.yul\":13883:14022   */\n      swap1\n      pop\n        /* \"#utility.yul\":13610:14029   */\n      swap2\n      swap1\n      pop\n      jump\t// out\n        /* \"#utility.yul\":14035:14210   */\n    tag_222:\n        /* \"#utility.yul\":14175:14202   */\n      0x4e6f7420656e6f75676820746f6b656e7320746f20766f746500000000000000\n        /* \"#utility.yul\":14171:14172   */\n      0x00\n        /* \"#utility.yul\":14163:14169   */\n      dup3\n        /* \"#utility.yul\":14159:14173   */\n      add\n        /* \"#utility.yul\":14152:14203   */\n      mstore\n        /* \"#utility.yul\":14035:14210   */\n      pop\n      jump\t// out\n        /* \"#utility.yul\":14216:14582   */\n    tag_223:\n        /* \"#utility.yul\":14358:14361   */\n      0x00\n        /* \"#utility.yul\":14379:14446   */\n      tag_384\n        /* \"#utility.yul\":14443:14445   */\n      0x19\n        /* \"#utility.yul\":14438:14441   */\n      dup4\n        /* \"#utility.yul\":14379:14446   */\n      tag_191\n      jump\t// in\n    tag_384:\n        /* \"#utility.yul\":14372:14446   */\n      swap2\n      pop\n        /* \"#utility.yul\":14455:14548   */\n      tag_385\n        /* \"#utility.yul\":14544:14547   */\n      dup3\n        /* \"#utility.yul\":14455:14548   */\n      tag_222\n      jump\t// in\n    tag_385:\n        /* \"#utility.yul\":14573:14575   */\n      0x20\n        /* \"#utility.yul\":14568:14571   */\n      dup3\n        /* \"#utility.yul\":14564:14576   */\n      add\n        /* \"#utility.yul\":14557:14576   */\n      swap1\n      pop\n        /* \"#utility.yul\":14216:14582   */\n      swap2\n      swap1\n      pop\n      jump\t// out\n        /* \"#utility.yul\":14588:15007   */\n    tag_136:\n        /* \"#utility.yul\":14754:14758   */\n      0x00\n        /* \"#utility.yul\":14792:14794   */\n      0x20\n        /* \"#utility.yul\":14781:14790   */\n      dup3\n        /* \"#utility.yul\":14777:14795   */\n      add\n        /* \"#utility.yul\":14769:14795   */\n      swap1\n      pop\n        /* \"#utility.yul\":14841:14850   */\n      dup2\n        /* \"#utility.yul\":14835:14839   */\n      dup2\n        /* \"#utility.yul\":14831:14851   */\n      sub\n        /* \"#utility.yul\":14827:14828   */\n      0x00\n        /* \"#utility.yul\":14816:14825   */\n      dup4\n        /* \"#utility.yul\":14812:14829   */\n      add\n        /* \"#utility.yul\":14805:14852   */\n      mstore\n        /* \"#utility.yul\":14869:15000   */\n      tag_387\n        /* \"#utility.yul\":14995:14999   */\n      dup2\n        /* \"#utility.yul\":14869:15000   */\n      tag_223\n      jump\t// in\n    tag_387:\n        /* \"#utility.yul\":14861:15000   */\n      swap1\n      pop\n        /* \"#utility.yul\":14588:15007   */\n      swap2\n      swap1\n      pop\n      jump\t// out\n        /* \"#utility.yul\":15013:15185   */\n    tag_224:\n        /* \"#utility.yul\":15153:15177   */\n      0x596f75206861766520616c726561647920766f74656400000000000000000000\n        /* \"#utility.yul\":15149:15150   */\n      0x00\n        /* \"#utility.yul\":15141:15147   */\n      dup3\n        /* \"#utility.yul\":15137:15151   */\n      add\n        /* \"#utility.yul\":15130:15178   */\n      mstore\n        /* \"#utility.yul\":15013:15185   */\n      pop\n      jump\t// out\n        /* \"#utility.yul\":15191:15557   */\n    tag_225:\n        /* \"#utility.yul\":15333:15336   */\n      0x00\n        /* \"#utility.yul\":15354:15421   */\n      tag_390\n        /* \"#utility.yul\":15418:15420   */\n      0x16\n        /* \"#utility.yul\":15413:15416   */\n      dup4\n        /* \"#utility.yul\":15354:15421   */\n      tag_191\n      jump\t// in\n    tag_390:\n        /* \"#utility.yul\":15347:15421   */\n      swap2\n      pop\n        /* \"#utility.yul\":15430:15523   */\n      tag_391\n        /* \"#utility.yul\":15519:15522   */\n      dup3\n        /* \"#utility.yul\":15430:15523   */\n      tag_224\n      jump\t// in\n    tag_391:\n        /* \"#utility.yul\":15548:15550   */\n      0x20\n        /* \"#utility.yul\":15543:15546   */\n      dup3\n        /* \"#utility.yul\":15539:15551   */\n      add\n        /* \"#utility.yul\":15532:15551   */\n      swap1\n      pop\n        /* \"#utility.yul\":15191:15557   */\n      swap2\n      swap1\n      pop\n      jump\t// out\n        /* \"#utility.yul\":15563:15982   */\n    tag_139:\n        /* \"#utility.yul\":15729:15733   */\n      0x00\n        /* \"#utility.yul\":15767:15769   */\n      0x20\n        /* \"#utility.yul\":15756:15765   */\n      dup3\n        /* \"#utility.yul\":15752:15770   */\n      add\n        /* \"#utility.yul\":15744:15770   */\n      swap1\n      pop\n        /* \"#utility.yul\":15816:15825   */\n      dup2\n        /* \"#utility.yul\":15810:15814   */\n      dup2\n        /* \"#utility.yul\":15806:15826   */\n      sub\n        /* \"#utility.yul\":15802:15803   */\n      0x00\n        /* \"#utility.yul\":15791:15800   */\n      dup4\n        /* \"#utility.yul\":15787:15804   */\n      add\n        /* \"#utility.yul\":15780:15827   */\n      mstore\n        /* \"#utility.yul\":15844:15975   */\n      tag_393\n        /* \"#utility.yul\":15970:15974   */\n      dup2\n        /* \"#utility.yul\":15844:15975   */\n      tag_225\n      jump\t// in\n    tag_393:\n        /* \"#utility.yul\":15836:15975   */\n      swap1\n      pop\n        /* \"#utility.yul\":15563:15982   */\n      swap2\n      swap1\n      pop\n      jump\t// out\n        /* \"#utility.yul\":15988:16179   */\n    tag_145:\n        /* \"#utility.yul\":16028:16031   */\n      0x00\n        /* \"#utility.yul\":16047:16067   */\n      tag_395\n        /* \"#utility.yul\":16065:16066   */\n      dup3\n        /* \"#utility.yul\":16047:16067   */\n      tag_187\n      jump\t// in\n    tag_395:\n        /* \"#utility.yul\":16042:16067   */\n      swap2\n      pop\n        /* \"#utility.yul\":16081:16101   */\n      tag_396\n        /* \"#utility.yul\":16099:16100   */\n      dup4\n        /* \"#utility.yul\":16081:16101   */\n      tag_187\n      jump\t// in\n    tag_396:\n        /* \"#utility.yul\":16076:16101   */\n      swap3\n      pop\n        /* \"#utility.yul\":16124:16125   */\n      dup3\n        /* \"#utility.yul\":16121:16122   */\n      dup3\n        /* \"#utility.yul\":16117:16126   */\n      add\n        /* \"#utility.yul\":16110:16126   */\n      swap1\n      pop\n        /* \"#utility.yul\":16145:16148   */\n      dup1\n        /* \"#utility.yul\":16142:16143   */\n      dup3\n        /* \"#utility.yul\":16139:16149   */\n      gt\n        /* \"#utility.yul\":16136:16172   */\n      iszero\n      tag_397\n      jumpi\n        /* \"#utility.yul\":16152:16170   */\n      tag_398\n      tag_215\n      jump\t// in\n    tag_398:\n        /* \"#utility.yul\":16136:16172   */\n    tag_397:\n        /* \"#utility.yul\":15988:16179   */\n      swap3\n      swap2\n      pop\n      pop\n      jump\t// out\n        /* \"#utility.yul\":16185:16326   */\n    tag_226:\n        /* \"#utility.yul\":16234:16238   */\n      0x00\n        /* \"#utility.yul\":16257:16260   */\n      dup2\n        /* \"#utility.yul\":16249:16260   */\n      swap1\n      pop\n        /* \"#utility.yul\":16280:16283   */\n      dup2\n        /* \"#utility.yul\":16277:16278   */\n      0x00\n        /* \"#utility.yul\":16270:16284   */\n      mstore\n        /* \"#utility.yul\":16314:16318   */\n      0x20\n        /* \"#utility.yul\":16311:16312   */\n      0x00\n        /* \"#utility.yul\":16301:16319   */\n      keccak256\n        /* \"#utility.yul\":16293:16319   */\n      swap1\n      pop\n        /* \"#utility.yul\":16185:16326   */\n      swap2\n      swap1\n      pop\n      jump\t// out\n        /* \"#utility.yul\":16332:16425   */\n    tag_227:\n        /* \"#utility.yul\":16369:16375   */\n      0x00\n        /* \"#utility.yul\":16416:16418   */\n      0x20\n        /* \"#utility.yul\":16411:16413   */\n      0x1f\n        /* \"#utility.yul\":16404:16409   */\n      dup4\n        /* \"#utility.yul\":16400:16414   */\n      add\n        /* \"#utility.yul\":16396:16419   */\n      div\n        /* \"#utility.yul\":16386:16419   */\n      swap1\n      pop\n        /* \"#utility.yul\":16332:16425   */\n      swap2\n      swap1\n      pop\n      jump\t// out\n        /* \"#utility.yul\":16431:16538   */\n    tag_228:\n        /* \"#utility.yul\":16475:16483   */\n      0x00\n        /* \"#utility.yul\":16525:16530   */\n      dup3\n        /* \"#utility.yul\":16519:16523   */\n      dup3\n        /* \"#utility.yul\":16515:16531   */\n      shl\n        /* \"#utility.yul\":16494:16531   */\n      swap1\n      pop\n        /* \"#utility.yul\":16431:16538   */\n      swap3\n      swap2\n      pop\n      pop\n      jump\t// out\n        /* \"#utility.yul\":16544:16937   */\n    tag_229:\n        /* \"#utility.yul\":16613:16619   */\n      0x00\n        /* \"#utility.yul\":16663:16664   */\n      0x08\n        /* \"#utility.yul\":16651:16661   */\n      dup4\n        /* \"#utility.yul\":16647:16665   */\n      mul\n        /* \"#utility.yul\":16686:16783   */\n      tag_403\n        /* \"#utility.yul\":16716:16782   */\n      0xffffffffffffffffffffffffffffffffffffffffffffffffffffffffffffffff\n        /* \"#utility.yul\":16705:16714   */\n      dup3\n        /* \"#utility.yul\":16686:16783   */\n      tag_228\n      jump\t// in\n    tag_403:\n        /* \"#utility.yul\":16804:16843   */\n      tag_404\n        /* \"#utility.yul\":16834:16842   */\n      dup7\n        /* \"#utility.yul\":16823:16832   */\n      dup4\n        /* \"#utility.yul\":16804:16843   */\n      tag_228\n      jump\t// in\n    tag_404:\n        /* \"#utility.yul\":16792:16843   */\n      swap6\n      pop\n        /* \"#utility.yul\":16876:16880   */\n      dup1\n        /* \"#utility.yul\":16872:16881   */\n      not\n        /* \"#utility.yul\":16865:16870   */\n      dup5\n        /* \"#utility.yul\":16861:16882   */\n      and\n        /* \"#utility.yul\":16852:16882   */\n      swap4\n      pop\n        /* \"#utility.yul\":16925:16929   */\n      dup1\n        /* \"#utility.yul\":16915:16923   */\n      dup7\n        /* \"#utility.yul\":16911:16930   */\n      and\n        /* \"#utility.yul\":16904:16909   */\n      dup5\n        /* \"#utility.yul\":16901:16931   */\n      or\n        /* \"#utility.yul\":16891:16931   */\n      swap3\n      pop\n        /* \"#utility.yul\":16620:16937   */\n      pop\n      pop\n        /* \"#utility.yul\":16544:16937   */\n      swap4\n      swap3\n      pop\n      pop\n      pop\n      jump\t// out\n        /* \"#utility.yul\":16943:17003   */\n    tag_230:\n        /* \"#utility.yul\":16971:16974   */\n      0x00\n        /* \"#utility.yul\":16992:16997   */\n      dup2\n        /* \"#utility.yul\":16985:16997   */\n      swap1\n      pop\n        /* \"#utility.yul\":16943:17003   */\n      swap2\n      swap1\n      pop\n      jump\t// out\n        /* \"#utility.yul\":17009:17151   */\n    tag_231:\n        /* \"#utility.yul\":17059:17068   */\n      0x00\n        /* \"#utility.yul\":17092:17145   */\n      tag_407\n        /* \"#utility.yul\":17110:17144   */\n      tag_408\n        /* \"#utility.yul\":17119:17143   */\n      tag_409\n        /* \"#utility.yul\":17137:17142   */\n      dup5\n        /* \"#utility.yul\":17119:17143   */\n      tag_187\n      jump\t// in\n    tag_409:\n        /* \"#utility.yul\":17110:17144   */\n      tag_230\n      jump\t// in\n    tag_408:\n        /* \"#utility.yul\":17092:17145   */\n      tag_187\n      jump\t// in\n    tag_407:\n        /* \"#utility.yul\":17079:17145   */\n      swap1\n      pop\n        /* \"#utility.yul\":17009:17151   */\n      swap2\n      swap1\n      pop\n      jump\t// out\n        /* \"#utility.yul\":17157:17232   */\n    tag_232:\n        /* \"#utility.yul\":17200:17203   */\n      0x00\n        /* \"#utility.yul\":17221:17226   */\n      dup2\n        /* \"#utility.yul\":17214:17226   */\n      swap1\n      pop\n        /* \"#utility.yul\":17157:17232   */\n      swap2\n      swap1\n      pop\n      jump\t// out\n        /* \"#utility.yul\":17238:17507   */\n    tag_233:\n        /* \"#utility.yul\":17348:17387   */\n      tag_412\n        /* \"#utility.yul\":17379:17386   */\n      dup4\n        /* \"#utility.yul\":17348:17387   */\n      tag_231\n      jump\t// in\n    tag_412:\n        /* \"#utility.yul\":17409:17500   */\n      tag_413\n        /* \"#utility.yul\":17458:17499   */\n      tag_414\n        /* \"#utility.yul\":17482:17498   */\n      dup3\n        /* \"#utility.yul\":17458:17499   */\n      tag_232\n      jump\t// in\n    tag_414:\n        /* \"#utility.yul\":17450:17456   */\n      dup5\n        /* \"#utility.yul\":17443:17447   */\n      dup5\n        /* \"#utility.yul\":17437:17448   */\n      sload\n        /* \"#utility.yul\":17409:17500   */\n      tag_229\n      jump\t// in\n    tag_413:\n        /* \"#utility.yul\":17403:17407   */\n      dup3\n        /* \"#utility.yul\":17396:17501   */\n      sstore\n        /* \"#utility.yul\":17314:17507   */\n      pop\n        /* \"#utility.yul\":17238:17507   */\n      pop\n      pop\n      pop\n      jump\t// out\n        /* \"#utility.yul\":17513:17586   */\n    tag_234:\n        /* \"#utility.yul\":17558:17561   */\n      0x00\n        /* \"#utility.yul\":17513:17586   */\n      swap1\n      jump\t// out\n        /* \"#utility.yul\":17592:17781   */\n    tag_235:\n        /* \"#utility.yul\":17669:17701   */\n      tag_417\n      tag_234\n      jump\t// in\n    tag_417:\n        /* \"#utility.yul\":17710:17775   */\n      tag_418\n        /* \"#utility.yul\":17768:17774   */\n      dup2\n        /* \"#utility.yul\":17760:17766   */\n      dup5\n        /* \"#utility.yul\":17754:17758   */\n      dup5\n        /* \"#utility.yul\":17710:17775   */\n      tag_233\n      jump\t// in\n    tag_418:\n        /* \"#utility.yul\":17645:17781   */\n      pop\n        /* \"#utility.yul\":17592:17781   */\n      pop\n      pop\n      jump\t// out\n        /* \"#utility.yul\":17787:17973   */\n    tag_236:\n        /* \"#utility.yul\":17847:17967   */\n    tag_420:\n        /* \"#utility.yul\":17864:17867   */\n      dup2\n        /* \"#utility.yul\":17857:17862   */\n      dup2\n        /* \"#utility.yul\":17854:17868   */\n      lt\n        /* \"#utility.yul\":17847:17967   */\n      iszero\n      tag_422\n      jumpi\n        /* \"#utility.yul\":17918:17957   */\n      tag_423\n        /* \"#utility.yul\":17955:17956   */\n      0x00\n        /* \"#utility.yul\":17948:17953   */\n      dup3\n        /* \"#utility.yul\":17918:17957   */\n      tag_235\n      jump\t// in\n    tag_423:\n        /* \"#utility.yul\":17891:17892   */\n      0x01\n        /* \"#utility.yul\":17884:17889   */\n      dup2\n        /* \"#utility.yul\":17880:17893   */\n      add\n        /* \"#utility.yul\":17871:17893   */\n      swap1\n      pop\n        /* \"#utility.yul\":17847:17967   */\n      jump(tag_420)\n    tag_422:\n        /* \"#utility.yul\":17787:17973   */\n      pop\n      pop\n      jump\t// out\n        /* \"#utility.yul\":17979:18522   */\n    tag_237:\n        /* \"#utility.yul\":18080:18082   */\n      0x1f\n        /* \"#utility.yul\":18075:18078   */\n      dup3\n        /* \"#utility.yul\":18072:18083   */\n      gt\n        /* \"#utility.yul\":18069:18515   */\n      iszero\n      tag_425\n      jumpi\n        /* \"#utility.yul\":18114:18152   */\n      tag_426\n        /* \"#utility.yul\":18146:18151   */\n      dup2\n        /* \"#utility.yul\":18114:18152   */\n      tag_226\n      jump\t// in\n    tag_426:\n        /* \"#utility.yul\":18198:18227   */\n      tag_427\n        /* \"#utility.yul\":18216:18226   */\n      dup5\n        /* \"#utility.yul\":18198:18227   */\n      tag_227\n      jump\t// in\n    tag_427:\n        /* \"#utility.yul\":18188:18196   */\n      dup2\n        /* \"#utility.yul\":18184:18228   */\n      add\n        /* \"#utility.yul\":18381:18383   */\n      0x20\n        /* \"#utility.yul\":18369:18379   */\n      dup6\n        /* \"#utility.yul\":18366:18384   */\n      lt\n        /* \"#utility.yul\":18363:18412   */\n      iszero\n      tag_428\n      jumpi\n        /* \"#utility.yul\":18402:18410   */\n      dup2\n        /* \"#utility.yul\":18387:18410   */\n      swap1\n      pop\n        /* \"#utility.yul\":18363:18412   */\n    tag_428:\n        /* \"#utility.yul\":18425:18505   */\n      tag_429\n        /* \"#utility.yul\":18481:18503   */\n      tag_430\n        /* \"#utility.yul\":18499:18502   */\n      dup6\n        /* \"#utility.yul\":18481:18503   */\n      tag_227\n      jump\t// in\n    tag_430:\n        /* \"#utility.yul\":18471:18479   */\n      dup4\n        /* \"#utility.yul\":18467:18504   */\n      add\n        /* \"#utility.yul\":18454:18465   */\n      dup3\n        /* \"#utility.yul\":18425:18505   */\n      tag_236\n      jump\t// in\n    tag_429:\n        /* \"#utility.yul\":18084:18515   */\n      pop\n      pop\n        /* \"#utility.yul\":18069:18515   */\n    tag_425:\n        /* \"#utility.yul\":17979:18522   */\n      pop\n      pop\n      pop\n      jump\t// out\n        /* \"#utility.yul\":18528:18645   */\n    tag_238:\n        /* \"#utility.yul\":18582:18590   */\n      0x00\n        /* \"#utility.yul\":18632:18637   */\n      dup3\n        /* \"#utility.yul\":18626:18630   */\n      dup3\n        /* \"#utility.yul\":18622:18638   */\n      shr\n        /* \"#utility.yul\":18601:18638   */\n      swap1\n      pop\n        /* \"#utility.yul\":18528:18645   */\n      swap3\n      swap2\n      pop\n      pop\n      jump\t// out\n        /* \"#utility.yul\":18651:18820   */\n    tag_239:\n        /* \"#utility.yul\":18695:18701   */\n      0x00\n        /* \"#utility.yul\":18728:18779   */\n      tag_433\n        /* \"#utility.yul\":18776:18777   */\n      0x00\n        /* \"#utility.yul\":18772:18778   */\n      not\n        /* \"#utility.yul\":18764:18769   */\n      dup5\n        /* \"#utility.yul\":18761:18762   */\n      0x08\n        /* \"#utility.yul\":18757:18770   */\n      mul\n        /* \"#utility.yul\":18728:18779   */\n      tag_238\n      jump\t// in\n    tag_433:\n        /* \"#utility.yul\":18724:18780   */\n      not\n        /* \"#utility.yul\":18809:18813   */\n      dup1\n        /* \"#utility.yul\":18803:18807   */\n      dup4\n        /* \"#utility.yul\":18799:18814   */\n      and\n        /* \"#utility.yul\":18789:18814   */\n      swap2\n      pop\n        /* \"#utility.yul\":18702:18820   */\n      pop\n        /* \"#utility.yul\":18651:18820   */\n      swap3\n      swap2\n      pop\n      pop\n      jump\t// out\n        /* \"#utility.yul\":18825:19120   */\n    tag_240:\n        /* \"#utility.yul\":18901:18905   */\n      0x00\n        /* \"#utility.yul\":19047:19076   */\n      tag_435\n        /* \"#utility.yul\":19072:19075   */\n      dup4\n        /* \"#utility.yul\":19066:19070   */\n      dup4\n        /* \"#utility.yul\":19047:19076   */\n      tag_239\n      jump\t// in\n    tag_435:\n        /* \"#utility.yul\":19039:19076   */\n      swap2\n      pop\n        /* \"#utility.yul\":19109:19112   */\n      dup3\n        /* \"#utility.yul\":19106:19107   */\n      0x02\n        /* \"#utility.yul\":19102:19113   */\n      mul\n        /* \"#utility.yul\":19096:19100   */\n      dup3\n        /* \"#utility.yul\":19093:19114   */\n      or\n        /* \"#utility.yul\":19085:19114   */\n      swap1\n      pop\n        /* \"#utility.yul\":18825:19120   */\n      swap3\n      swap2\n      pop\n      pop\n      jump\t// out\n        /* \"#utility.yul\":19125:20520   */\n    tag_154:\n        /* \"#utility.yul\":19242:19279   */\n      tag_437\n        /* \"#utility.yul\":19275:19278   */\n      dup3\n        /* \"#utility.yul\":19242:19279   */\n      tag_190\n      jump\t// in\n    tag_437:\n        /* \"#utility.yul\":19344:19362   */\n      0xffffffffffffffff\n        /* \"#utility.yul\":19336:19342   */\n      dup2\n        /* \"#utility.yul\":19333:19363   */\n      gt\n        /* \"#utility.yul\":19330:19386   */\n      iszero\n      tag_438\n      jumpi\n        /* \"#utility.yul\":19366:19384   */\n      tag_439\n      tag_204\n      jump\t// in\n    tag_439:\n        /* \"#utility.yul\":19330:19386   */\n    tag_438:\n        /* \"#utility.yul\":19410:19448   */\n      tag_440\n        /* \"#utility.yul\":19442:19446   */\n      dup3\n        /* \"#utility.yul\":19436:19447   */\n      sload\n        /* \"#utility.yul\":19410:19448   */\n      tag_81\n      jump\t// in\n    tag_440:\n        /* \"#utility.yul\":19495:19562   */\n      tag_441\n        /* \"#utility.yul\":19555:19561   */\n      dup3\n        /* \"#utility.yul\":19547:19553   */\n      dup3\n        /* \"#utility.yul\":19541:19545   */\n      dup6\n        /* \"#utility.yul\":19495:19562   */\n      tag_237\n      jump\t// in\n    tag_441:\n        /* \"#utility.yul\":19589:19590   */\n      0x00\n        /* \"#utility.yul\":19613:19617   */\n      0x20\n        /* \"#utility.yul\":19600:19617   */\n      swap1\n      pop\n        /* \"#utility.yul\":19645:19647   */\n      0x1f\n        /* \"#utility.yul\":19637:19643   */\n      dup4\n        /* \"#utility.yul\":19634:19648   */\n      gt\n        /* \"#utility.yul\":19662:19663   */\n      0x01\n        /* \"#utility.yul\":19657:20275   */\n      dup2\n      eq\n      tag_443\n      jumpi\n        /* \"#utility.yul\":20319:20320   */\n      0x00\n        /* \"#utility.yul\":20336:20342   */\n      dup5\n        /* \"#utility.yul\":20333:20410   */\n      iszero\n      tag_444\n      jumpi\n        /* \"#utility.yul\":20385:20394   */\n      dup3\n        /* \"#utility.yul\":20380:20383   */\n      dup8\n        /* \"#utility.yul\":20376:20395   */\n      add\n        /* \"#utility.yul\":20370:20396   */\n      mload\n        /* \"#utility.yul\":20361:20396   */\n      swap1\n      pop\n        /* \"#utility.yul\":20333:20410   */\n    tag_444:\n        /* \"#utility.yul\":20436:20503   */\n      tag_445\n        /* \"#utility.yul\":20496:20502   */\n      dup6\n        /* \"#utility.yul\":20489:20494   */\n      dup3\n        /* \"#utility.yul\":20436:20503   */\n      tag_240\n      jump\t// in\n    tag_445:\n        /* \"#utility.yul\":20430:20434   */\n      dup7\n        /* \"#utility.yul\":20423:20504   */\n      sstore\n        /* \"#utility.yul\":20292:20514   */\n      pop\n        /* \"#utility.yul\":19627:20514   */\n      jump(tag_442)\n        /* \"#utility.yul\":19657:20275   */\n    tag_443:\n        /* \"#utility.yul\":19709:19713   */\n      0x1f\n        /* \"#utility.yul\":19705:19714   */\n      not\n        /* \"#utility.yul\":19697:19703   */\n      dup5\n        /* \"#utility.yul\":19693:19715   */\n      and\n        /* \"#utility.yul\":19743:19780   */\n      tag_446\n        /* \"#utility.yul\":19775:19779   */\n      dup7\n        /* \"#utility.yul\":19743:19780   */\n      tag_226\n      jump\t// in\n    tag_446:\n        /* \"#utility.yul\":19802:19803   */\n      0x00\n        /* \"#utility.yul\":19816:20024   */\n    tag_447:\n        /* \"#utility.yul\":19830:19837   */\n      dup3\n        /* \"#utility.yul\":19827:19828   */\n      dup2\n        /* \"#utility.yul\":19824:19838   */\n      lt\n        /* \"#utility.yul\":19816:20024   */\n      iszero\n      tag_449\n      jumpi\n        /* \"#utility.yul\":19909:19918   */\n      dup5\n        /* \"#utility.yul\":19904:19907   */\n      dup10\n        /* \"#utility.yul\":19900:19919   */\n      add\n        /* \"#utility.yul\":19894:19920   */\n      mload\n        /* \"#utility.yul\":19886:19892   */\n      dup3\n        /* \"#utility.yul\":19879:19921   */\n      sstore\n        /* \"#utility.yul\":19960:19961   */\n      0x01\n        /* \"#utility.yul\":19952:19958   */\n      dup3\n        /* \"#utility.yul\":19948:19962   */\n      add\n        /* \"#utility.yul\":19938:19962   */\n      swap2\n      pop\n        /* \"#utility.yul\":20007:20009   */\n      0x20\n        /* \"#utility.yul\":19996:20005   */\n      dup6\n        /* \"#utility.yul\":19992:20010   */\n      add\n        /* \"#utility.yul\":19979:20010   */\n      swap5\n      pop\n        /* \"#utility.yul\":19853:19857   */\n      0x20\n        /* \"#utility.yul\":19850:19851   */\n      dup2\n        /* \"#utility.yul\":19846:19858   */\n      add\n        /* \"#utility.yul\":19841:19858   */\n      swap1\n      pop\n        /* \"#utility.yul\":19816:20024   */\n      jump(tag_447)\n    tag_449:\n        /* \"#utility.yul\":20052:20058   */\n      dup7\n        /* \"#utility.yul\":20043:20050   */\n      dup4\n        /* \"#utility.yul\":20040:20059   */\n      lt\n        /* \"#utility.yul\":20037:20216   */\n      iszero\n      tag_450\n      jumpi\n        /* \"#utility.yul\":20110:20119   */\n      dup5\n        /* \"#utility.yul\":20105:20108   */\n      dup10\n        /* \"#utility.yul\":20101:20120   */\n      add\n        /* \"#utility.yul\":20095:20121   */\n      mload\n        /* \"#utility.yul\":20153:20201   */\n      tag_451\n        /* \"#utility.yul\":20195:20199   */\n      0x1f\n        /* \"#utility.yul\":20187:20193   */\n      dup10\n        /* \"#utility.yul\":20183:20200   */\n      and\n        /* \"#utility.yul\":20172:20181   */\n      dup3\n        /* \"#utility.yul\":20153:20201   */\n      tag_239\n      jump\t// in\n    tag_451:\n        /* \"#utility.yul\":20145:20151   */\n      dup4\n        /* \"#utility.yul\":20138:20202   */\n      sstore\n        /* \"#utility.yul\":20060:20216   */\n      pop\n        /* \"#utility.yul\":20037:20216   */\n    tag_450:\n        /* \"#utility.yul\":20262:20263   */\n      0x01\n        /* \"#utility.yul\":20258:20259   */\n      0x02\n        /* \"#utility.yul\":20250:20256   */\n      dup9\n        /* \"#utility.yul\":20246:20260   */\n      mul\n        /* \"#utility.yul\":20242:20264   */\n      add\n        /* \"#utility.yul\":20236:20240   */\n      dup9\n        /* \"#utility.yul\":20229:20265   */\n      sstore\n        /* \"#utility.yul\":19664:20275   */\n      pop\n      pop\n      pop\n        /* \"#utility.yul\":19627:20514   */\n    tag_442:\n      pop\n        /* \"#utility.yul\":19217:20520   */\n      pop\n      pop\n      pop\n        /* \"#utility.yul\":19125:20520   */\n      pop\n      pop\n      jump\t// out\n        /* \"#utility.yul\":20526:20839   */\n    tag_157:\n        /* \"#utility.yul\":20639:20643   */\n      0x00\n        /* \"#utility.yul\":20677:20679   */\n      0x20\n        /* \"#utility.yul\":20666:20675   */\n      dup3\n        /* \"#utility.yul\":20662:20680   */\n      add\n        /* \"#utility.yul\":20654:20680   */\n      swap1\n      pop\n        /* \"#utility.yul\":20726:20735   */\n      dup2\n        /* \"#utility.yul\":20720:20724   */\n      dup2\n        /* \"#utility.yul\":20716:20736   */\n      sub\n        /* \"#utility.yul\":20712:20713   */\n      0x00\n        /* \"#utility.yul\":20701:20710   */\n      dup4\n        /* \"#utility.yul\":20697:20714   */\n      add\n        /* \"#utility.yul\":20690:20737   */\n      mstore\n        /* \"#utility.yul\":20754:20832   */\n      tag_453\n        /* \"#utility.yul\":20827:20831   */\n      dup2\n        /* \"#utility.yul\":20818:20824   */\n      dup5\n        /* \"#utility.yul\":20754:20832   */\n      tag_194\n      jump\t// in\n    tag_453:\n        /* \"#utility.yul\":20746:20832   */\n      swap1\n      pop\n        /* \"#utility.yul\":20526:20839   */\n      swap3\n      swap2\n      pop\n      pop\n      jump\t// out\n        /* \"#utility.yul\":20845:21016   */\n    tag_241:\n        /* \"#utility.yul\":20985:21008   */\n      0x4d656d62657220616c7265616479206578697374730000000000000000000000\n        /* \"#utility.yul\":20981:20982   */\n      0x00\n        /* \"#utility.yul\":20973:20979   */\n      dup3\n        /* \"#utility.yul\":20969:20983   */\n      add\n        /* \"#utility.yul\":20962:21009   */\n      mstore\n        /* \"#utility.yul\":20845:21016   */\n      pop\n      jump\t// out\n        /* \"#utility.yul\":21022:21388   */\n    tag_242:\n        /* \"#utility.yul\":21164:21167   */\n      0x00\n        /* \"#utility.yul\":21185:21252   */\n      tag_456\n        /* \"#utility.yul\":21249:21251   */\n      0x15\n        /* \"#utility.yul\":21244:21247   */\n      dup4\n        /* \"#utility.yul\":21185:21252   */\n      tag_191\n      jump\t// in\n    tag_456:\n        /* \"#utility.yul\":21178:21252   */\n      swap2\n      pop\n        /* \"#utility.yul\":21261:21354   */\n      tag_457\n        /* \"#utility.yul\":21350:21353   */\n      dup3\n        /* \"#utility.yul\":21261:21354   */\n      tag_241\n      jump\t// in\n    tag_457:\n        /* \"#utility.yul\":21379:21381   */\n      0x20\n        /* \"#utility.yul\":21374:21377   */\n      dup3\n        /* \"#utility.yul\":21370:21382   */\n      add\n        /* \"#utility.yul\":21363:21382   */\n      swap1\n      pop\n        /* \"#utility.yul\":21022:21388   */\n      swap2\n      swap1\n      pop\n      jump\t// out\n        /* \"#utility.yul\":21394:21813   */\n    tag_181:\n        /* \"#utility.yul\":21560:21564   */\n      0x00\n        /* \"#utility.yul\":21598:21600   */\n      0x20\n        /* \"#utility.yul\":21587:21596   */\n      dup3\n        /* \"#utility.yul\":21583:21601   */\n      add\n        /* \"#utility.yul\":21575:21601   */\n      swap1\n      pop\n        /* \"#utility.yul\":21647:21656   */\n      dup2\n        /* \"#utility.yul\":21641:21645   */\n      dup2\n        /* \"#utility.yul\":21637:21657   */\n      sub\n        /* \"#utility.yul\":21633:21634   */\n      0x00\n        /* \"#utility.yul\":21622:21631   */\n      dup4\n        /* \"#utility.yul\":21618:21635   */\n      add\n        /* \"#utility.yul\":21611:21658   */\n      mstore\n        /* \"#utility.yul\":21675:21806   */\n      tag_459\n        /* \"#utility.yul\":21801:21805   */\n      dup2\n        /* \"#utility.yul\":21675:21806   */\n      tag_242\n      jump\t// in\n    tag_459:\n        /* \"#utility.yul\":21667:21806   */\n      swap1\n      pop\n        /* \"#utility.yul\":21394:21813   */\n      swap2\n      swap1\n      pop\n      jump\t// out\n\n    auxdata: 0xa2646970667358221220c80c02c887ac3823df596e108e9ecb2b680810e43f2e9ae56c3d2b9dc5814cf264736f6c63430008160033\n}\n",
				"bytecode": {
					"linkReferences": {},
					"object": "608060405234801561000f575f80fd5b503360075f6101000a81548173ffffffffffffffffffffffffffffffffffffffff021916908373ffffffffffffffffffffffffffffffffffffffff160217905550611f1b8061005d5f395ff3fe608060405234801561000f575f80fd5b50600436106100e8575f3560e01c80635daf08ca1161008a5780639f2524ee116100645780639f2524ee14610248578063a230c52414610278578063a313c371146102a8578063ca6d56dc146102da576100e8565b80635daf08ca146101de5780636d6be0e01461020e5780638da5cb5b1461022a576100e8565b806318160ddd116100c657806318160ddd1461015857806327e235e3146101765780633ab86904146101a657806349c2a1a6146101c2576100e8565b8063013cf08b146100ec5780630b1ca49a146101205780630d61b5191461013c575b5f80fd5b610106600480360381019061010191906113d8565b6102f6565b6040516101179594939291906114b6565b60405180910390f35b61013a60048036038101906101359190611568565b6103c9565b005b610156600480360381019061015191906113d8565b610748565b005b610160610881565b60405161016d9190611593565b60405180910390f35b610190600480360381019061018b9190611568565b610887565b60405161019d9190611593565b60405180910390f35b6101c060048036038101906101bb91906115ac565b61089c565b005b6101dc60048036038101906101d79190611716565b610bc9565b005b6101f860048036038101906101f391906113d8565b610cb9565b604051610205919061176c565b60405180910390f35b610228600480360381019061022391906115ac565b610cf3565b005b610232611020565b60405161023f919061176c565b60405180910390f35b610262600480360381019061025d9190611785565b611045565b60405161026f91906117c3565b60405180910390f35b610292600480360381019061028d9190611568565b61106f565b60405161029f91906117c3565b60405180910390f35b6102c260048036038101906102bd9190611568565b61108c565b6040516102d1939291906117dc565b60405180910390f35b6102f460048036038101906102ef9190611568565b6110d1565b005b60048181548110610305575f80fd5b905f5260205f2090600502015f91509050805f0180546103249061183e565b80601f01602080910402602001604051908101604052809291908181526020018280546103509061183e565b801561039b5780601f106103725761010080835404028352916020019161039b565b820191905f5260205f20905b81548152906001019060200180831161037e57829003601f168201915b505050505090806001015490806002015490806003015490806004015f9054906101000a900460ff16905085565b6001151560015f8373ffffffffffffffffffffffffffffffffffffffff1673ffffffffffffffffffffffffffffffffffffffff1681526020019081526020015f205f9054906101000a900460ff16151514610459576040517f08c379a0000000000000000000000000000000000000000000000000000000008152600401610450906118b8565b60405180910390fd5b60405180606001604052805f73ffffffffffffffffffffffffffffffffffffffff1681526020015f81526020015f81525060025f8373ffffffffffffffffffffffffffffffffffffffff1673ffffffffffffffffffffffffffffffffffffffff1681526020019081526020015f205f820151815f015f6101000a81548173ffffffffffffffffffffffffffffffffffffffff021916908373ffffffffffffffffffffffffffffffffffffffff16021790555060208201518160010155604082015181600201559050505f5b5f80549050811015610695578173ffffffffffffffffffffffffffffffffffffffff165f828154811061055a576105596118d6565b5b905f5260205f20015f9054906101000a900473ffffffffffffffffffffffffffffffffffffffff1673ffffffffffffffffffffffffffffffffffffffff1603610688575f60015f805490506105af9190611930565b815481106105c0576105bf6118d6565b5b905f5260205f20015f9054906101000a900473ffffffffffffffffffffffffffffffffffffffff165f82815481106105fb576105fa6118d6565b5b905f5260205f20015f6101000a81548173ffffffffffffffffffffffffffffffffffffffff021916908373ffffffffffffffffffffffffffffffffffffffff1602179055505f80548061065157610650611963565b5b600190038181905f5260205f20015f6101000a81549073ffffffffffffffffffffffffffffffffffffffff02191690559055610695565b8080600101915050610524565b505f60015f8373ffffffffffffffffffffffffffffffffffffffff1673ffffffffffffffffffffffffffffffffffffffff1681526020019081526020015f205f6101000a81548160ff0219169083151502179055505f60065f8373ffffffffffffffffffffffffffffffffffffffff1673ffffffffffffffffffffffffffffffffffffffff1681526020019081526020015f2081905550606460055f82825461073e9190611930565b9250508190555050565b5f15156004828154811061075f5761075e6118d6565b5b905f5260205f2090600502016004015f9054906101000a900460ff161515146107bd576040517f08c379a00000000000000000000000000000000000000000000000000000000081526004016107b490611a00565b60405180910390fd5b600481815481106107d1576107d06118d6565b5b905f5260205f20906005020160030154600482815481106107f5576107f46118d6565b5b905f5260205f209060050201600201541161080e575f80fd5b600160048281548110610824576108236118d6565b5b905f5260205f2090600502016004015f6101000a81548160ff0219169083151502179055507f5fee5f0f4677bb6b478e6288c343995c7e31bbec0987f077b0d1594c4861c28960405161087690611a68565b60405180910390a150565b60055481565b6006602052805f5260405f205f915090505481565b6001151560015f3373ffffffffffffffffffffffffffffffffffffffff1673ffffffffffffffffffffffffffffffffffffffff1681526020019081526020015f205f9054906101000a900460ff1615151461092c576040517f08c379a000000000000000000000000000000000000000000000000000000000815260040161092390611ad0565b60405180910390fd5b8060065f3373ffffffffffffffffffffffffffffffffffffffff1673ffffffffffffffffffffffffffffffffffffffff1681526020019081526020015f205410156109ac576040517f08c379a00000000000000000000000000000000000000000000000000000000081526004016109a390611b38565b60405180910390fd5b5f151560035f3373ffffffffffffffffffffffffffffffffffffffff1673ffffffffffffffffffffffffffffffffffffffff1681526020019081526020015f205f8481526020019081526020015f205f9054906101000a900460ff16151514610a4a576040517f08c379a0000000000000000000000000000000000000000000000000000000008152600401610a4190611ba0565b60405180910390fd5b600160035f3373ffffffffffffffffffffffffffffffffffffffff1673ffffffffffffffffffffffffffffffffffffffff1681526020019081526020015f205f8481526020019081526020015f205f6101000a81548160ff0219169083151502179055508060025f3373ffffffffffffffffffffffffffffffffffffffff1673ffffffffffffffffffffffffffffffffffffffff1681526020019081526020015f206002015f828254610afd9190611930565b925050819055508060048381548110610b1957610b186118d6565b5b905f5260205f2090600502016001015f828254610b369190611bbe565b925050819055508060048381548110610b5257610b516118d6565b5b905f5260205f2090600502016002015f828254610b6f9190611bbe565b92505081905550813373ffffffffffffffffffffffffffffffffffffffff167f3380729ed0962b6604f46f1805714f3e4301a891533dd1dc8394c59f5c7921ec83604051610bbd9190611593565b60405180910390a35050565b60046040518060a001604052808381526020015f81526020015f81526020015f81526020015f1515815250908060018154018082558091505060019003905f5260205f2090600502015f909190919091505f820151815f019081610c2d9190611d8e565b506020820151816001015560408201518160020155606082015181600301556080820151816004015f6101000a81548160ff02191690831515021790555050506001600480549050610c7f9190611930565b7f224bdf126f8278f806ff6df5fa55141664543f82b918e5b6695864d1c6d4bbed82604051610cae9190611e5d565b60405180910390a250565b5f8181548110610cc7575f80fd5b905f5260205f20015f915054906101000a900473ffffffffffffffffffffffffffffffffffffffff1681565b6001151560015f3373ffffffffffffffffffffffffffffffffffffffff1673ffffffffffffffffffffffffffffffffffffffff1681526020019081526020015f205f9054906101000a900460ff16151514610d83576040517f08c379a0000000000000000000000000000000000000000000000000000000008152600401610d7a90611ad0565b60405180910390fd5b8060065f3373ffffffffffffffffffffffffffffffffffffffff1673ffffffffffffffffffffffffffffffffffffffff1681526020019081526020015f20541015610e03576040517f08c379a0000000000000000000000000000000000000000000000000000000008152600401610dfa90611b38565b60405180910390fd5b5f151560035f3373ffffffffffffffffffffffffffffffffffffffff1673ffffffffffffffffffffffffffffffffffffffff1681526020019081526020015f205f8481526020019081526020015f205f9054906101000a900460ff16151514610ea1576040517f08c379a0000000000000000000000000000000000000000000000000000000008152600401610e9890611ba0565b60405180910390fd5b600160035f3373ffffffffffffffffffffffffffffffffffffffff1673ffffffffffffffffffffffffffffffffffffffff1681526020019081526020015f205f8481526020019081526020015f205f6101000a81548160ff0219169083151502179055508060025f3373ffffffffffffffffffffffffffffffffffffffff1673ffffffffffffffffffffffffffffffffffffffff1681526020019081526020015f206002015f828254610f549190611930565b925050819055508060048381548110610f7057610f6f6118d6565b5b905f5260205f2090600502016001015f828254610f8d9190611bbe565b925050819055508060048381548110610fa957610fa86118d6565b5b905f5260205f2090600502016003015f828254610fc69190611bbe565b92505081905550813373ffffffffffffffffffffffffffffffffffffffff167f3380729ed0962b6604f46f1805714f3e4301a891533dd1dc8394c59f5c7921ec836040516110149190611593565b60405180910390a35050565b60075f9054906101000a900473ffffffffffffffffffffffffffffffffffffffff1681565b6003602052815f5260405f20602052805f5260405f205f915091509054906101000a900460ff1681565b6001602052805f5260405f205f915054906101000a900460ff1681565b6002602052805f5260405f205f91509050805f015f9054906101000a900473ffffffffffffffffffffffffffffffffffffffff16908060010154908060020154905083565b60075f9054906101000a900473ffffffffffffffffffffffffffffffffffffffff1673ffffffffffffffffffffffffffffffffffffffff163373ffffffffffffffffffffffffffffffffffffffff1614611129575f80fd5b5f151560015f8373ffffffffffffffffffffffffffffffffffffffff1673ffffffffffffffffffffffffffffffffffffffff1681526020019081526020015f205f9054906101000a900460ff161515146111b8576040517f08c379a00000000000000000000000000000000000000000000000000000000081526004016111af90611ec7565b60405180910390fd5b60405180606001604052808273ffffffffffffffffffffffffffffffffffffffff168152602001428152602001606481525060025f8373ffffffffffffffffffffffffffffffffffffffff1673ffffffffffffffffffffffffffffffffffffffff1681526020019081526020015f205f820151815f015f6101000a81548173ffffffffffffffffffffffffffffffffffffffff021916908373ffffffffffffffffffffffffffffffffffffffff16021790555060208201518160010155604082015181600201559050505f81908060018154018082558091505060019003905f5260205f20015f9091909190916101000a81548173ffffffffffffffffffffffffffffffffffffffff021916908373ffffffffffffffffffffffffffffffffffffffff1602179055506001805f8373ffffffffffffffffffffffffffffffffffffffff1673ffffffffffffffffffffffffffffffffffffffff1681526020019081526020015f205f6101000a81548160ff021916908315150217905550606460065f8373ffffffffffffffffffffffffffffffffffffffff1673ffffffffffffffffffffffffffffffffffffffff1681526020019081526020015f2081905550606460055f82825461138a9190611bbe565b9250508190555050565b5f604051905090565b5f80fd5b5f80fd5b5f819050919050565b6113b7816113a5565b81146113c1575f80fd5b50565b5f813590506113d2816113ae565b92915050565b5f602082840312156113ed576113ec61139d565b5b5f6113fa848285016113c4565b91505092915050565b5f81519050919050565b5f82825260208201905092915050565b5f5b8381101561143a57808201518184015260208101905061141f565b5f8484015250505050565b5f601f19601f8301169050919050565b5f61145f82611403565b611469818561140d565b935061147981856020860161141d565b61148281611445565b840191505092915050565b611496816113a5565b82525050565b5f8115159050919050565b6114b08161149c565b82525050565b5f60a0820190508181035f8301526114ce8188611455565b90506114dd602083018761148d565b6114ea604083018661148d565b6114f7606083018561148d565b61150460808301846114a7565b9695505050505050565b5f73ffffffffffffffffffffffffffffffffffffffff82169050919050565b5f6115378261150e565b9050919050565b6115478161152d565b8114611551575f80fd5b50565b5f813590506115628161153e565b92915050565b5f6020828403121561157d5761157c61139d565b5b5f61158a84828501611554565b91505092915050565b5f6020820190506115a65f83018461148d565b92915050565b5f80604083850312156115c2576115c161139d565b5b5f6115cf858286016113c4565b92505060206115e0858286016113c4565b9150509250929050565b5f80fd5b5f80fd5b7f4e487b71000000000000000000000000000000000000000000000000000000005f52604160045260245ffd5b61162882611445565b810181811067ffffffffffffffff82111715611647576116466115f2565b5b80604052505050565b5f611659611394565b9050611665828261161f565b919050565b5f67ffffffffffffffff821115611684576116836115f2565b5b61168d82611445565b9050602081019050919050565b828183375f83830152505050565b5f6116ba6116b58461166a565b611650565b9050828152602081018484840111156116d6576116d56115ee565b5b6116e184828561169a565b509392505050565b5f82601f8301126116fd576116fc6115ea565b5b813561170d8482602086016116a8565b91505092915050565b5f6020828403121561172b5761172a61139d565b5b5f82013567ffffffffffffffff811115611748576117476113a1565b5b611754848285016116e9565b91505092915050565b6117668161152d565b82525050565b5f60208201905061177f5f83018461175d565b92915050565b5f806040838503121561179b5761179a61139d565b5b5f6117a885828601611554565b92505060206117b9858286016113c4565b9150509250929050565b5f6020820190506117d65f8301846114a7565b92915050565b5f6060820190506117ef5f83018661175d565b6117fc602083018561148d565b611809604083018461148d565b949350505050565b7f4e487b71000000000000000000000000000000000000000000000000000000005f52602260045260245ffd5b5f600282049050600182168061185557607f821691505b60208210810361186857611867611811565b5b50919050565b7f4d656d62657220646f6573206e6f7420657869737400000000000000000000005f82015250565b5f6118a260158361140d565b91506118ad8261186e565b602082019050919050565b5f6020820190508181035f8301526118cf81611896565b9050919050565b7f4e487b71000000000000000000000000000000000000000000000000000000005f52603260045260245ffd5b7f4e487b71000000000000000000000000000000000000000000000000000000005f52601160045260245ffd5b5f61193a826113a5565b9150611945836113a5565b925082820390508181111561195d5761195c611903565b5b92915050565b7f4e487b71000000000000000000000000000000000000000000000000000000005f52603160045260245ffd5b7f50726f706f73616c2068617320616c7265616479206265656e206578656375745f8201527f6564000000000000000000000000000000000000000000000000000000000000602082015250565b5f6119ea60228361140d565b91506119f582611990565b604082019050919050565b5f6020820190508181035f830152611a17816119de565b9050919050565b7f50726f706f73616c20686173206265656e20617070726f7665640000000000005f82015250565b5f611a52601a8361140d565b9150611a5d82611a1e565b602082019050919050565b5f6020820190508181035f830152611a7f81611a46565b9050919050565b7f596f75206861766520746f2062652061206d656d62657220746f20766f7465005f82015250565b5f611aba601f8361140d565b9150611ac582611a86565b602082019050919050565b5f6020820190508181035f830152611ae781611aae565b9050919050565b7f4e6f7420656e6f75676820746f6b656e7320746f20766f7465000000000000005f82015250565b5f611b2260198361140d565b9150611b2d82611aee565b602082019050919050565b5f6020820190508181035f830152611b4f81611b16565b9050919050565b7f596f75206861766520616c726561647920766f746564000000000000000000005f82015250565b5f611b8a60168361140d565b9150611b9582611b56565b602082019050919050565b5f6020820190508181035f830152611bb781611b7e565b9050919050565b5f611bc8826113a5565b9150611bd3836113a5565b9250828201905080821115611beb57611bea611903565b5b92915050565b5f819050815f5260205f209050919050565b5f6020601f8301049050919050565b5f82821b905092915050565b5f60088302611c4d7fffffffffffffffffffffffffffffffffffffffffffffffffffffffffffffffff82611c12565b611c578683611c12565b95508019841693508086168417925050509392505050565b5f819050919050565b5f611c92611c8d611c88846113a5565b611c6f565b6113a5565b9050919050565b5f819050919050565b611cab83611c78565b611cbf611cb782611c99565b848454611c1e565b825550505050565b5f90565b611cd3611cc7565b611cde818484611ca2565b505050565b5b81811015611d0157611cf65f82611ccb565b600181019050611ce4565b5050565b601f821115611d4657611d1781611bf1565b611d2084611c03565b81016020851015611d2f578190505b611d43611d3b85611c03565b830182611ce3565b50505b505050565b5f82821c905092915050565b5f611d665f1984600802611d4b565b1980831691505092915050565b5f611d7e8383611d57565b9150826002028217905092915050565b611d9782611403565b67ffffffffffffffff811115611db057611daf6115f2565b5b611dba825461183e565b611dc5828285611d05565b5f60209050601f831160018114611df6575f8415611de4578287015190505b611dee8582611d73565b865550611e55565b601f198416611e0486611bf1565b5f5b82811015611e2b57848901518255600182019150602085019450602081019050611e06565b86831015611e485784890151611e44601f891682611d57565b8355505b6001600288020188555050505b505050505050565b5f6020820190508181035f830152611e758184611455565b905092915050565b7f4d656d62657220616c72656164792065786973747300000000000000000000005f82015250565b5f611eb160158361140d565b9150611ebc82611e7d565b602082019050919050565b5f6020820190508181035f830152611ede81611ea5565b905091905056fea2646970667358221220c80c02c887ac3823df596e108e9ecb2b680810e43f2e9ae56c3d2b9dc5814cf264736f6c63430008160033",
					"opcodes": "PUSH1 0x80 PUSH1 0x40 MSTORE CALLVALUE DUP1 ISZERO PUSH2 0xF JUMPI PUSH0 DUP1 REVERT JUMPDEST POP CALLER PUSH1 0x7 PUSH0 PUSH2 0x100 EXP DUP2 SLOAD DUP2 PUSH20 0xFFFFFFFFFFFFFFFFFFFFFFFFFFFFFFFFFFFFFFFF MUL NOT AND SWAP1 DUP4 PUSH20 0xFFFFFFFFFFFFFFFFFFFFFFFFFFFFFFFFFFFFFFFF AND MUL OR SWAP1 SSTORE POP PUSH2 0x1F1B DUP1 PUSH2 0x5D PUSH0 CODECOPY PUSH0 RETURN INVALID PUSH1 0x80 PUSH1 0x40 MSTORE CALLVALUE DUP1 ISZERO PUSH2 0xF JUMPI PUSH0 DUP1 REVERT JUMPDEST POP PUSH1 0x4 CALLDATASIZE LT PUSH2 0xE8 JUMPI PUSH0 CALLDATALOAD PUSH1 0xE0 SHR DUP1 PUSH4 0x5DAF08CA GT PUSH2 0x8A JUMPI DUP1 PUSH4 0x9F2524EE GT PUSH2 0x64 JUMPI DUP1 PUSH4 0x9F2524EE EQ PUSH2 0x248 JUMPI DUP1 PUSH4 0xA230C524 EQ PUSH2 0x278 JUMPI DUP1 PUSH4 0xA313C371 EQ PUSH2 0x2A8 JUMPI DUP1 PUSH4 0xCA6D56DC EQ PUSH2 0x2DA JUMPI PUSH2 0xE8 JUMP JUMPDEST DUP1 PUSH4 0x5DAF08CA EQ PUSH2 0x1DE JUMPI DUP1 PUSH4 0x6D6BE0E0 EQ PUSH2 0x20E JUMPI DUP1 PUSH4 0x8DA5CB5B EQ PUSH2 0x22A JUMPI PUSH2 0xE8 JUMP JUMPDEST DUP1 PUSH4 0x18160DDD GT PUSH2 0xC6 JUMPI DUP1 PUSH4 0x18160DDD EQ PUSH2 0x158 JUMPI DUP1 PUSH4 0x27E235E3 EQ PUSH2 0x176 JUMPI DUP1 PUSH4 0x3AB86904 EQ PUSH2 0x1A6 JUMPI DUP1 PUSH4 0x49C2A1A6 EQ PUSH2 0x1C2 JUMPI PUSH2 0xE8 JUMP JUMPDEST DUP1 PUSH4 0x13CF08B EQ PUSH2 0xEC JUMPI DUP1 PUSH4 0xB1CA49A EQ PUSH2 0x120 JUMPI DUP1 PUSH4 0xD61B519 EQ PUSH2 0x13C JUMPI JUMPDEST PUSH0 DUP1 REVERT JUMPDEST PUSH2 0x106 PUSH1 0x4 DUP1 CALLDATASIZE SUB DUP2 ADD SWAP1 PUSH2 0x101 SWAP2 SWAP1 PUSH2 0x13D8 JUMP JUMPDEST PUSH2 0x2F6 JUMP JUMPDEST PUSH1 0x40 MLOAD PUSH2 0x117 SWAP6 SWAP5 SWAP4 SWAP3 SWAP2 SWAP1 PUSH2 0x14B6 JUMP JUMPDEST PUSH1 0x40 MLOAD DUP1 SWAP2 SUB SWAP1 RETURN JUMPDEST PUSH2 0x13A PUSH1 0x4 DUP1 CALLDATASIZE SUB DUP2 ADD SWAP1 PUSH2 0x135 SWAP2 SWAP1 PUSH2 0x1568 JUMP JUMPDEST PUSH2 0x3C9 JUMP JUMPDEST STOP JUMPDEST PUSH2 0x156 PUSH1 0x4 DUP1 CALLDATASIZE SUB DUP2 ADD SWAP1 PUSH2 0x151 SWAP2 SWAP1 PUSH2 0x13D8 JUMP JUMPDEST PUSH2 0x748 JUMP JUMPDEST STOP JUMPDEST PUSH2 0x160 PUSH2 0x881 JUMP JUMPDEST PUSH1 0x40 MLOAD PUSH2 0x16D SWAP2 SWAP1 PUSH2 0x1593 JUMP JUMPDEST PUSH1 0x40 MLOAD DUP1 SWAP2 SUB SWAP1 RETURN JUMPDEST PUSH2 0x190 PUSH1 0x4 DUP1 CALLDATASIZE SUB DUP2 ADD SWAP1 PUSH2 0x18B SWAP2 SWAP1 PUSH2 0x1568 JUMP JUMPDEST PUSH2 0x887 JUMP JUMPDEST PUSH1 0x40 MLOAD PUSH2 0x19D SWAP2 SWAP1 PUSH2 0x1593 JUMP JUMPDEST PUSH1 0x40 MLOAD DUP1 SWAP2 SUB SWAP1 RETURN JUMPDEST PUSH2 0x1C0 PUSH1 0x4 DUP1 CALLDATASIZE SUB DUP2 ADD SWAP1 PUSH2 0x1BB SWAP2 SWAP1 PUSH2 0x15AC JUMP JUMPDEST PUSH2 0x89C JUMP JUMPDEST STOP JUMPDEST PUSH2 0x1DC PUSH1 0x4 DUP1 CALLDATASIZE SUB DUP2 ADD SWAP1 PUSH2 0x1D7 SWAP2 SWAP1 PUSH2 0x1716 JUMP JUMPDEST PUSH2 0xBC9 JUMP JUMPDEST STOP JUMPDEST PUSH2 0x1F8 PUSH1 0x4 DUP1 CALLDATASIZE SUB DUP2 ADD SWAP1 PUSH2 0x1F3 SWAP2 SWAP1 PUSH2 0x13D8 JUMP JUMPDEST PUSH2 0xCB9 JUMP JUMPDEST PUSH1 0x40 MLOAD PUSH2 0x205 SWAP2 SWAP1 PUSH2 0x176C JUMP JUMPDEST PUSH1 0x40 MLOAD DUP1 SWAP2 SUB SWAP1 RETURN JUMPDEST PUSH2 0x228 PUSH1 0x4 DUP1 CALLDATASIZE SUB DUP2 ADD SWAP1 PUSH2 0x223 SWAP2 SWAP1 PUSH2 0x15AC JUMP JUMPDEST PUSH2 0xCF3 JUMP JUMPDEST STOP JUMPDEST PUSH2 0x232 PUSH2 0x1020 JUMP JUMPDEST PUSH1 0x40 MLOAD PUSH2 0x23F SWAP2 SWAP1 PUSH2 0x176C JUMP JUMPDEST PUSH1 0x40 MLOAD DUP1 SWAP2 SUB SWAP1 RETURN JUMPDEST PUSH2 0x262 PUSH1 0x4 DUP1 CALLDATASIZE SUB DUP2 ADD SWAP1 PUSH2 0x25D SWAP2 SWAP1 PUSH2 0x1785 JUMP JUMPDEST PUSH2 0x1045 JUMP JUMPDEST PUSH1 0x40 MLOAD PUSH2 0x26F SWAP2 SWAP1 PUSH2 0x17C3 JUMP JUMPDEST PUSH1 0x40 MLOAD DUP1 SWAP2 SUB SWAP1 RETURN JUMPDEST PUSH2 0x292 PUSH1 0x4 DUP1 CALLDATASIZE SUB DUP2 ADD SWAP1 PUSH2 0x28D SWAP2 SWAP1 PUSH2 0x1568 JUMP JUMPDEST PUSH2 0x106F JUMP JUMPDEST PUSH1 0x40 MLOAD PUSH2 0x29F SWAP2 SWAP1 PUSH2 0x17C3 JUMP JUMPDEST PUSH1 0x40 MLOAD DUP1 SWAP2 SUB SWAP1 RETURN JUMPDEST PUSH2 0x2C2 PUSH1 0x4 DUP1 CALLDATASIZE SUB DUP2 ADD SWAP1 PUSH2 0x2BD SWAP2 SWAP1 PUSH2 0x1568 JUMP JUMPDEST PUSH2 0x108C JUMP JUMPDEST PUSH1 0x40 MLOAD PUSH2 0x2D1 SWAP4 SWAP3 SWAP2 SWAP1 PUSH2 0x17DC JUMP JUMPDEST PUSH1 0x40 MLOAD DUP1 SWAP2 SUB SWAP1 RETURN JUMPDEST PUSH2 0x2F4 PUSH1 0x4 DUP1 CALLDATASIZE SUB DUP2 ADD SWAP1 PUSH2 0x2EF SWAP2 SWAP1 PUSH2 0x1568 JUMP JUMPDEST PUSH2 0x10D1 JUMP JUMPDEST STOP JUMPDEST PUSH1 0x4 DUP2 DUP2 SLOAD DUP2 LT PUSH2 0x305 JUMPI PUSH0 DUP1 REVERT JUMPDEST SWAP1 PUSH0 MSTORE PUSH1 0x20 PUSH0 KECCAK256 SWAP1 PUSH1 0x5 MUL ADD PUSH0 SWAP2 POP SWAP1 POP DUP1 PUSH0 ADD DUP1 SLOAD PUSH2 0x324 SWAP1 PUSH2 0x183E JUMP JUMPDEST DUP1 PUSH1 0x1F ADD PUSH1 0x20 DUP1 SWAP2 DIV MUL PUSH1 0x20 ADD PUSH1 0x40 MLOAD SWAP1 DUP2 ADD PUSH1 0x40 MSTORE DUP1 SWAP3 SWAP2 SWAP1 DUP2 DUP2 MSTORE PUSH1 0x20 ADD DUP3 DUP1 SLOAD PUSH2 0x350 SWAP1 PUSH2 0x183E JUMP JUMPDEST DUP1 ISZERO PUSH2 0x39B JUMPI DUP1 PUSH1 0x1F LT PUSH2 0x372 JUMPI PUSH2 0x100 DUP1 DUP4 SLOAD DIV MUL DUP4 MSTORE SWAP2 PUSH1 0x20 ADD SWAP2 PUSH2 0x39B JUMP JUMPDEST DUP3 ADD SWAP2 SWAP1 PUSH0 MSTORE PUSH1 0x20 PUSH0 KECCAK256 SWAP1 JUMPDEST DUP2 SLOAD DUP2 MSTORE SWAP1 PUSH1 0x1 ADD SWAP1 PUSH1 0x20 ADD DUP1 DUP4 GT PUSH2 0x37E JUMPI DUP3 SWAP1 SUB PUSH1 0x1F AND DUP3 ADD SWAP2 JUMPDEST POP POP POP POP POP SWAP1 DUP1 PUSH1 0x1 ADD SLOAD SWAP1 DUP1 PUSH1 0x2 ADD SLOAD SWAP1 DUP1 PUSH1 0x3 ADD SLOAD SWAP1 DUP1 PUSH1 0x4 ADD PUSH0 SWAP1 SLOAD SWAP1 PUSH2 0x100 EXP SWAP1 DIV PUSH1 0xFF AND SWAP1 POP DUP6 JUMP JUMPDEST PUSH1 0x1 ISZERO ISZERO PUSH1 0x1 PUSH0 DUP4 PUSH20 0xFFFFFFFFFFFFFFFFFFFFFFFFFFFFFFFFFFFFFFFF AND PUSH20 0xFFFFFFFFFFFFFFFFFFFFFFFFFFFFFFFFFFFFFFFF AND DUP2 MSTORE PUSH1 0x20 ADD SWAP1 DUP2 MSTORE PUSH1 0x20 ADD PUSH0 KECCAK256 PUSH0 SWAP1 SLOAD SWAP1 PUSH2 0x100 EXP SWAP1 DIV PUSH1 0xFF AND ISZERO ISZERO EQ PUSH2 0x459 JUMPI PUSH1 0x40 MLOAD PUSH32 0x8C379A000000000000000000000000000000000000000000000000000000000 DUP2 MSTORE PUSH1 0x4 ADD PUSH2 0x450 SWAP1 PUSH2 0x18B8 JUMP JUMPDEST PUSH1 0x40 MLOAD DUP1 SWAP2 SUB SWAP1 REVERT JUMPDEST PUSH1 0x40 MLOAD DUP1 PUSH1 0x60 ADD PUSH1 0x40 MSTORE DUP1 PUSH0 PUSH20 0xFFFFFFFFFFFFFFFFFFFFFFFFFFFFFFFFFFFFFFFF AND DUP2 MSTORE PUSH1 0x20 ADD PUSH0 DUP2 MSTORE PUSH1 0x20 ADD PUSH0 DUP2 MSTORE POP PUSH1 0x2 PUSH0 DUP4 PUSH20 0xFFFFFFFFFFFFFFFFFFFFFFFFFFFFFFFFFFFFFFFF AND PUSH20 0xFFFFFFFFFFFFFFFFFFFFFFFFFFFFFFFFFFFFFFFF AND DUP2 MSTORE PUSH1 0x20 ADD SWAP1 DUP2 MSTORE PUSH1 0x20 ADD PUSH0 KECCAK256 PUSH0 DUP3 ADD MLOAD DUP2 PUSH0 ADD PUSH0 PUSH2 0x100 EXP DUP2 SLOAD DUP2 PUSH20 0xFFFFFFFFFFFFFFFFFFFFFFFFFFFFFFFFFFFFFFFF MUL NOT AND SWAP1 DUP4 PUSH20 0xFFFFFFFFFFFFFFFFFFFFFFFFFFFFFFFFFFFFFFFF AND MUL OR SWAP1 SSTORE POP PUSH1 0x20 DUP3 ADD MLOAD DUP2 PUSH1 0x1 ADD SSTORE PUSH1 0x40 DUP3 ADD MLOAD DUP2 PUSH1 0x2 ADD SSTORE SWAP1 POP POP PUSH0 JUMPDEST PUSH0 DUP1 SLOAD SWAP1 POP DUP2 LT ISZERO PUSH2 0x695 JUMPI DUP2 PUSH20 0xFFFFFFFFFFFFFFFFFFFFFFFFFFFFFFFFFFFFFFFF AND PUSH0 DUP3 DUP2 SLOAD DUP2 LT PUSH2 0x55A JUMPI PUSH2 0x559 PUSH2 0x18D6 JUMP JUMPDEST JUMPDEST SWAP1 PUSH0 MSTORE PUSH1 0x20 PUSH0 KECCAK256 ADD PUSH0 SWAP1 SLOAD SWAP1 PUSH2 0x100 EXP SWAP1 DIV PUSH20 0xFFFFFFFFFFFFFFFFFFFFFFFFFFFFFFFFFFFFFFFF AND PUSH20 0xFFFFFFFFFFFFFFFFFFFFFFFFFFFFFFFFFFFFFFFF AND SUB PUSH2 0x688 JUMPI PUSH0 PUSH1 0x1 PUSH0 DUP1 SLOAD SWAP1 POP PUSH2 0x5AF SWAP2 SWAP1 PUSH2 0x1930 JUMP JUMPDEST DUP2 SLOAD DUP2 LT PUSH2 0x5C0 JUMPI PUSH2 0x5BF PUSH2 0x18D6 JUMP JUMPDEST JUMPDEST SWAP1 PUSH0 MSTORE PUSH1 0x20 PUSH0 KECCAK256 ADD PUSH0 SWAP1 SLOAD SWAP1 PUSH2 0x100 EXP SWAP1 DIV PUSH20 0xFFFFFFFFFFFFFFFFFFFFFFFFFFFFFFFFFFFFFFFF AND PUSH0 DUP3 DUP2 SLOAD DUP2 LT PUSH2 0x5FB JUMPI PUSH2 0x5FA PUSH2 0x18D6 JUMP JUMPDEST JUMPDEST SWAP1 PUSH0 MSTORE PUSH1 0x20 PUSH0 KECCAK256 ADD PUSH0 PUSH2 0x100 EXP DUP2 SLOAD DUP2 PUSH20 0xFFFFFFFFFFFFFFFFFFFFFFFFFFFFFFFFFFFFFFFF MUL NOT AND SWAP1 DUP4 PUSH20 0xFFFFFFFFFFFFFFFFFFFFFFFFFFFFFFFFFFFFFFFF AND MUL OR SWAP1 SSTORE POP PUSH0 DUP1 SLOAD DUP1 PUSH2 0x651 JUMPI PUSH2 0x650 PUSH2 0x1963 JUMP JUMPDEST JUMPDEST PUSH1 0x1 SWAP1 SUB DUP2 DUP2 SWAP1 PUSH0 MSTORE PUSH1 0x20 PUSH0 KECCAK256 ADD PUSH0 PUSH2 0x100 EXP DUP2 SLOAD SWAP1 PUSH20 0xFFFFFFFFFFFFFFFFFFFFFFFFFFFFFFFFFFFFFFFF MUL NOT AND SWAP1 SSTORE SWAP1 SSTORE PUSH2 0x695 JUMP JUMPDEST DUP1 DUP1 PUSH1 0x1 ADD SWAP2 POP POP PUSH2 0x524 JUMP JUMPDEST POP PUSH0 PUSH1 0x1 PUSH0 DUP4 PUSH20 0xFFFFFFFFFFFFFFFFFFFFFFFFFFFFFFFFFFFFFFFF AND PUSH20 0xFFFFFFFFFFFFFFFFFFFFFFFFFFFFFFFFFFFFFFFF AND DUP2 MSTORE PUSH1 0x20 ADD SWAP1 DUP2 MSTORE PUSH1 0x20 ADD PUSH0 KECCAK256 PUSH0 PUSH2 0x100 EXP DUP2 SLOAD DUP2 PUSH1 0xFF MUL NOT AND SWAP1 DUP4 ISZERO ISZERO MUL OR SWAP1 SSTORE POP PUSH0 PUSH1 0x6 PUSH0 DUP4 PUSH20 0xFFFFFFFFFFFFFFFFFFFFFFFFFFFFFFFFFFFFFFFF AND PUSH20 0xFFFFFFFFFFFFFFFFFFFFFFFFFFFFFFFFFFFFFFFF AND DUP2 MSTORE PUSH1 0x20 ADD SWAP1 DUP2 MSTORE PUSH1 0x20 ADD PUSH0 KECCAK256 DUP2 SWAP1 SSTORE POP PUSH1 0x64 PUSH1 0x5 PUSH0 DUP3 DUP3 SLOAD PUSH2 0x73E SWAP2 SWAP1 PUSH2 0x1930 JUMP JUMPDEST SWAP3 POP POP DUP2 SWAP1 SSTORE POP POP JUMP JUMPDEST PUSH0 ISZERO ISZERO PUSH1 0x4 DUP3 DUP2 SLOAD DUP2 LT PUSH2 0x75F JUMPI PUSH2 0x75E PUSH2 0x18D6 JUMP JUMPDEST JUMPDEST SWAP1 PUSH0 MSTORE PUSH1 0x20 PUSH0 KECCAK256 SWAP1 PUSH1 0x5 MUL ADD PUSH1 0x4 ADD PUSH0 SWAP1 SLOAD SWAP1 PUSH2 0x100 EXP SWAP1 DIV PUSH1 0xFF AND ISZERO ISZERO EQ PUSH2 0x7BD JUMPI PUSH1 0x40 MLOAD PUSH32 0x8C379A000000000000000000000000000000000000000000000000000000000 DUP2 MSTORE PUSH1 0x4 ADD PUSH2 0x7B4 SWAP1 PUSH2 0x1A00 JUMP JUMPDEST PUSH1 0x40 MLOAD DUP1 SWAP2 SUB SWAP1 REVERT JUMPDEST PUSH1 0x4 DUP2 DUP2 SLOAD DUP2 LT PUSH2 0x7D1 JUMPI PUSH2 0x7D0 PUSH2 0x18D6 JUMP JUMPDEST JUMPDEST SWAP1 PUSH0 MSTORE PUSH1 0x20 PUSH0 KECCAK256 SWAP1 PUSH1 0x5 MUL ADD PUSH1 0x3 ADD SLOAD PUSH1 0x4 DUP3 DUP2 SLOAD DUP2 LT PUSH2 0x7F5 JUMPI PUSH2 0x7F4 PUSH2 0x18D6 JUMP JUMPDEST JUMPDEST SWAP1 PUSH0 MSTORE PUSH1 0x20 PUSH0 KECCAK256 SWAP1 PUSH1 0x5 MUL ADD PUSH1 0x2 ADD SLOAD GT PUSH2 0x80E JUMPI PUSH0 DUP1 REVERT JUMPDEST PUSH1 0x1 PUSH1 0x4 DUP3 DUP2 SLOAD DUP2 LT PUSH2 0x824 JUMPI PUSH2 0x823 PUSH2 0x18D6 JUMP JUMPDEST JUMPDEST SWAP1 PUSH0 MSTORE PUSH1 0x20 PUSH0 KECCAK256 SWAP1 PUSH1 0x5 MUL ADD PUSH1 0x4 ADD PUSH0 PUSH2 0x100 EXP DUP2 SLOAD DUP2 PUSH1 0xFF MUL NOT AND SWAP1 DUP4 ISZERO ISZERO MUL OR SWAP1 SSTORE POP PUSH32 0x5FEE5F0F4677BB6B478E6288C343995C7E31BBEC0987F077B0D1594C4861C289 PUSH1 0x40 MLOAD PUSH2 0x876 SWAP1 PUSH2 0x1A68 JUMP JUMPDEST PUSH1 0x40 MLOAD DUP1 SWAP2 SUB SWAP1 LOG1 POP JUMP JUMPDEST PUSH1 0x5 SLOAD DUP2 JUMP JUMPDEST PUSH1 0x6 PUSH1 0x20 MSTORE DUP1 PUSH0 MSTORE PUSH1 0x40 PUSH0 KECCAK256 PUSH0 SWAP2 POP SWAP1 POP SLOAD DUP2 JUMP JUMPDEST PUSH1 0x1 ISZERO ISZERO PUSH1 0x1 PUSH0 CALLER PUSH20 0xFFFFFFFFFFFFFFFFFFFFFFFFFFFFFFFFFFFFFFFF AND PUSH20 0xFFFFFFFFFFFFFFFFFFFFFFFFFFFFFFFFFFFFFFFF AND DUP2 MSTORE PUSH1 0x20 ADD SWAP1 DUP2 MSTORE PUSH1 0x20 ADD PUSH0 KECCAK256 PUSH0 SWAP1 SLOAD SWAP1 PUSH2 0x100 EXP SWAP1 DIV PUSH1 0xFF AND ISZERO ISZERO EQ PUSH2 0x92C JUMPI PUSH1 0x40 MLOAD PUSH32 0x8C379A000000000000000000000000000000000000000000000000000000000 DUP2 MSTORE PUSH1 0x4 ADD PUSH2 0x923 SWAP1 PUSH2 0x1AD0 JUMP JUMPDEST PUSH1 0x40 MLOAD DUP1 SWAP2 SUB SWAP1 REVERT JUMPDEST DUP1 PUSH1 0x6 PUSH0 CALLER PUSH20 0xFFFFFFFFFFFFFFFFFFFFFFFFFFFFFFFFFFFFFFFF AND PUSH20 0xFFFFFFFFFFFFFFFFFFFFFFFFFFFFFFFFFFFFFFFF AND DUP2 MSTORE PUSH1 0x20 ADD SWAP1 DUP2 MSTORE PUSH1 0x20 ADD PUSH0 KECCAK256 SLOAD LT ISZERO PUSH2 0x9AC JUMPI PUSH1 0x40 MLOAD PUSH32 0x8C379A000000000000000000000000000000000000000000000000000000000 DUP2 MSTORE PUSH1 0x4 ADD PUSH2 0x9A3 SWAP1 PUSH2 0x1B38 JUMP JUMPDEST PUSH1 0x40 MLOAD DUP1 SWAP2 SUB SWAP1 REVERT JUMPDEST PUSH0 ISZERO ISZERO PUSH1 0x3 PUSH0 CALLER PUSH20 0xFFFFFFFFFFFFFFFFFFFFFFFFFFFFFFFFFFFFFFFF AND PUSH20 0xFFFFFFFFFFFFFFFFFFFFFFFFFFFFFFFFFFFFFFFF AND DUP2 MSTORE PUSH1 0x20 ADD SWAP1 DUP2 MSTORE PUSH1 0x20 ADD PUSH0 KECCAK256 PUSH0 DUP5 DUP2 MSTORE PUSH1 0x20 ADD SWAP1 DUP2 MSTORE PUSH1 0x20 ADD PUSH0 KECCAK256 PUSH0 SWAP1 SLOAD SWAP1 PUSH2 0x100 EXP SWAP1 DIV PUSH1 0xFF AND ISZERO ISZERO EQ PUSH2 0xA4A JUMPI PUSH1 0x40 MLOAD PUSH32 0x8C379A000000000000000000000000000000000000000000000000000000000 DUP2 MSTORE PUSH1 0x4 ADD PUSH2 0xA41 SWAP1 PUSH2 0x1BA0 JUMP JUMPDEST PUSH1 0x40 MLOAD DUP1 SWAP2 SUB SWAP1 REVERT JUMPDEST PUSH1 0x1 PUSH1 0x3 PUSH0 CALLER PUSH20 0xFFFFFFFFFFFFFFFFFFFFFFFFFFFFFFFFFFFFFFFF AND PUSH20 0xFFFFFFFFFFFFFFFFFFFFFFFFFFFFFFFFFFFFFFFF AND DUP2 MSTORE PUSH1 0x20 ADD SWAP1 DUP2 MSTORE PUSH1 0x20 ADD PUSH0 KECCAK256 PUSH0 DUP5 DUP2 MSTORE PUSH1 0x20 ADD SWAP1 DUP2 MSTORE PUSH1 0x20 ADD PUSH0 KECCAK256 PUSH0 PUSH2 0x100 EXP DUP2 SLOAD DUP2 PUSH1 0xFF MUL NOT AND SWAP1 DUP4 ISZERO ISZERO MUL OR SWAP1 SSTORE POP DUP1 PUSH1 0x2 PUSH0 CALLER PUSH20 0xFFFFFFFFFFFFFFFFFFFFFFFFFFFFFFFFFFFFFFFF AND PUSH20 0xFFFFFFFFFFFFFFFFFFFFFFFFFFFFFFFFFFFFFFFF AND DUP2 MSTORE PUSH1 0x20 ADD SWAP1 DUP2 MSTORE PUSH1 0x20 ADD PUSH0 KECCAK256 PUSH1 0x2 ADD PUSH0 DUP3 DUP3 SLOAD PUSH2 0xAFD SWAP2 SWAP1 PUSH2 0x1930 JUMP JUMPDEST SWAP3 POP POP DUP2 SWAP1 SSTORE POP DUP1 PUSH1 0x4 DUP4 DUP2 SLOAD DUP2 LT PUSH2 0xB19 JUMPI PUSH2 0xB18 PUSH2 0x18D6 JUMP JUMPDEST JUMPDEST SWAP1 PUSH0 MSTORE PUSH1 0x20 PUSH0 KECCAK256 SWAP1 PUSH1 0x5 MUL ADD PUSH1 0x1 ADD PUSH0 DUP3 DUP3 SLOAD PUSH2 0xB36 SWAP2 SWAP1 PUSH2 0x1BBE JUMP JUMPDEST SWAP3 POP POP DUP2 SWAP1 SSTORE POP DUP1 PUSH1 0x4 DUP4 DUP2 SLOAD DUP2 LT PUSH2 0xB52 JUMPI PUSH2 0xB51 PUSH2 0x18D6 JUMP JUMPDEST JUMPDEST SWAP1 PUSH0 MSTORE PUSH1 0x20 PUSH0 KECCAK256 SWAP1 PUSH1 0x5 MUL ADD PUSH1 0x2 ADD PUSH0 DUP3 DUP3 SLOAD PUSH2 0xB6F SWAP2 SWAP1 PUSH2 0x1BBE JUMP JUMPDEST SWAP3 POP POP DUP2 SWAP1 SSTORE POP DUP2 CALLER PUSH20 0xFFFFFFFFFFFFFFFFFFFFFFFFFFFFFFFFFFFFFFFF AND PUSH32 0x3380729ED0962B6604F46F1805714F3E4301A891533DD1DC8394C59F5C7921EC DUP4 PUSH1 0x40 MLOAD PUSH2 0xBBD SWAP2 SWAP1 PUSH2 0x1593 JUMP JUMPDEST PUSH1 0x40 MLOAD DUP1 SWAP2 SUB SWAP1 LOG3 POP POP JUMP JUMPDEST PUSH1 0x4 PUSH1 0x40 MLOAD DUP1 PUSH1 0xA0 ADD PUSH1 0x40 MSTORE DUP1 DUP4 DUP2 MSTORE PUSH1 0x20 ADD PUSH0 DUP2 MSTORE PUSH1 0x20 ADD PUSH0 DUP2 MSTORE PUSH1 0x20 ADD PUSH0 DUP2 MSTORE PUSH1 0x20 ADD PUSH0 ISZERO ISZERO DUP2 MSTORE POP SWAP1 DUP1 PUSH1 0x1 DUP2 SLOAD ADD DUP1 DUP3 SSTORE DUP1 SWAP2 POP POP PUSH1 0x1 SWAP1 SUB SWAP1 PUSH0 MSTORE PUSH1 0x20 PUSH0 KECCAK256 SWAP1 PUSH1 0x5 MUL ADD PUSH0 SWAP1 SWAP2 SWAP1 SWAP2 SWAP1 SWAP2 POP PUSH0 DUP3 ADD MLOAD DUP2 PUSH0 ADD SWAP1 DUP2 PUSH2 0xC2D SWAP2 SWAP1 PUSH2 0x1D8E JUMP JUMPDEST POP PUSH1 0x20 DUP3 ADD MLOAD DUP2 PUSH1 0x1 ADD SSTORE PUSH1 0x40 DUP3 ADD MLOAD DUP2 PUSH1 0x2 ADD SSTORE PUSH1 0x60 DUP3 ADD MLOAD DUP2 PUSH1 0x3 ADD SSTORE PUSH1 0x80 DUP3 ADD MLOAD DUP2 PUSH1 0x4 ADD PUSH0 PUSH2 0x100 EXP DUP2 SLOAD DUP2 PUSH1 0xFF MUL NOT AND SWAP1 DUP4 ISZERO ISZERO MUL OR SWAP1 SSTORE POP POP POP PUSH1 0x1 PUSH1 0x4 DUP1 SLOAD SWAP1 POP PUSH2 0xC7F SWAP2 SWAP1 PUSH2 0x1930 JUMP JUMPDEST PUSH32 0x224BDF126F8278F806FF6DF5FA55141664543F82B918E5B6695864D1C6D4BBED DUP3 PUSH1 0x40 MLOAD PUSH2 0xCAE SWAP2 SWAP1 PUSH2 0x1E5D JUMP JUMPDEST PUSH1 0x40 MLOAD DUP1 SWAP2 SUB SWAP1 LOG2 POP JUMP JUMPDEST PUSH0 DUP2 DUP2 SLOAD DUP2 LT PUSH2 0xCC7 JUMPI PUSH0 DUP1 REVERT JUMPDEST SWAP1 PUSH0 MSTORE PUSH1 0x20 PUSH0 KECCAK256 ADD PUSH0 SWAP2 POP SLOAD SWAP1 PUSH2 0x100 EXP SWAP1 DIV PUSH20 0xFFFFFFFFFFFFFFFFFFFFFFFFFFFFFFFFFFFFFFFF AND DUP2 JUMP JUMPDEST PUSH1 0x1 ISZERO ISZERO PUSH1 0x1 PUSH0 CALLER PUSH20 0xFFFFFFFFFFFFFFFFFFFFFFFFFFFFFFFFFFFFFFFF AND PUSH20 0xFFFFFFFFFFFFFFFFFFFFFFFFFFFFFFFFFFFFFFFF AND DUP2 MSTORE PUSH1 0x20 ADD SWAP1 DUP2 MSTORE PUSH1 0x20 ADD PUSH0 KECCAK256 PUSH0 SWAP1 SLOAD SWAP1 PUSH2 0x100 EXP SWAP1 DIV PUSH1 0xFF AND ISZERO ISZERO EQ PUSH2 0xD83 JUMPI PUSH1 0x40 MLOAD PUSH32 0x8C379A000000000000000000000000000000000000000000000000000000000 DUP2 MSTORE PUSH1 0x4 ADD PUSH2 0xD7A SWAP1 PUSH2 0x1AD0 JUMP JUMPDEST PUSH1 0x40 MLOAD DUP1 SWAP2 SUB SWAP1 REVERT JUMPDEST DUP1 PUSH1 0x6 PUSH0 CALLER PUSH20 0xFFFFFFFFFFFFFFFFFFFFFFFFFFFFFFFFFFFFFFFF AND PUSH20 0xFFFFFFFFFFFFFFFFFFFFFFFFFFFFFFFFFFFFFFFF AND DUP2 MSTORE PUSH1 0x20 ADD SWAP1 DUP2 MSTORE PUSH1 0x20 ADD PUSH0 KECCAK256 SLOAD LT ISZERO PUSH2 0xE03 JUMPI PUSH1 0x40 MLOAD PUSH32 0x8C379A000000000000000000000000000000000000000000000000000000000 DUP2 MSTORE PUSH1 0x4 ADD PUSH2 0xDFA SWAP1 PUSH2 0x1B38 JUMP JUMPDEST PUSH1 0x40 MLOAD DUP1 SWAP2 SUB SWAP1 REVERT JUMPDEST PUSH0 ISZERO ISZERO PUSH1 0x3 PUSH0 CALLER PUSH20 0xFFFFFFFFFFFFFFFFFFFFFFFFFFFFFFFFFFFFFFFF AND PUSH20 0xFFFFFFFFFFFFFFFFFFFFFFFFFFFFFFFFFFFFFFFF AND DUP2 MSTORE PUSH1 0x20 ADD SWAP1 DUP2 MSTORE PUSH1 0x20 ADD PUSH0 KECCAK256 PUSH0 DUP5 DUP2 MSTORE PUSH1 0x20 ADD SWAP1 DUP2 MSTORE PUSH1 0x20 ADD PUSH0 KECCAK256 PUSH0 SWAP1 SLOAD SWAP1 PUSH2 0x100 EXP SWAP1 DIV PUSH1 0xFF AND ISZERO ISZERO EQ PUSH2 0xEA1 JUMPI PUSH1 0x40 MLOAD PUSH32 0x8C379A000000000000000000000000000000000000000000000000000000000 DUP2 MSTORE PUSH1 0x4 ADD PUSH2 0xE98 SWAP1 PUSH2 0x1BA0 JUMP JUMPDEST PUSH1 0x40 MLOAD DUP1 SWAP2 SUB SWAP1 REVERT JUMPDEST PUSH1 0x1 PUSH1 0x3 PUSH0 CALLER PUSH20 0xFFFFFFFFFFFFFFFFFFFFFFFFFFFFFFFFFFFFFFFF AND PUSH20 0xFFFFFFFFFFFFFFFFFFFFFFFFFFFFFFFFFFFFFFFF AND DUP2 MSTORE PUSH1 0x20 ADD SWAP1 DUP2 MSTORE PUSH1 0x20 ADD PUSH0 KECCAK256 PUSH0 DUP5 DUP2 MSTORE PUSH1 0x20 ADD SWAP1 DUP2 MSTORE PUSH1 0x20 ADD PUSH0 KECCAK256 PUSH0 PUSH2 0x100 EXP DUP2 SLOAD DUP2 PUSH1 0xFF MUL NOT AND SWAP1 DUP4 ISZERO ISZERO MUL OR SWAP1 SSTORE POP DUP1 PUSH1 0x2 PUSH0 CALLER PUSH20 0xFFFFFFFFFFFFFFFFFFFFFFFFFFFFFFFFFFFFFFFF AND PUSH20 0xFFFFFFFFFFFFFFFFFFFFFFFFFFFFFFFFFFFFFFFF AND DUP2 MSTORE PUSH1 0x20 ADD SWAP1 DUP2 MSTORE PUSH1 0x20 ADD PUSH0 KECCAK256 PUSH1 0x2 ADD PUSH0 DUP3 DUP3 SLOAD PUSH2 0xF54 SWAP2 SWAP1 PUSH2 0x1930 JUMP JUMPDEST SWAP3 POP POP DUP2 SWAP1 SSTORE POP DUP1 PUSH1 0x4 DUP4 DUP2 SLOAD DUP2 LT PUSH2 0xF70 JUMPI PUSH2 0xF6F PUSH2 0x18D6 JUMP JUMPDEST JUMPDEST SWAP1 PUSH0 MSTORE PUSH1 0x20 PUSH0 KECCAK256 SWAP1 PUSH1 0x5 MUL ADD PUSH1 0x1 ADD PUSH0 DUP3 DUP3 SLOAD PUSH2 0xF8D SWAP2 SWAP1 PUSH2 0x1BBE JUMP JUMPDEST SWAP3 POP POP DUP2 SWAP1 SSTORE POP DUP1 PUSH1 0x4 DUP4 DUP2 SLOAD DUP2 LT PUSH2 0xFA9 JUMPI PUSH2 0xFA8 PUSH2 0x18D6 JUMP JUMPDEST JUMPDEST SWAP1 PUSH0 MSTORE PUSH1 0x20 PUSH0 KECCAK256 SWAP1 PUSH1 0x5 MUL ADD PUSH1 0x3 ADD PUSH0 DUP3 DUP3 SLOAD PUSH2 0xFC6 SWAP2 SWAP1 PUSH2 0x1BBE JUMP JUMPDEST SWAP3 POP POP DUP2 SWAP1 SSTORE POP DUP2 CALLER PUSH20 0xFFFFFFFFFFFFFFFFFFFFFFFFFFFFFFFFFFFFFFFF AND PUSH32 0x3380729ED0962B6604F46F1805714F3E4301A891533DD1DC8394C59F5C7921EC DUP4 PUSH1 0x40 MLOAD PUSH2 0x1014 SWAP2 SWAP1 PUSH2 0x1593 JUMP JUMPDEST PUSH1 0x40 MLOAD DUP1 SWAP2 SUB SWAP1 LOG3 POP POP JUMP JUMPDEST PUSH1 0x7 PUSH0 SWAP1 SLOAD SWAP1 PUSH2 0x100 EXP SWAP1 DIV PUSH20 0xFFFFFFFFFFFFFFFFFFFFFFFFFFFFFFFFFFFFFFFF AND DUP2 JUMP JUMPDEST PUSH1 0x3 PUSH1 0x20 MSTORE DUP2 PUSH0 MSTORE PUSH1 0x40 PUSH0 KECCAK256 PUSH1 0x20 MSTORE DUP1 PUSH0 MSTORE PUSH1 0x40 PUSH0 KECCAK256 PUSH0 SWAP2 POP SWAP2 POP SWAP1 SLOAD SWAP1 PUSH2 0x100 EXP SWAP1 DIV PUSH1 0xFF AND DUP2 JUMP JUMPDEST PUSH1 0x1 PUSH1 0x20 MSTORE DUP1 PUSH0 MSTORE PUSH1 0x40 PUSH0 KECCAK256 PUSH0 SWAP2 POP SLOAD SWAP1 PUSH2 0x100 EXP SWAP1 DIV PUSH1 0xFF AND DUP2 JUMP JUMPDEST PUSH1 0x2 PUSH1 0x20 MSTORE DUP1 PUSH0 MSTORE PUSH1 0x40 PUSH0 KECCAK256 PUSH0 SWAP2 POP SWAP1 POP DUP1 PUSH0 ADD PUSH0 SWAP1 SLOAD SWAP1 PUSH2 0x100 EXP SWAP1 DIV PUSH20 0xFFFFFFFFFFFFFFFFFFFFFFFFFFFFFFFFFFFFFFFF AND SWAP1 DUP1 PUSH1 0x1 ADD SLOAD SWAP1 DUP1 PUSH1 0x2 ADD SLOAD SWAP1 POP DUP4 JUMP JUMPDEST PUSH1 0x7 PUSH0 SWAP1 SLOAD SWAP1 PUSH2 0x100 EXP SWAP1 DIV PUSH20 0xFFFFFFFFFFFFFFFFFFFFFFFFFFFFFFFFFFFFFFFF AND PUSH20 0xFFFFFFFFFFFFFFFFFFFFFFFFFFFFFFFFFFFFFFFF AND CALLER PUSH20 0xFFFFFFFFFFFFFFFFFFFFFFFFFFFFFFFFFFFFFFFF AND EQ PUSH2 0x1129 JUMPI PUSH0 DUP1 REVERT JUMPDEST PUSH0 ISZERO ISZERO PUSH1 0x1 PUSH0 DUP4 PUSH20 0xFFFFFFFFFFFFFFFFFFFFFFFFFFFFFFFFFFFFFFFF AND PUSH20 0xFFFFFFFFFFFFFFFFFFFFFFFFFFFFFFFFFFFFFFFF AND DUP2 MSTORE PUSH1 0x20 ADD SWAP1 DUP2 MSTORE PUSH1 0x20 ADD PUSH0 KECCAK256 PUSH0 SWAP1 SLOAD SWAP1 PUSH2 0x100 EXP SWAP1 DIV PUSH1 0xFF AND ISZERO ISZERO EQ PUSH2 0x11B8 JUMPI PUSH1 0x40 MLOAD PUSH32 0x8C379A000000000000000000000000000000000000000000000000000000000 DUP2 MSTORE PUSH1 0x4 ADD PUSH2 0x11AF SWAP1 PUSH2 0x1EC7 JUMP JUMPDEST PUSH1 0x40 MLOAD DUP1 SWAP2 SUB SWAP1 REVERT JUMPDEST PUSH1 0x40 MLOAD DUP1 PUSH1 0x60 ADD PUSH1 0x40 MSTORE DUP1 DUP3 PUSH20 0xFFFFFFFFFFFFFFFFFFFFFFFFFFFFFFFFFFFFFFFF AND DUP2 MSTORE PUSH1 0x20 ADD TIMESTAMP DUP2 MSTORE PUSH1 0x20 ADD PUSH1 0x64 DUP2 MSTORE POP PUSH1 0x2 PUSH0 DUP4 PUSH20 0xFFFFFFFFFFFFFFFFFFFFFFFFFFFFFFFFFFFFFFFF AND PUSH20 0xFFFFFFFFFFFFFFFFFFFFFFFFFFFFFFFFFFFFFFFF AND DUP2 MSTORE PUSH1 0x20 ADD SWAP1 DUP2 MSTORE PUSH1 0x20 ADD PUSH0 KECCAK256 PUSH0 DUP3 ADD MLOAD DUP2 PUSH0 ADD PUSH0 PUSH2 0x100 EXP DUP2 SLOAD DUP2 PUSH20 0xFFFFFFFFFFFFFFFFFFFFFFFFFFFFFFFFFFFFFFFF MUL NOT AND SWAP1 DUP4 PUSH20 0xFFFFFFFFFFFFFFFFFFFFFFFFFFFFFFFFFFFFFFFF AND MUL OR SWAP1 SSTORE POP PUSH1 0x20 DUP3 ADD MLOAD DUP2 PUSH1 0x1 ADD SSTORE PUSH1 0x40 DUP3 ADD MLOAD DUP2 PUSH1 0x2 ADD SSTORE SWAP1 POP POP PUSH0 DUP2 SWAP1 DUP1 PUSH1 0x1 DUP2 SLOAD ADD DUP1 DUP3 SSTORE DUP1 SWAP2 POP POP PUSH1 0x1 SWAP1 SUB SWAP1 PUSH0 MSTORE PUSH1 0x20 PUSH0 KECCAK256 ADD PUSH0 SWAP1 SWAP2 SWAP1 SWAP2 SWAP1 SWAP2 PUSH2 0x100 EXP DUP2 SLOAD DUP2 PUSH20 0xFFFFFFFFFFFFFFFFFFFFFFFFFFFFFFFFFFFFFFFF MUL NOT AND SWAP1 DUP4 PUSH20 0xFFFFFFFFFFFFFFFFFFFFFFFFFFFFFFFFFFFFFFFF AND MUL OR SWAP1 SSTORE POP PUSH1 0x1 DUP1 PUSH0 DUP4 PUSH20 0xFFFFFFFFFFFFFFFFFFFFFFFFFFFFFFFFFFFFFFFF AND PUSH20 0xFFFFFFFFFFFFFFFFFFFFFFFFFFFFFFFFFFFFFFFF AND DUP2 MSTORE PUSH1 0x20 ADD SWAP1 DUP2 MSTORE PUSH1 0x20 ADD PUSH0 KECCAK256 PUSH0 PUSH2 0x100 EXP DUP2 SLOAD DUP2 PUSH1 0xFF MUL NOT AND SWAP1 DUP4 ISZERO ISZERO MUL OR SWAP1 SSTORE POP PUSH1 0x64 PUSH1 0x6 PUSH0 DUP4 PUSH20 0xFFFFFFFFFFFFFFFFFFFFFFFFFFFFFFFFFFFFFFFF AND PUSH20 0xFFFFFFFFFFFFFFFFFFFFFFFFFFFFFFFFFFFFFFFF AND DUP2 MSTORE PUSH1 0x20 ADD SWAP1 DUP2 MSTORE PUSH1 0x20 ADD PUSH0 KECCAK256 DUP2 SWAP1 SSTORE POP PUSH1 0x64 PUSH1 0x5 PUSH0 DUP3 DUP3 SLOAD PUSH2 0x138A SWAP2 SWAP1 PUSH2 0x1BBE JUMP JUMPDEST SWAP3 POP POP DUP2 SWAP1 SSTORE POP POP JUMP JUMPDEST PUSH0 PUSH1 0x40 MLOAD SWAP1 POP SWAP1 JUMP JUMPDEST PUSH0 DUP1 REVERT JUMPDEST PUSH0 DUP1 REVERT JUMPDEST PUSH0 DUP2 SWAP1 POP SWAP2 SWAP1 POP JUMP JUMPDEST PUSH2 0x13B7 DUP2 PUSH2 0x13A5 JUMP JUMPDEST DUP2 EQ PUSH2 0x13C1 JUMPI PUSH0 DUP1 REVERT JUMPDEST POP JUMP JUMPDEST PUSH0 DUP2 CALLDATALOAD SWAP1 POP PUSH2 0x13D2 DUP2 PUSH2 0x13AE JUMP JUMPDEST SWAP3 SWAP2 POP POP JUMP JUMPDEST PUSH0 PUSH1 0x20 DUP3 DUP5 SUB SLT ISZERO PUSH2 0x13ED JUMPI PUSH2 0x13EC PUSH2 0x139D JUMP JUMPDEST JUMPDEST PUSH0 PUSH2 0x13FA DUP5 DUP3 DUP6 ADD PUSH2 0x13C4 JUMP JUMPDEST SWAP2 POP POP SWAP3 SWAP2 POP POP JUMP JUMPDEST PUSH0 DUP2 MLOAD SWAP1 POP SWAP2 SWAP1 POP JUMP JUMPDEST PUSH0 DUP3 DUP3 MSTORE PUSH1 0x20 DUP3 ADD SWAP1 POP SWAP3 SWAP2 POP POP JUMP JUMPDEST PUSH0 JUMPDEST DUP4 DUP2 LT ISZERO PUSH2 0x143A JUMPI DUP1 DUP3 ADD MLOAD DUP2 DUP5 ADD MSTORE PUSH1 0x20 DUP2 ADD SWAP1 POP PUSH2 0x141F JUMP JUMPDEST PUSH0 DUP5 DUP5 ADD MSTORE POP POP POP POP JUMP JUMPDEST PUSH0 PUSH1 0x1F NOT PUSH1 0x1F DUP4 ADD AND SWAP1 POP SWAP2 SWAP1 POP JUMP JUMPDEST PUSH0 PUSH2 0x145F DUP3 PUSH2 0x1403 JUMP JUMPDEST PUSH2 0x1469 DUP2 DUP6 PUSH2 0x140D JUMP JUMPDEST SWAP4 POP PUSH2 0x1479 DUP2 DUP6 PUSH1 0x20 DUP7 ADD PUSH2 0x141D JUMP JUMPDEST PUSH2 0x1482 DUP2 PUSH2 0x1445 JUMP JUMPDEST DUP5 ADD SWAP2 POP POP SWAP3 SWAP2 POP POP JUMP JUMPDEST PUSH2 0x1496 DUP2 PUSH2 0x13A5 JUMP JUMPDEST DUP3 MSTORE POP POP JUMP JUMPDEST PUSH0 DUP2 ISZERO ISZERO SWAP1 POP SWAP2 SWAP1 POP JUMP JUMPDEST PUSH2 0x14B0 DUP2 PUSH2 0x149C JUMP JUMPDEST DUP3 MSTORE POP POP JUMP JUMPDEST PUSH0 PUSH1 0xA0 DUP3 ADD SWAP1 POP DUP2 DUP2 SUB PUSH0 DUP4 ADD MSTORE PUSH2 0x14CE DUP2 DUP9 PUSH2 0x1455 JUMP JUMPDEST SWAP1 POP PUSH2 0x14DD PUSH1 0x20 DUP4 ADD DUP8 PUSH2 0x148D JUMP JUMPDEST PUSH2 0x14EA PUSH1 0x40 DUP4 ADD DUP7 PUSH2 0x148D JUMP JUMPDEST PUSH2 0x14F7 PUSH1 0x60 DUP4 ADD DUP6 PUSH2 0x148D JUMP JUMPDEST PUSH2 0x1504 PUSH1 0x80 DUP4 ADD DUP5 PUSH2 0x14A7 JUMP JUMPDEST SWAP7 SWAP6 POP POP POP POP POP POP JUMP JUMPDEST PUSH0 PUSH20 0xFFFFFFFFFFFFFFFFFFFFFFFFFFFFFFFFFFFFFFFF DUP3 AND SWAP1 POP SWAP2 SWAP1 POP JUMP JUMPDEST PUSH0 PUSH2 0x1537 DUP3 PUSH2 0x150E JUMP JUMPDEST SWAP1 POP SWAP2 SWAP1 POP JUMP JUMPDEST PUSH2 0x1547 DUP2 PUSH2 0x152D JUMP JUMPDEST DUP2 EQ PUSH2 0x1551 JUMPI PUSH0 DUP1 REVERT JUMPDEST POP JUMP JUMPDEST PUSH0 DUP2 CALLDATALOAD SWAP1 POP PUSH2 0x1562 DUP2 PUSH2 0x153E JUMP JUMPDEST SWAP3 SWAP2 POP POP JUMP JUMPDEST PUSH0 PUSH1 0x20 DUP3 DUP5 SUB SLT ISZERO PUSH2 0x157D JUMPI PUSH2 0x157C PUSH2 0x139D JUMP JUMPDEST JUMPDEST PUSH0 PUSH2 0x158A DUP5 DUP3 DUP6 ADD PUSH2 0x1554 JUMP JUMPDEST SWAP2 POP POP SWAP3 SWAP2 POP POP JUMP JUMPDEST PUSH0 PUSH1 0x20 DUP3 ADD SWAP1 POP PUSH2 0x15A6 PUSH0 DUP4 ADD DUP5 PUSH2 0x148D JUMP JUMPDEST SWAP3 SWAP2 POP POP JUMP JUMPDEST PUSH0 DUP1 PUSH1 0x40 DUP4 DUP6 SUB SLT ISZERO PUSH2 0x15C2 JUMPI PUSH2 0x15C1 PUSH2 0x139D JUMP JUMPDEST JUMPDEST PUSH0 PUSH2 0x15CF DUP6 DUP3 DUP7 ADD PUSH2 0x13C4 JUMP JUMPDEST SWAP3 POP POP PUSH1 0x20 PUSH2 0x15E0 DUP6 DUP3 DUP7 ADD PUSH2 0x13C4 JUMP JUMPDEST SWAP2 POP POP SWAP3 POP SWAP3 SWAP1 POP JUMP JUMPDEST PUSH0 DUP1 REVERT JUMPDEST PUSH0 DUP1 REVERT JUMPDEST PUSH32 0x4E487B7100000000000000000000000000000000000000000000000000000000 PUSH0 MSTORE PUSH1 0x41 PUSH1 0x4 MSTORE PUSH1 0x24 PUSH0 REVERT JUMPDEST PUSH2 0x1628 DUP3 PUSH2 0x1445 JUMP JUMPDEST DUP2 ADD DUP2 DUP2 LT PUSH8 0xFFFFFFFFFFFFFFFF DUP3 GT OR ISZERO PUSH2 0x1647 JUMPI PUSH2 0x1646 PUSH2 0x15F2 JUMP JUMPDEST JUMPDEST DUP1 PUSH1 0x40 MSTORE POP POP POP JUMP JUMPDEST PUSH0 PUSH2 0x1659 PUSH2 0x1394 JUMP JUMPDEST SWAP1 POP PUSH2 0x1665 DUP3 DUP3 PUSH2 0x161F JUMP JUMPDEST SWAP2 SWAP1 POP JUMP JUMPDEST PUSH0 PUSH8 0xFFFFFFFFFFFFFFFF DUP3 GT ISZERO PUSH2 0x1684 JUMPI PUSH2 0x1683 PUSH2 0x15F2 JUMP JUMPDEST JUMPDEST PUSH2 0x168D DUP3 PUSH2 0x1445 JUMP JUMPDEST SWAP1 POP PUSH1 0x20 DUP2 ADD SWAP1 POP SWAP2 SWAP1 POP JUMP JUMPDEST DUP3 DUP2 DUP4 CALLDATACOPY PUSH0 DUP4 DUP4 ADD MSTORE POP POP POP JUMP JUMPDEST PUSH0 PUSH2 0x16BA PUSH2 0x16B5 DUP5 PUSH2 0x166A JUMP JUMPDEST PUSH2 0x1650 JUMP JUMPDEST SWAP1 POP DUP3 DUP2 MSTORE PUSH1 0x20 DUP2 ADD DUP5 DUP5 DUP5 ADD GT ISZERO PUSH2 0x16D6 JUMPI PUSH2 0x16D5 PUSH2 0x15EE JUMP JUMPDEST JUMPDEST PUSH2 0x16E1 DUP5 DUP3 DUP6 PUSH2 0x169A JUMP JUMPDEST POP SWAP4 SWAP3 POP POP POP JUMP JUMPDEST PUSH0 DUP3 PUSH1 0x1F DUP4 ADD SLT PUSH2 0x16FD JUMPI PUSH2 0x16FC PUSH2 0x15EA JUMP JUMPDEST JUMPDEST DUP2 CALLDATALOAD PUSH2 0x170D DUP5 DUP3 PUSH1 0x20 DUP7 ADD PUSH2 0x16A8 JUMP JUMPDEST SWAP2 POP POP SWAP3 SWAP2 POP POP JUMP JUMPDEST PUSH0 PUSH1 0x20 DUP3 DUP5 SUB SLT ISZERO PUSH2 0x172B JUMPI PUSH2 0x172A PUSH2 0x139D JUMP JUMPDEST JUMPDEST PUSH0 DUP3 ADD CALLDATALOAD PUSH8 0xFFFFFFFFFFFFFFFF DUP2 GT ISZERO PUSH2 0x1748 JUMPI PUSH2 0x1747 PUSH2 0x13A1 JUMP JUMPDEST JUMPDEST PUSH2 0x1754 DUP5 DUP3 DUP6 ADD PUSH2 0x16E9 JUMP JUMPDEST SWAP2 POP POP SWAP3 SWAP2 POP POP JUMP JUMPDEST PUSH2 0x1766 DUP2 PUSH2 0x152D JUMP JUMPDEST DUP3 MSTORE POP POP JUMP JUMPDEST PUSH0 PUSH1 0x20 DUP3 ADD SWAP1 POP PUSH2 0x177F PUSH0 DUP4 ADD DUP5 PUSH2 0x175D JUMP JUMPDEST SWAP3 SWAP2 POP POP JUMP JUMPDEST PUSH0 DUP1 PUSH1 0x40 DUP4 DUP6 SUB SLT ISZERO PUSH2 0x179B JUMPI PUSH2 0x179A PUSH2 0x139D JUMP JUMPDEST JUMPDEST PUSH0 PUSH2 0x17A8 DUP6 DUP3 DUP7 ADD PUSH2 0x1554 JUMP JUMPDEST SWAP3 POP POP PUSH1 0x20 PUSH2 0x17B9 DUP6 DUP3 DUP7 ADD PUSH2 0x13C4 JUMP JUMPDEST SWAP2 POP POP SWAP3 POP SWAP3 SWAP1 POP JUMP JUMPDEST PUSH0 PUSH1 0x20 DUP3 ADD SWAP1 POP PUSH2 0x17D6 PUSH0 DUP4 ADD DUP5 PUSH2 0x14A7 JUMP JUMPDEST SWAP3 SWAP2 POP POP JUMP JUMPDEST PUSH0 PUSH1 0x60 DUP3 ADD SWAP1 POP PUSH2 0x17EF PUSH0 DUP4 ADD DUP7 PUSH2 0x175D JUMP JUMPDEST PUSH2 0x17FC PUSH1 0x20 DUP4 ADD DUP6 PUSH2 0x148D JUMP JUMPDEST PUSH2 0x1809 PUSH1 0x40 DUP4 ADD DUP5 PUSH2 0x148D JUMP JUMPDEST SWAP5 SWAP4 POP POP POP POP JUMP JUMPDEST PUSH32 0x4E487B7100000000000000000000000000000000000000000000000000000000 PUSH0 MSTORE PUSH1 0x22 PUSH1 0x4 MSTORE PUSH1 0x24 PUSH0 REVERT JUMPDEST PUSH0 PUSH1 0x2 DUP3 DIV SWAP1 POP PUSH1 0x1 DUP3 AND DUP1 PUSH2 0x1855 JUMPI PUSH1 0x7F DUP3 AND SWAP2 POP JUMPDEST PUSH1 0x20 DUP3 LT DUP2 SUB PUSH2 0x1868 JUMPI PUSH2 0x1867 PUSH2 0x1811 JUMP JUMPDEST JUMPDEST POP SWAP2 SWAP1 POP JUMP JUMPDEST PUSH32 0x4D656D62657220646F6573206E6F742065786973740000000000000000000000 PUSH0 DUP3 ADD MSTORE POP JUMP JUMPDEST PUSH0 PUSH2 0x18A2 PUSH1 0x15 DUP4 PUSH2 0x140D JUMP JUMPDEST SWAP2 POP PUSH2 0x18AD DUP3 PUSH2 0x186E JUMP JUMPDEST PUSH1 0x20 DUP3 ADD SWAP1 POP SWAP2 SWAP1 POP JUMP JUMPDEST PUSH0 PUSH1 0x20 DUP3 ADD SWAP1 POP DUP2 DUP2 SUB PUSH0 DUP4 ADD MSTORE PUSH2 0x18CF DUP2 PUSH2 0x1896 JUMP JUMPDEST SWAP1 POP SWAP2 SWAP1 POP JUMP JUMPDEST PUSH32 0x4E487B7100000000000000000000000000000000000000000000000000000000 PUSH0 MSTORE PUSH1 0x32 PUSH1 0x4 MSTORE PUSH1 0x24 PUSH0 REVERT JUMPDEST PUSH32 0x4E487B7100000000000000000000000000000000000000000000000000000000 PUSH0 MSTORE PUSH1 0x11 PUSH1 0x4 MSTORE PUSH1 0x24 PUSH0 REVERT JUMPDEST PUSH0 PUSH2 0x193A DUP3 PUSH2 0x13A5 JUMP JUMPDEST SWAP2 POP PUSH2 0x1945 DUP4 PUSH2 0x13A5 JUMP JUMPDEST SWAP3 POP DUP3 DUP3 SUB SWAP1 POP DUP2 DUP2 GT ISZERO PUSH2 0x195D JUMPI PUSH2 0x195C PUSH2 0x1903 JUMP JUMPDEST JUMPDEST SWAP3 SWAP2 POP POP JUMP JUMPDEST PUSH32 0x4E487B7100000000000000000000000000000000000000000000000000000000 PUSH0 MSTORE PUSH1 0x31 PUSH1 0x4 MSTORE PUSH1 0x24 PUSH0 REVERT JUMPDEST PUSH32 0x50726F706F73616C2068617320616C7265616479206265656E20657865637574 PUSH0 DUP3 ADD MSTORE PUSH32 0x6564000000000000000000000000000000000000000000000000000000000000 PUSH1 0x20 DUP3 ADD MSTORE POP JUMP JUMPDEST PUSH0 PUSH2 0x19EA PUSH1 0x22 DUP4 PUSH2 0x140D JUMP JUMPDEST SWAP2 POP PUSH2 0x19F5 DUP3 PUSH2 0x1990 JUMP JUMPDEST PUSH1 0x40 DUP3 ADD SWAP1 POP SWAP2 SWAP1 POP JUMP JUMPDEST PUSH0 PUSH1 0x20 DUP3 ADD SWAP1 POP DUP2 DUP2 SUB PUSH0 DUP4 ADD MSTORE PUSH2 0x1A17 DUP2 PUSH2 0x19DE JUMP JUMPDEST SWAP1 POP SWAP2 SWAP1 POP JUMP JUMPDEST PUSH32 0x50726F706F73616C20686173206265656E20617070726F766564000000000000 PUSH0 DUP3 ADD MSTORE POP JUMP JUMPDEST PUSH0 PUSH2 0x1A52 PUSH1 0x1A DUP4 PUSH2 0x140D JUMP JUMPDEST SWAP2 POP PUSH2 0x1A5D DUP3 PUSH2 0x1A1E JUMP JUMPDEST PUSH1 0x20 DUP3 ADD SWAP1 POP SWAP2 SWAP1 POP JUMP JUMPDEST PUSH0 PUSH1 0x20 DUP3 ADD SWAP1 POP DUP2 DUP2 SUB PUSH0 DUP4 ADD MSTORE PUSH2 0x1A7F DUP2 PUSH2 0x1A46 JUMP JUMPDEST SWAP1 POP SWAP2 SWAP1 POP JUMP JUMPDEST PUSH32 0x596F75206861766520746F2062652061206D656D62657220746F20766F746500 PUSH0 DUP3 ADD MSTORE POP JUMP JUMPDEST PUSH0 PUSH2 0x1ABA PUSH1 0x1F DUP4 PUSH2 0x140D JUMP JUMPDEST SWAP2 POP PUSH2 0x1AC5 DUP3 PUSH2 0x1A86 JUMP JUMPDEST PUSH1 0x20 DUP3 ADD SWAP1 POP SWAP2 SWAP1 POP JUMP JUMPDEST PUSH0 PUSH1 0x20 DUP3 ADD SWAP1 POP DUP2 DUP2 SUB PUSH0 DUP4 ADD MSTORE PUSH2 0x1AE7 DUP2 PUSH2 0x1AAE JUMP JUMPDEST SWAP1 POP SWAP2 SWAP1 POP JUMP JUMPDEST PUSH32 0x4E6F7420656E6F75676820746F6B656E7320746F20766F746500000000000000 PUSH0 DUP3 ADD MSTORE POP JUMP JUMPDEST PUSH0 PUSH2 0x1B22 PUSH1 0x19 DUP4 PUSH2 0x140D JUMP JUMPDEST SWAP2 POP PUSH2 0x1B2D DUP3 PUSH2 0x1AEE JUMP JUMPDEST PUSH1 0x20 DUP3 ADD SWAP1 POP SWAP2 SWAP1 POP JUMP JUMPDEST PUSH0 PUSH1 0x20 DUP3 ADD SWAP1 POP DUP2 DUP2 SUB PUSH0 DUP4 ADD MSTORE PUSH2 0x1B4F DUP2 PUSH2 0x1B16 JUMP JUMPDEST SWAP1 POP SWAP2 SWAP1 POP JUMP JUMPDEST PUSH32 0x596F75206861766520616C726561647920766F74656400000000000000000000 PUSH0 DUP3 ADD MSTORE POP JUMP JUMPDEST PUSH0 PUSH2 0x1B8A PUSH1 0x16 DUP4 PUSH2 0x140D JUMP JUMPDEST SWAP2 POP PUSH2 0x1B95 DUP3 PUSH2 0x1B56 JUMP JUMPDEST PUSH1 0x20 DUP3 ADD SWAP1 POP SWAP2 SWAP1 POP JUMP JUMPDEST PUSH0 PUSH1 0x20 DUP3 ADD SWAP1 POP DUP2 DUP2 SUB PUSH0 DUP4 ADD MSTORE PUSH2 0x1BB7 DUP2 PUSH2 0x1B7E JUMP JUMPDEST SWAP1 POP SWAP2 SWAP1 POP JUMP JUMPDEST PUSH0 PUSH2 0x1BC8 DUP3 PUSH2 0x13A5 JUMP JUMPDEST SWAP2 POP PUSH2 0x1BD3 DUP4 PUSH2 0x13A5 JUMP JUMPDEST SWAP3 POP DUP3 DUP3 ADD SWAP1 POP DUP1 DUP3 GT ISZERO PUSH2 0x1BEB JUMPI PUSH2 0x1BEA PUSH2 0x1903 JUMP JUMPDEST JUMPDEST SWAP3 SWAP2 POP POP JUMP JUMPDEST PUSH0 DUP2 SWAP1 POP DUP2 PUSH0 MSTORE PUSH1 0x20 PUSH0 KECCAK256 SWAP1 POP SWAP2 SWAP1 POP JUMP JUMPDEST PUSH0 PUSH1 0x20 PUSH1 0x1F DUP4 ADD DIV SWAP1 POP SWAP2 SWAP1 POP JUMP JUMPDEST PUSH0 DUP3 DUP3 SHL SWAP1 POP SWAP3 SWAP2 POP POP JUMP JUMPDEST PUSH0 PUSH1 0x8 DUP4 MUL PUSH2 0x1C4D PUSH32 0xFFFFFFFFFFFFFFFFFFFFFFFFFFFFFFFFFFFFFFFFFFFFFFFFFFFFFFFFFFFFFFFF DUP3 PUSH2 0x1C12 JUMP JUMPDEST PUSH2 0x1C57 DUP7 DUP4 PUSH2 0x1C12 JUMP JUMPDEST SWAP6 POP DUP1 NOT DUP5 AND SWAP4 POP DUP1 DUP7 AND DUP5 OR SWAP3 POP POP POP SWAP4 SWAP3 POP POP POP JUMP JUMPDEST PUSH0 DUP2 SWAP1 POP SWAP2 SWAP1 POP JUMP JUMPDEST PUSH0 PUSH2 0x1C92 PUSH2 0x1C8D PUSH2 0x1C88 DUP5 PUSH2 0x13A5 JUMP JUMPDEST PUSH2 0x1C6F JUMP JUMPDEST PUSH2 0x13A5 JUMP JUMPDEST SWAP1 POP SWAP2 SWAP1 POP JUMP JUMPDEST PUSH0 DUP2 SWAP1 POP SWAP2 SWAP1 POP JUMP JUMPDEST PUSH2 0x1CAB DUP4 PUSH2 0x1C78 JUMP JUMPDEST PUSH2 0x1CBF PUSH2 0x1CB7 DUP3 PUSH2 0x1C99 JUMP JUMPDEST DUP5 DUP5 SLOAD PUSH2 0x1C1E JUMP JUMPDEST DUP3 SSTORE POP POP POP POP JUMP JUMPDEST PUSH0 SWAP1 JUMP JUMPDEST PUSH2 0x1CD3 PUSH2 0x1CC7 JUMP JUMPDEST PUSH2 0x1CDE DUP2 DUP5 DUP5 PUSH2 0x1CA2 JUMP JUMPDEST POP POP POP JUMP JUMPDEST JUMPDEST DUP2 DUP2 LT ISZERO PUSH2 0x1D01 JUMPI PUSH2 0x1CF6 PUSH0 DUP3 PUSH2 0x1CCB JUMP JUMPDEST PUSH1 0x1 DUP2 ADD SWAP1 POP PUSH2 0x1CE4 JUMP JUMPDEST POP POP JUMP JUMPDEST PUSH1 0x1F DUP3 GT ISZERO PUSH2 0x1D46 JUMPI PUSH2 0x1D17 DUP2 PUSH2 0x1BF1 JUMP JUMPDEST PUSH2 0x1D20 DUP5 PUSH2 0x1C03 JUMP JUMPDEST DUP2 ADD PUSH1 0x20 DUP6 LT ISZERO PUSH2 0x1D2F JUMPI DUP2 SWAP1 POP JUMPDEST PUSH2 0x1D43 PUSH2 0x1D3B DUP6 PUSH2 0x1C03 JUMP JUMPDEST DUP4 ADD DUP3 PUSH2 0x1CE3 JUMP JUMPDEST POP POP JUMPDEST POP POP POP JUMP JUMPDEST PUSH0 DUP3 DUP3 SHR SWAP1 POP SWAP3 SWAP2 POP POP JUMP JUMPDEST PUSH0 PUSH2 0x1D66 PUSH0 NOT DUP5 PUSH1 0x8 MUL PUSH2 0x1D4B JUMP JUMPDEST NOT DUP1 DUP4 AND SWAP2 POP POP SWAP3 SWAP2 POP POP JUMP JUMPDEST PUSH0 PUSH2 0x1D7E DUP4 DUP4 PUSH2 0x1D57 JUMP JUMPDEST SWAP2 POP DUP3 PUSH1 0x2 MUL DUP3 OR SWAP1 POP SWAP3 SWAP2 POP POP JUMP JUMPDEST PUSH2 0x1D97 DUP3 PUSH2 0x1403 JUMP JUMPDEST PUSH8 0xFFFFFFFFFFFFFFFF DUP2 GT ISZERO PUSH2 0x1DB0 JUMPI PUSH2 0x1DAF PUSH2 0x15F2 JUMP JUMPDEST JUMPDEST PUSH2 0x1DBA DUP3 SLOAD PUSH2 0x183E JUMP JUMPDEST PUSH2 0x1DC5 DUP3 DUP3 DUP6 PUSH2 0x1D05 JUMP JUMPDEST PUSH0 PUSH1 0x20 SWAP1 POP PUSH1 0x1F DUP4 GT PUSH1 0x1 DUP2 EQ PUSH2 0x1DF6 JUMPI PUSH0 DUP5 ISZERO PUSH2 0x1DE4 JUMPI DUP3 DUP8 ADD MLOAD SWAP1 POP JUMPDEST PUSH2 0x1DEE DUP6 DUP3 PUSH2 0x1D73 JUMP JUMPDEST DUP7 SSTORE POP PUSH2 0x1E55 JUMP JUMPDEST PUSH1 0x1F NOT DUP5 AND PUSH2 0x1E04 DUP7 PUSH2 0x1BF1 JUMP JUMPDEST PUSH0 JUMPDEST DUP3 DUP2 LT ISZERO PUSH2 0x1E2B JUMPI DUP5 DUP10 ADD MLOAD DUP3 SSTORE PUSH1 0x1 DUP3 ADD SWAP2 POP PUSH1 0x20 DUP6 ADD SWAP5 POP PUSH1 0x20 DUP2 ADD SWAP1 POP PUSH2 0x1E06 JUMP JUMPDEST DUP7 DUP4 LT ISZERO PUSH2 0x1E48 JUMPI DUP5 DUP10 ADD MLOAD PUSH2 0x1E44 PUSH1 0x1F DUP10 AND DUP3 PUSH2 0x1D57 JUMP JUMPDEST DUP4 SSTORE POP JUMPDEST PUSH1 0x1 PUSH1 0x2 DUP9 MUL ADD DUP9 SSTORE POP POP POP JUMPDEST POP POP POP POP POP POP JUMP JUMPDEST PUSH0 PUSH1 0x20 DUP3 ADD SWAP1 POP DUP2 DUP2 SUB PUSH0 DUP4 ADD MSTORE PUSH2 0x1E75 DUP2 DUP5 PUSH2 0x1455 JUMP JUMPDEST SWAP1 POP SWAP3 SWAP2 POP POP JUMP JUMPDEST PUSH32 0x4D656D62657220616C7265616479206578697374730000000000000000000000 PUSH0 DUP3 ADD MSTORE POP JUMP JUMPDEST PUSH0 PUSH2 0x1EB1 PUSH1 0x15 DUP4 PUSH2 0x140D JUMP JUMPDEST SWAP2 POP PUSH2 0x1EBC DUP3 PUSH2 0x1E7D JUMP JUMPDEST PUSH1 0x20 DUP3 ADD SWAP1 POP SWAP2 SWAP1 POP JUMP JUMPDEST PUSH0 PUSH1 0x20 DUP3 ADD SWAP1 POP DUP2 DUP2 SUB PUSH0 DUP4 ADD MSTORE PUSH2 0x1EDE DUP2 PUSH2 0x1EA5 JUMP JUMPDEST SWAP1 POP SWAP2 SWAP1 POP JUMP INVALID LOG2 PUSH5 0x6970667358 0x22 SLT KECCAK256 0xC8 0xC MUL 0xC8 DUP8 0xAC CODESIZE 0x23 0xDF MSIZE PUSH15 0x108E9ECB2B680810E43F2E9AE56C3D 0x2B SWAP14 0xC5 DUP2 0x4C CALLCODE PUSH5 0x736F6C6343 STOP ADDMOD AND STOP CALLER "
				},
				"gasEstimates": {
					"creation": {
						"codeDepositCost": "1592600",
						"executionCost": "25929",
						"totalCost": "1618529"
					},
					"external": {
						"addMember(address)": "infinite",
						"balances(address)": "2847",
						"createProposal(string)": "infinite",
						"executeProposal(uint256)": "41704",
						"isMember(address)": "2877",
						"memberInfo(address)": "infinite",
						"members(uint256)": "4966",
						"owner()": "2575",
						"proposals(uint256)": "infinite",
						"removeMember(address)": "infinite",
						"totalSupply()": "2448",
						"voteNo(uint256,uint256)": "infinite",
						"voteYes(uint256,uint256)": "infinite",
						"votes(address,uint256)": "3093"
					}
				},
				"methodIdentifiers": {
					"addMember(address)": "ca6d56dc",
					"balances(address)": "27e235e3",
					"createProposal(string)": "49c2a1a6",
					"executeProposal(uint256)": "0d61b519",
					"isMember(address)": "a230c524",
					"memberInfo(address)": "a313c371",
					"members(uint256)": "5daf08ca",
					"owner()": "8da5cb5b",
					"proposals(uint256)": "013cf08b",
					"removeMember(address)": "0b1ca49a",
					"totalSupply()": "18160ddd",
					"voteNo(uint256,uint256)": "6d6be0e0",
					"voteYes(uint256,uint256)": "3ab86904",
					"votes(address,uint256)": "9f2524ee"
				}
			},
			"storageLayout": {
				"storage": [
					{
						"astId": 22,
						"contract": "contracts/MyFirstDAO.sol:DAO",
						"label": "members",
						"offset": 0,
						"slot": "0",
						"type": "t_array(t_address)dyn_storage"
					},
					{
						"astId": 26,
						"contract": "contracts/MyFirstDAO.sol:DAO",
						"label": "isMember",
						"offset": 0,
						"slot": "1",
						"type": "t_mapping(t_address,t_bool)"
					},
					{
						"astId": 31,
						"contract": "contracts/MyFirstDAO.sol:DAO",
						"label": "memberInfo",
						"offset": 0,
						"slot": "2",
						"type": "t_mapping(t_address,t_struct(Members)19_storage)"
					},
					{
						"astId": 37,
						"contract": "contracts/MyFirstDAO.sol:DAO",
						"label": "votes",
						"offset": 0,
						"slot": "3",
						"type": "t_mapping(t_address,t_mapping(t_uint256,t_bool))"
					},
					{
						"astId": 41,
						"contract": "contracts/MyFirstDAO.sol:DAO",
						"label": "proposals",
						"offset": 0,
						"slot": "4",
						"type": "t_array(t_struct(Proposal)12_storage)dyn_storage"
					},
					{
						"astId": 43,
						"contract": "contracts/MyFirstDAO.sol:DAO",
						"label": "totalSupply",
						"offset": 0,
						"slot": "5",
						"type": "t_uint256"
					},
					{
						"astId": 47,
						"contract": "contracts/MyFirstDAO.sol:DAO",
						"label": "balances",
						"offset": 0,
						"slot": "6",
						"type": "t_mapping(t_address,t_uint256)"
					},
					{
						"astId": 71,
						"contract": "contracts/MyFirstDAO.sol:DAO",
						"label": "owner",
						"offset": 0,
						"slot": "7",
						"type": "t_address"
					}
				],
				"types": {
					"t_address": {
						"encoding": "inplace",
						"label": "address",
						"numberOfBytes": "20"
					},
					"t_array(t_address)dyn_storage": {
						"base": "t_address",
						"encoding": "dynamic_array",
						"label": "address[]",
						"numberOfBytes": "32"
					},
					"t_array(t_struct(Proposal)12_storage)dyn_storage": {
						"base": "t_struct(Proposal)12_storage",
						"encoding": "dynamic_array",
						"label": "struct DAO.Proposal[]",
						"numberOfBytes": "32"
					},
					"t_bool": {
						"encoding": "inplace",
						"label": "bool",
						"numberOfBytes": "1"
					},
					"t_mapping(t_address,t_bool)": {
						"encoding": "mapping",
						"key": "t_address",
						"label": "mapping(address => bool)",
						"numberOfBytes": "32",
						"value": "t_bool"
					},
					"t_mapping(t_address,t_mapping(t_uint256,t_bool))": {
						"encoding": "mapping",
						"key": "t_address",
						"label": "mapping(address => mapping(uint256 => bool))",
						"numberOfBytes": "32",
						"value": "t_mapping(t_uint256,t_bool)"
					},
					"t_mapping(t_address,t_struct(Members)19_storage)": {
						"encoding": "mapping",
						"key": "t_address",
						"label": "mapping(address => struct DAO.Members)",
						"numberOfBytes": "32",
						"value": "t_struct(Members)19_storage"
					},
					"t_mapping(t_address,t_uint256)": {
						"encoding": "mapping",
						"key": "t_address",
						"label": "mapping(address => uint256)",
						"numberOfBytes": "32",
						"value": "t_uint256"
					},
					"t_mapping(t_uint256,t_bool)": {
						"encoding": "mapping",
						"key": "t_uint256",
						"label": "mapping(uint256 => bool)",
						"numberOfBytes": "32",
						"value": "t_bool"
					},
					"t_string_storage": {
						"encoding": "bytes",
						"label": "string",
						"numberOfBytes": "32"
					},
					"t_struct(Members)19_storage": {
						"encoding": "inplace",
						"label": "struct DAO.Members",
						"members": [
							{
								"astId": 14,
								"contract": "contracts/MyFirstDAO.sol:DAO",
								"label": "memberAddress",
								"offset": 0,
								"slot": "0",
								"type": "t_address"
							},
							{
								"astId": 16,
								"contract": "contracts/MyFirstDAO.sol:DAO",
								"label": "memberSince",
								"offset": 0,
								"slot": "1",
								"type": "t_uint256"
							},
							{
								"astId": 18,
								"contract": "contracts/MyFirstDAO.sol:DAO",
								"label": "tokenBalance",
								"offset": 0,
								"slot": "2",
								"type": "t_uint256"
							}
						],
						"numberOfBytes": "96"
					},
					"t_struct(Proposal)12_storage": {
						"encoding": "inplace",
						"label": "struct DAO.Proposal",
						"members": [
							{
								"astId": 3,
								"contract": "contracts/MyFirstDAO.sol:DAO",
								"label": "description",
								"offset": 0,
								"slot": "0",
								"type": "t_string_storage"
							},
							{
								"astId": 5,
								"contract": "contracts/MyFirstDAO.sol:DAO",
								"label": "voteCount",
								"offset": 0,
								"slot": "1",
								"type": "t_uint256"
							},
							{
								"astId": 7,
								"contract": "contracts/MyFirstDAO.sol:DAO",
								"label": "yesCount",
								"offset": 0,
								"slot": "2",
								"type": "t_uint256"
							},
							{
								"astId": 9,
								"contract": "contracts/MyFirstDAO.sol:DAO",
								"label": "noCount",
								"offset": 0,
								"slot": "3",
								"type": "t_uint256"
							},
							{
								"astId": 11,
								"contract": "contracts/MyFirstDAO.sol:DAO",
								"label": "executed",
								"offset": 0,
								"slot": "4",
								"type": "t_bool"
							}
						],
						"numberOfBytes": "160"
					},
					"t_uint256": {
						"encoding": "inplace",
						"label": "uint256",
						"numberOfBytes": "32"
					}
				}
			},
			"userdoc": {
				"kind": "user",
				"methods": {},
				"version": 1
			}
		}
	}
}