{
	"contracts/MyFirstDAO.sol": {
		"DAO": {
			"abi": [
				{
					"anonymous": false,
					"inputs": [
						{
							"indexed": false,
							"internalType": "string",
							"name": "message",
							"type": "string"
						}
					],
					"name": "proposalAccepted",
					"type": "event"
				},
				{
					"anonymous": false,
					"inputs": [
						{
							"indexed": true,
							"internalType": "uint256",
							"name": "proposalId",
							"type": "uint256"
						},
						{
							"indexed": false,
							"internalType": "string",
							"name": "description",
							"type": "string"
						}
					],
					"name": "proposalCreated",
					"type": "event"
				},
				{
					"anonymous": false,
					"inputs": [
						{
							"indexed": false,
							"internalType": "string",
							"name": "rejected",
							"type": "string"
						}
					],
					"name": "proposalRejected",
					"type": "event"
				},
				{
					"anonymous": false,
					"inputs": [
						{
							"indexed": true,
							"internalType": "address",
							"name": "voter",
							"type": "address"
						},
						{
							"indexed": true,
							"internalType": "uint256",
							"name": "proposalId",
							"type": "uint256"
						},
						{
							"indexed": false,
							"internalType": "uint256",
							"name": "tokenAmount",
							"type": "uint256"
						}
					],
					"name": "voteCaste",
					"type": "event"
				},
				{
					"inputs": [
						{
							"internalType": "address",
							"name": "",
							"type": "address"
						}
					],
					"name": "balances",
					"outputs": [
						{
							"internalType": "uint256",
							"name": "",
							"type": "uint256"
						}
					],
					"stateMutability": "view",
					"type": "function"
				},
				{
					"inputs": [
						{
							"internalType": "address",
							"name": "",
							"type": "address"
						}
					],
					"name": "isMember",
					"outputs": [
						{
							"internalType": "bool",
							"name": "",
							"type": "bool"
						}
					],
					"stateMutability": "view",
					"type": "function"
				},
				{
					"inputs": [
						{
							"internalType": "address",
							"name": "",
							"type": "address"
						}
					],
					"name": "memberInfo",
					"outputs": [
						{
							"internalType": "address",
							"name": "memberAddress",
							"type": "address"
						},
						{
							"internalType": "uint256",
							"name": "memberSince",
							"type": "uint256"
						},
						{
							"internalType": "uint256",
							"name": "tokenBalance",
							"type": "uint256"
						}
					],
					"stateMutability": "view",
					"type": "function"
				},
				{
					"inputs": [
						{
							"internalType": "uint256",
							"name": "",
							"type": "uint256"
						}
					],
					"name": "members",
					"outputs": [
						{
							"internalType": "address",
							"name": "",
							"type": "address"
						}
					],
					"stateMutability": "view",
					"type": "function"
				},
				{
					"inputs": [
						{
							"internalType": "uint256",
							"name": "",
							"type": "uint256"
						}
					],
					"name": "proposals",
					"outputs": [
						{
							"internalType": "string",
							"name": "description",
							"type": "string"
						},
						{
							"internalType": "uint256",
							"name": "voteCount",
							"type": "uint256"
						},
						{
							"internalType": "uint256",
							"name": "yesCount",
							"type": "uint256"
						},
						{
							"internalType": "uint256",
							"name": "noCount",
							"type": "uint256"
						},
						{
							"internalType": "bool",
							"name": "execute",
							"type": "bool"
						}
					],
					"stateMutability": "view",
					"type": "function"
				},
				{
					"inputs": [],
					"name": "totalSupply",
					"outputs": [
						{
							"internalType": "uint256",
							"name": "",
							"type": "uint256"
						}
					],
					"stateMutability": "view",
					"type": "function"
				},
				{
					"inputs": [
						{
							"internalType": "address",
							"name": "",
							"type": "address"
						},
						{
							"internalType": "uint256",
							"name": "",
							"type": "uint256"
						}
					],
					"name": "votes",
					"outputs": [
						{
							"internalType": "bool",
							"name": "",
							"type": "bool"
						}
					],
					"stateMutability": "view",
					"type": "function"
				}
			],
			"devdoc": {
				"kind": "dev",
				"methods": {},
				"version": 1
			},
			"evm": {
				"assembly": "    /* \"contracts/MyFirstDAO.sol\":60:1238  contract DAO{... */\n  mstore(0x40, 0x80)\n  callvalue\n  dup1\n  iszero\n  tag_1\n  jumpi\n  0x00\n  dup1\n  revert\ntag_1:\n  pop\n  dataSize(sub_0)\n  dup1\n  dataOffset(sub_0)\n  0x00\n  codecopy\n  0x00\n  return\nstop\n\nsub_0: assembly {\n        /* \"contracts/MyFirstDAO.sol\":60:1238  contract DAO{... */\n      mstore(0x40, 0x80)\n      callvalue\n      dup1\n      iszero\n      tag_1\n      jumpi\n      0x00\n      dup1\n      revert\n    tag_1:\n      pop\n      jumpi(tag_2, lt(calldatasize, 0x04))\n      shr(0xe0, calldataload(0x00))\n      dup1\n      0x5daf08ca\n      gt\n      tag_10\n      jumpi\n      dup1\n      0x5daf08ca\n      eq\n      tag_6\n      jumpi\n      dup1\n      0x9f2524ee\n      eq\n      tag_7\n      jumpi\n      dup1\n      0xa230c524\n      eq\n      tag_8\n      jumpi\n      dup1\n      0xa313c371\n      eq\n      tag_9\n      jumpi\n      jump(tag_2)\n    tag_10:\n      dup1\n      0x013cf08b\n      eq\n      tag_3\n      jumpi\n      dup1\n      0x18160ddd\n      eq\n      tag_4\n      jumpi\n      dup1\n      0x27e235e3\n      eq\n      tag_5\n      jumpi\n    tag_2:\n      0x00\n      dup1\n      revert\n        /* \"contracts/MyFirstDAO.sol\":836:863  Proposal[] public proposals */\n    tag_3:\n      tag_11\n      0x04\n      dup1\n      calldatasize\n      sub\n      dup2\n      add\n      swap1\n      tag_12\n      swap2\n      swap1\n      tag_13\n      jump\t// in\n    tag_12:\n      tag_14\n      jump\t// in\n    tag_11:\n      mload(0x40)\n      tag_15\n      swap6\n      swap5\n      swap4\n      swap3\n      swap2\n      swap1\n      tag_16\n      jump\t// in\n    tag_15:\n      mload(0x40)\n      dup1\n      swap2\n      sub\n      swap1\n      return\n        /* \"contracts/MyFirstDAO.sol\":872:895  uint public totalSupply */\n    tag_4:\n      tag_17\n      tag_18\n      jump\t// in\n    tag_17:\n      mload(0x40)\n      tag_19\n      swap2\n      swap1\n      tag_20\n      jump\t// in\n    tag_19:\n      mload(0x40)\n      dup1\n      swap2\n      sub\n      swap1\n      return\n        /* \"contracts/MyFirstDAO.sol\":902:943  mapping (address => uint) public balances */\n    tag_5:\n      tag_21\n      0x04\n      dup1\n      calldatasize\n      sub\n      dup2\n      add\n      swap1\n      tag_22\n      swap2\n      swap1\n      tag_23\n      jump\t// in\n    tag_22:\n      tag_24\n      jump\t// in\n    tag_21:\n      mload(0x40)\n      tag_25\n      swap2\n      swap1\n      tag_20\n      jump\t// in\n    tag_25:\n      mload(0x40)\n      dup1\n      swap2\n      sub\n      swap1\n      return\n        /* \"contracts/MyFirstDAO.sol\":496:520  address[] public members */\n    tag_6:\n      tag_26\n      0x04\n      dup1\n      calldatasize\n      sub\n      dup2\n      add\n      swap1\n      tag_27\n      swap2\n      swap1\n      tag_13\n      jump\t// in\n    tag_27:\n      tag_28\n      jump\t// in\n    tag_26:\n      mload(0x40)\n      tag_29\n      swap2\n      swap1\n      tag_30\n      jump\t// in\n    tag_29:\n      mload(0x40)\n      dup1\n      swap2\n      sub\n      swap1\n      return\n        /* \"contracts/MyFirstDAO.sol\":774:829  mapping(address => mapping (uint => bool)) public votes */\n    tag_7:\n      tag_31\n      0x04\n      dup1\n      calldatasize\n      sub\n      dup2\n      add\n      swap1\n      tag_32\n      swap2\n      swap1\n      tag_33\n      jump\t// in\n    tag_32:\n      tag_34\n      jump\t// in\n    tag_31:\n      mload(0x40)\n      tag_35\n      swap2\n      swap1\n      tag_36\n      jump\t// in\n    tag_35:\n      mload(0x40)\n      dup1\n      swap2\n      sub\n      swap1\n      return\n        /* \"contracts/MyFirstDAO.sol\":565:605  mapping(address => bool) public isMember */\n    tag_8:\n      tag_37\n      0x04\n      dup1\n      calldatasize\n      sub\n      dup2\n      add\n      swap1\n      tag_38\n      swap2\n      swap1\n      tag_23\n      jump\t// in\n    tag_38:\n      tag_39\n      jump\t// in\n    tag_37:\n      mload(0x40)\n      tag_40\n      swap2\n      swap1\n      tag_36\n      jump\t// in\n    tag_40:\n      mload(0x40)\n      dup1\n      swap2\n      sub\n      swap1\n      return\n        /* \"contracts/MyFirstDAO.sol\":675:720  mapping(address => Members) public memberInfo */\n    tag_9:\n      tag_41\n      0x04\n      dup1\n      calldatasize\n      sub\n      dup2\n      add\n      swap1\n      tag_42\n      swap2\n      swap1\n      tag_23\n      jump\t// in\n    tag_42:\n      tag_43\n      jump\t// in\n    tag_41:\n      mload(0x40)\n      tag_44\n      swap4\n      swap3\n      swap2\n      swap1\n      tag_45\n      jump\t// in\n    tag_44:\n      mload(0x40)\n      dup1\n      swap2\n      sub\n      swap1\n      return\n        /* \"contracts/MyFirstDAO.sol\":836:863  Proposal[] public proposals */\n    tag_14:\n      0x04\n      dup2\n      dup2\n      sload\n      dup2\n      lt\n      tag_46\n      jumpi\n      0x00\n      dup1\n      revert\n    tag_46:\n      swap1\n      0x00\n      mstore\n      keccak256(0x00, 0x20)\n      swap1\n      0x05\n      mul\n      add\n      0x00\n      swap2\n      pop\n      swap1\n      pop\n      dup1\n      0x00\n      add\n      dup1\n      sload\n      tag_48\n      swap1\n      tag_49\n      jump\t// in\n    tag_48:\n      dup1\n      0x1f\n      add\n      0x20\n      dup1\n      swap2\n      div\n      mul\n      0x20\n      add\n      mload(0x40)\n      swap1\n      dup2\n      add\n      0x40\n      mstore\n      dup1\n      swap3\n      swap2\n      swap1\n      dup2\n      dup2\n      mstore\n      0x20\n      add\n      dup3\n      dup1\n      sload\n      tag_50\n      swap1\n      tag_49\n      jump\t// in\n    tag_50:\n      dup1\n      iszero\n      tag_51\n      jumpi\n      dup1\n      0x1f\n      lt\n      tag_52\n      jumpi\n      0x0100\n      dup1\n      dup4\n      sload\n      div\n      mul\n      dup4\n      mstore\n      swap2\n      0x20\n      add\n      swap2\n      jump(tag_51)\n    tag_52:\n      dup3\n      add\n      swap2\n      swap1\n      0x00\n      mstore\n      keccak256(0x00, 0x20)\n      swap1\n    tag_53:\n      dup2\n      sload\n      dup2\n      mstore\n      swap1\n      0x01\n      add\n      swap1\n      0x20\n      add\n      dup1\n      dup4\n      gt\n      tag_53\n      jumpi\n      dup3\n      swap1\n      sub\n      0x1f\n      and\n      dup3\n      add\n      swap2\n    tag_51:\n      pop\n      pop\n      pop\n      pop\n      pop\n      swap1\n      dup1\n      0x01\n      add\n      sload\n      swap1\n      dup1\n      0x02\n      add\n      sload\n      swap1\n      dup1\n      0x03\n      add\n      sload\n      swap1\n      dup1\n      0x04\n      add\n      0x00\n      swap1\n      sload\n      swap1\n      0x0100\n      exp\n      swap1\n      div\n      0xff\n      and\n      swap1\n      pop\n      dup6\n      jump\t// out\n        /* \"contracts/MyFirstDAO.sol\":872:895  uint public totalSupply */\n    tag_18:\n      sload(0x05)\n      dup2\n      jump\t// out\n        /* \"contracts/MyFirstDAO.sol\":902:943  mapping (address => uint) public balances */\n    tag_24:\n      mstore(0x20, 0x06)\n      dup1\n      0x00\n      mstore\n      keccak256(0x00, 0x40)\n      0x00\n      swap2\n      pop\n      swap1\n      pop\n      sload\n      dup2\n      jump\t// out\n        /* \"contracts/MyFirstDAO.sol\":496:520  address[] public members */\n    tag_28:\n      0x00\n      dup2\n      dup2\n      sload\n      dup2\n      lt\n      tag_54\n      jumpi\n      0x00\n      dup1\n      revert\n    tag_54:\n      swap1\n      0x00\n      mstore\n      keccak256(0x00, 0x20)\n      add\n      0x00\n      swap2\n      pop\n      sload\n      swap1\n      0x0100\n      exp\n      swap1\n      div\n      0xffffffffffffffffffffffffffffffffffffffff\n      and\n      dup2\n      jump\t// out\n        /* \"contracts/MyFirstDAO.sol\":774:829  mapping(address => mapping (uint => bool)) public votes */\n    tag_34:\n      mstore(0x20, 0x03)\n      dup2\n      0x00\n      mstore\n      mstore(0x20, keccak256(0x00, 0x40))\n      dup1\n      0x00\n      mstore\n      keccak256(0x00, 0x40)\n      0x00\n      swap2\n      pop\n      swap2\n      pop\n      swap1\n      sload\n      swap1\n      0x0100\n      exp\n      swap1\n      div\n      0xff\n      and\n      dup2\n      jump\t// out\n        /* \"contracts/MyFirstDAO.sol\":565:605  mapping(address => bool) public isMember */\n    tag_39:\n      mstore(0x20, 0x01)\n      dup1\n      0x00\n      mstore\n      keccak256(0x00, 0x40)\n      0x00\n      swap2\n      pop\n      sload\n      swap1\n      0x0100\n      exp\n      swap1\n      div\n      0xff\n      and\n      dup2\n      jump\t// out\n        /* \"contracts/MyFirstDAO.sol\":675:720  mapping(address => Members) public memberInfo */\n    tag_43:\n      mstore(0x20, 0x02)\n      dup1\n      0x00\n      mstore\n      keccak256(0x00, 0x40)\n      0x00\n      swap2\n      pop\n      swap1\n      pop\n      dup1\n      0x00\n      add\n      0x00\n      swap1\n      sload\n      swap1\n      0x0100\n      exp\n      swap1\n      div\n      0xffffffffffffffffffffffffffffffffffffffff\n      and\n      swap1\n      dup1\n      0x01\n      add\n      sload\n      swap1\n      dup1\n      0x02\n      add\n      sload\n      swap1\n      pop\n      dup4\n      jump\t// out\n        /* \"#utility.yul\":88:205   */\n    tag_57:\n        /* \"#utility.yul\":197:198   */\n      0x00\n        /* \"#utility.yul\":194:195   */\n      dup1\n        /* \"#utility.yul\":187:199   */\n      revert\n        /* \"#utility.yul\":334:411   */\n    tag_59:\n        /* \"#utility.yul\":371:378   */\n      0x00\n        /* \"#utility.yul\":400:405   */\n      dup2\n        /* \"#utility.yul\":389:405   */\n      swap1\n      pop\n        /* \"#utility.yul\":334:411   */\n      swap2\n      swap1\n      pop\n      jump\t// out\n        /* \"#utility.yul\":417:539   */\n    tag_60:\n        /* \"#utility.yul\":490:514   */\n      tag_82\n        /* \"#utility.yul\":508:513   */\n      dup2\n        /* \"#utility.yul\":490:514   */\n      tag_59\n      jump\t// in\n    tag_82:\n        /* \"#utility.yul\":483:488   */\n      dup2\n        /* \"#utility.yul\":480:515   */\n      eq\n        /* \"#utility.yul\":470:533   */\n      tag_83\n      jumpi\n        /* \"#utility.yul\":529:530   */\n      0x00\n        /* \"#utility.yul\":526:527   */\n      dup1\n        /* \"#utility.yul\":519:531   */\n      revert\n        /* \"#utility.yul\":470:533   */\n    tag_83:\n        /* \"#utility.yul\":417:539   */\n      pop\n      jump\t// out\n        /* \"#utility.yul\":545:684   */\n    tag_61:\n        /* \"#utility.yul\":591:596   */\n      0x00\n        /* \"#utility.yul\":629:635   */\n      dup2\n        /* \"#utility.yul\":616:636   */\n      calldataload\n        /* \"#utility.yul\":607:636   */\n      swap1\n      pop\n        /* \"#utility.yul\":645:678   */\n      tag_85\n        /* \"#utility.yul\":672:677   */\n      dup2\n        /* \"#utility.yul\":645:678   */\n      tag_60\n      jump\t// in\n    tag_85:\n        /* \"#utility.yul\":545:684   */\n      swap3\n      swap2\n      pop\n      pop\n      jump\t// out\n        /* \"#utility.yul\":690:1019   */\n    tag_13:\n        /* \"#utility.yul\":749:755   */\n      0x00\n        /* \"#utility.yul\":798:800   */\n      0x20\n        /* \"#utility.yul\":786:795   */\n      dup3\n        /* \"#utility.yul\":777:784   */\n      dup5\n        /* \"#utility.yul\":773:796   */\n      sub\n        /* \"#utility.yul\":769:801   */\n      slt\n        /* \"#utility.yul\":766:885   */\n      iszero\n      tag_87\n      jumpi\n        /* \"#utility.yul\":804:883   */\n      tag_88\n      tag_57\n      jump\t// in\n    tag_88:\n        /* \"#utility.yul\":766:885   */\n    tag_87:\n        /* \"#utility.yul\":924:925   */\n      0x00\n        /* \"#utility.yul\":949:1002   */\n      tag_89\n        /* \"#utility.yul\":994:1001   */\n      dup5\n        /* \"#utility.yul\":985:991   */\n      dup3\n        /* \"#utility.yul\":974:983   */\n      dup6\n        /* \"#utility.yul\":970:992   */\n      add\n        /* \"#utility.yul\":949:1002   */\n      tag_61\n      jump\t// in\n    tag_89:\n        /* \"#utility.yul\":939:1002   */\n      swap2\n      pop\n        /* \"#utility.yul\":895:1012   */\n      pop\n        /* \"#utility.yul\":690:1019   */\n      swap3\n      swap2\n      pop\n      pop\n      jump\t// out\n        /* \"#utility.yul\":1025:1124   */\n    tag_62:\n        /* \"#utility.yul\":1077:1083   */\n      0x00\n        /* \"#utility.yul\":1111:1116   */\n      dup2\n        /* \"#utility.yul\":1105:1117   */\n      mload\n        /* \"#utility.yul\":1095:1117   */\n      swap1\n      pop\n        /* \"#utility.yul\":1025:1124   */\n      swap2\n      swap1\n      pop\n      jump\t// out\n        /* \"#utility.yul\":1130:1299   */\n    tag_63:\n        /* \"#utility.yul\":1214:1225   */\n      0x00\n        /* \"#utility.yul\":1248:1254   */\n      dup3\n        /* \"#utility.yul\":1243:1246   */\n      dup3\n        /* \"#utility.yul\":1236:1255   */\n      mstore\n        /* \"#utility.yul\":1288:1292   */\n      0x20\n        /* \"#utility.yul\":1283:1286   */\n      dup3\n        /* \"#utility.yul\":1279:1293   */\n      add\n        /* \"#utility.yul\":1264:1293   */\n      swap1\n      pop\n        /* \"#utility.yul\":1130:1299   */\n      swap3\n      swap2\n      pop\n      pop\n      jump\t// out\n        /* \"#utility.yul\":1305:1551   */\n    tag_64:\n        /* \"#utility.yul\":1386:1387   */\n      0x00\n        /* \"#utility.yul\":1396:1509   */\n    tag_93:\n        /* \"#utility.yul\":1410:1416   */\n      dup4\n        /* \"#utility.yul\":1407:1408   */\n      dup2\n        /* \"#utility.yul\":1404:1417   */\n      lt\n        /* \"#utility.yul\":1396:1509   */\n      iszero\n      tag_95\n      jumpi\n        /* \"#utility.yul\":1495:1496   */\n      dup1\n        /* \"#utility.yul\":1490:1493   */\n      dup3\n        /* \"#utility.yul\":1486:1497   */\n      add\n        /* \"#utility.yul\":1480:1498   */\n      mload\n        /* \"#utility.yul\":1476:1477   */\n      dup2\n        /* \"#utility.yul\":1471:1474   */\n      dup5\n        /* \"#utility.yul\":1467:1478   */\n      add\n        /* \"#utility.yul\":1460:1499   */\n      mstore\n        /* \"#utility.yul\":1432:1434   */\n      0x20\n        /* \"#utility.yul\":1429:1430   */\n      dup2\n        /* \"#utility.yul\":1425:1435   */\n      add\n        /* \"#utility.yul\":1420:1435   */\n      swap1\n      pop\n        /* \"#utility.yul\":1396:1509   */\n      jump(tag_93)\n    tag_95:\n        /* \"#utility.yul\":1543:1544   */\n      0x00\n        /* \"#utility.yul\":1534:1540   */\n      dup5\n        /* \"#utility.yul\":1529:1532   */\n      dup5\n        /* \"#utility.yul\":1525:1541   */\n      add\n        /* \"#utility.yul\":1518:1545   */\n      mstore\n        /* \"#utility.yul\":1367:1551   */\n      pop\n        /* \"#utility.yul\":1305:1551   */\n      pop\n      pop\n      pop\n      jump\t// out\n        /* \"#utility.yul\":1557:1659   */\n    tag_65:\n        /* \"#utility.yul\":1598:1604   */\n      0x00\n        /* \"#utility.yul\":1649:1651   */\n      0x1f\n        /* \"#utility.yul\":1645:1652   */\n      not\n        /* \"#utility.yul\":1640:1642   */\n      0x1f\n        /* \"#utility.yul\":1633:1638   */\n      dup4\n        /* \"#utility.yul\":1629:1643   */\n      add\n        /* \"#utility.yul\":1625:1653   */\n      and\n        /* \"#utility.yul\":1615:1653   */\n      swap1\n      pop\n        /* \"#utility.yul\":1557:1659   */\n      swap2\n      swap1\n      pop\n      jump\t// out\n        /* \"#utility.yul\":1665:2042   */\n    tag_66:\n        /* \"#utility.yul\":1753:1756   */\n      0x00\n        /* \"#utility.yul\":1781:1820   */\n      tag_98\n        /* \"#utility.yul\":1814:1819   */\n      dup3\n        /* \"#utility.yul\":1781:1820   */\n      tag_62\n      jump\t// in\n    tag_98:\n        /* \"#utility.yul\":1836:1907   */\n      tag_99\n        /* \"#utility.yul\":1900:1906   */\n      dup2\n        /* \"#utility.yul\":1895:1898   */\n      dup6\n        /* \"#utility.yul\":1836:1907   */\n      tag_63\n      jump\t// in\n    tag_99:\n        /* \"#utility.yul\":1829:1907   */\n      swap4\n      pop\n        /* \"#utility.yul\":1916:1981   */\n      tag_100\n        /* \"#utility.yul\":1974:1980   */\n      dup2\n        /* \"#utility.yul\":1969:1972   */\n      dup6\n        /* \"#utility.yul\":1962:1966   */\n      0x20\n        /* \"#utility.yul\":1955:1960   */\n      dup7\n        /* \"#utility.yul\":1951:1967   */\n      add\n        /* \"#utility.yul\":1916:1981   */\n      tag_64\n      jump\t// in\n    tag_100:\n        /* \"#utility.yul\":2006:2035   */\n      tag_101\n        /* \"#utility.yul\":2028:2034   */\n      dup2\n        /* \"#utility.yul\":2006:2035   */\n      tag_65\n      jump\t// in\n    tag_101:\n        /* \"#utility.yul\":2001:2004   */\n      dup5\n        /* \"#utility.yul\":1997:2036   */\n      add\n        /* \"#utility.yul\":1990:2036   */\n      swap2\n      pop\n        /* \"#utility.yul\":1757:2042   */\n      pop\n        /* \"#utility.yul\":1665:2042   */\n      swap3\n      swap2\n      pop\n      pop\n      jump\t// out\n        /* \"#utility.yul\":2048:2166   */\n    tag_67:\n        /* \"#utility.yul\":2135:2159   */\n      tag_103\n        /* \"#utility.yul\":2153:2158   */\n      dup2\n        /* \"#utility.yul\":2135:2159   */\n      tag_59\n      jump\t// in\n    tag_103:\n        /* \"#utility.yul\":2130:2133   */\n      dup3\n        /* \"#utility.yul\":2123:2160   */\n      mstore\n        /* \"#utility.yul\":2048:2166   */\n      pop\n      pop\n      jump\t// out\n        /* \"#utility.yul\":2172:2262   */\n    tag_68:\n        /* \"#utility.yul\":2206:2213   */\n      0x00\n        /* \"#utility.yul\":2249:2254   */\n      dup2\n        /* \"#utility.yul\":2242:2255   */\n      iszero\n        /* \"#utility.yul\":2235:2256   */\n      iszero\n        /* \"#utility.yul\":2224:2256   */\n      swap1\n      pop\n        /* \"#utility.yul\":2172:2262   */\n      swap2\n      swap1\n      pop\n      jump\t// out\n        /* \"#utility.yul\":2268:2377   */\n    tag_69:\n        /* \"#utility.yul\":2349:2370   */\n      tag_106\n        /* \"#utility.yul\":2364:2369   */\n      dup2\n        /* \"#utility.yul\":2349:2370   */\n      tag_68\n      jump\t// in\n    tag_106:\n        /* \"#utility.yul\":2344:2347   */\n      dup3\n        /* \"#utility.yul\":2337:2371   */\n      mstore\n        /* \"#utility.yul\":2268:2377   */\n      pop\n      pop\n      jump\t// out\n        /* \"#utility.yul\":2383:3126   */\n    tag_16:\n        /* \"#utility.yul\":2602:2606   */\n      0x00\n        /* \"#utility.yul\":2640:2643   */\n      0xa0\n        /* \"#utility.yul\":2629:2638   */\n      dup3\n        /* \"#utility.yul\":2625:2644   */\n      add\n        /* \"#utility.yul\":2617:2644   */\n      swap1\n      pop\n        /* \"#utility.yul\":2690:2699   */\n      dup2\n        /* \"#utility.yul\":2684:2688   */\n      dup2\n        /* \"#utility.yul\":2680:2700   */\n      sub\n        /* \"#utility.yul\":2676:2677   */\n      0x00\n        /* \"#utility.yul\":2665:2674   */\n      dup4\n        /* \"#utility.yul\":2661:2678   */\n      add\n        /* \"#utility.yul\":2654:2701   */\n      mstore\n        /* \"#utility.yul\":2718:2796   */\n      tag_108\n        /* \"#utility.yul\":2791:2795   */\n      dup2\n        /* \"#utility.yul\":2782:2788   */\n      dup9\n        /* \"#utility.yul\":2718:2796   */\n      tag_66\n      jump\t// in\n    tag_108:\n        /* \"#utility.yul\":2710:2796   */\n      swap1\n      pop\n        /* \"#utility.yul\":2806:2878   */\n      tag_109\n        /* \"#utility.yul\":2874:2876   */\n      0x20\n        /* \"#utility.yul\":2863:2872   */\n      dup4\n        /* \"#utility.yul\":2859:2877   */\n      add\n        /* \"#utility.yul\":2850:2856   */\n      dup8\n        /* \"#utility.yul\":2806:2878   */\n      tag_67\n      jump\t// in\n    tag_109:\n        /* \"#utility.yul\":2888:2960   */\n      tag_110\n        /* \"#utility.yul\":2956:2958   */\n      0x40\n        /* \"#utility.yul\":2945:2954   */\n      dup4\n        /* \"#utility.yul\":2941:2959   */\n      add\n        /* \"#utility.yul\":2932:2938   */\n      dup7\n        /* \"#utility.yul\":2888:2960   */\n      tag_67\n      jump\t// in\n    tag_110:\n        /* \"#utility.yul\":2970:3042   */\n      tag_111\n        /* \"#utility.yul\":3038:3040   */\n      0x60\n        /* \"#utility.yul\":3027:3036   */\n      dup4\n        /* \"#utility.yul\":3023:3041   */\n      add\n        /* \"#utility.yul\":3014:3020   */\n      dup6\n        /* \"#utility.yul\":2970:3042   */\n      tag_67\n      jump\t// in\n    tag_111:\n        /* \"#utility.yul\":3052:3119   */\n      tag_112\n        /* \"#utility.yul\":3114:3117   */\n      0x80\n        /* \"#utility.yul\":3103:3112   */\n      dup4\n        /* \"#utility.yul\":3099:3118   */\n      add\n        /* \"#utility.yul\":3090:3096   */\n      dup5\n        /* \"#utility.yul\":3052:3119   */\n      tag_69\n      jump\t// in\n    tag_112:\n        /* \"#utility.yul\":2383:3126   */\n      swap7\n      swap6\n      pop\n      pop\n      pop\n      pop\n      pop\n      pop\n      jump\t// out\n        /* \"#utility.yul\":3132:3354   */\n    tag_20:\n        /* \"#utility.yul\":3225:3229   */\n      0x00\n        /* \"#utility.yul\":3263:3265   */\n      0x20\n        /* \"#utility.yul\":3252:3261   */\n      dup3\n        /* \"#utility.yul\":3248:3266   */\n      add\n        /* \"#utility.yul\":3240:3266   */\n      swap1\n      pop\n        /* \"#utility.yul\":3276:3347   */\n      tag_114\n        /* \"#utility.yul\":3344:3345   */\n      0x00\n        /* \"#utility.yul\":3333:3342   */\n      dup4\n        /* \"#utility.yul\":3329:3346   */\n      add\n        /* \"#utility.yul\":3320:3326   */\n      dup5\n        /* \"#utility.yul\":3276:3347   */\n      tag_67\n      jump\t// in\n    tag_114:\n        /* \"#utility.yul\":3132:3354   */\n      swap3\n      swap2\n      pop\n      pop\n      jump\t// out\n        /* \"#utility.yul\":3360:3486   */\n    tag_70:\n        /* \"#utility.yul\":3397:3404   */\n      0x00\n        /* \"#utility.yul\":3437:3479   */\n      0xffffffffffffffffffffffffffffffffffffffff\n        /* \"#utility.yul\":3430:3435   */\n      dup3\n        /* \"#utility.yul\":3426:3480   */\n      and\n        /* \"#utility.yul\":3415:3480   */\n      swap1\n      pop\n        /* \"#utility.yul\":3360:3486   */\n      swap2\n      swap1\n      pop\n      jump\t// out\n        /* \"#utility.yul\":3492:3588   */\n    tag_71:\n        /* \"#utility.yul\":3529:3536   */\n      0x00\n        /* \"#utility.yul\":3558:3582   */\n      tag_117\n        /* \"#utility.yul\":3576:3581   */\n      dup3\n        /* \"#utility.yul\":3558:3582   */\n      tag_70\n      jump\t// in\n    tag_117:\n        /* \"#utility.yul\":3547:3582   */\n      swap1\n      pop\n        /* \"#utility.yul\":3492:3588   */\n      swap2\n      swap1\n      pop\n      jump\t// out\n        /* \"#utility.yul\":3594:3716   */\n    tag_72:\n        /* \"#utility.yul\":3667:3691   */\n      tag_119\n        /* \"#utility.yul\":3685:3690   */\n      dup2\n        /* \"#utility.yul\":3667:3691   */\n      tag_71\n      jump\t// in\n    tag_119:\n        /* \"#utility.yul\":3660:3665   */\n      dup2\n        /* \"#utility.yul\":3657:3692   */\n      eq\n        /* \"#utility.yul\":3647:3710   */\n      tag_120\n      jumpi\n        /* \"#utility.yul\":3706:3707   */\n      0x00\n        /* \"#utility.yul\":3703:3704   */\n      dup1\n        /* \"#utility.yul\":3696:3708   */\n      revert\n        /* \"#utility.yul\":3647:3710   */\n    tag_120:\n        /* \"#utility.yul\":3594:3716   */\n      pop\n      jump\t// out\n        /* \"#utility.yul\":3722:3861   */\n    tag_73:\n        /* \"#utility.yul\":3768:3773   */\n      0x00\n        /* \"#utility.yul\":3806:3812   */\n      dup2\n        /* \"#utility.yul\":3793:3813   */\n      calldataload\n        /* \"#utility.yul\":3784:3813   */\n      swap1\n      pop\n        /* \"#utility.yul\":3822:3855   */\n      tag_122\n        /* \"#utility.yul\":3849:3854   */\n      dup2\n        /* \"#utility.yul\":3822:3855   */\n      tag_72\n      jump\t// in\n    tag_122:\n        /* \"#utility.yul\":3722:3861   */\n      swap3\n      swap2\n      pop\n      pop\n      jump\t// out\n        /* \"#utility.yul\":3867:4196   */\n    tag_23:\n        /* \"#utility.yul\":3926:3932   */\n      0x00\n        /* \"#utility.yul\":3975:3977   */\n      0x20\n        /* \"#utility.yul\":3963:3972   */\n      dup3\n        /* \"#utility.yul\":3954:3961   */\n      dup5\n        /* \"#utility.yul\":3950:3973   */\n      sub\n        /* \"#utility.yul\":3946:3978   */\n      slt\n        /* \"#utility.yul\":3943:4062   */\n      iszero\n      tag_124\n      jumpi\n        /* \"#utility.yul\":3981:4060   */\n      tag_125\n      tag_57\n      jump\t// in\n    tag_125:\n        /* \"#utility.yul\":3943:4062   */\n    tag_124:\n        /* \"#utility.yul\":4101:4102   */\n      0x00\n        /* \"#utility.yul\":4126:4179   */\n      tag_126\n        /* \"#utility.yul\":4171:4178   */\n      dup5\n        /* \"#utility.yul\":4162:4168   */\n      dup3\n        /* \"#utility.yul\":4151:4160   */\n      dup6\n        /* \"#utility.yul\":4147:4169   */\n      add\n        /* \"#utility.yul\":4126:4179   */\n      tag_73\n      jump\t// in\n    tag_126:\n        /* \"#utility.yul\":4116:4179   */\n      swap2\n      pop\n        /* \"#utility.yul\":4072:4189   */\n      pop\n        /* \"#utility.yul\":3867:4196   */\n      swap3\n      swap2\n      pop\n      pop\n      jump\t// out\n        /* \"#utility.yul\":4202:4320   */\n    tag_74:\n        /* \"#utility.yul\":4289:4313   */\n      tag_128\n        /* \"#utility.yul\":4307:4312   */\n      dup2\n        /* \"#utility.yul\":4289:4313   */\n      tag_71\n      jump\t// in\n    tag_128:\n        /* \"#utility.yul\":4284:4287   */\n      dup3\n        /* \"#utility.yul\":4277:4314   */\n      mstore\n        /* \"#utility.yul\":4202:4320   */\n      pop\n      pop\n      jump\t// out\n        /* \"#utility.yul\":4326:4548   */\n    tag_30:\n        /* \"#utility.yul\":4419:4423   */\n      0x00\n        /* \"#utility.yul\":4457:4459   */\n      0x20\n        /* \"#utility.yul\":4446:4455   */\n      dup3\n        /* \"#utility.yul\":4442:4460   */\n      add\n        /* \"#utility.yul\":4434:4460   */\n      swap1\n      pop\n        /* \"#utility.yul\":4470:4541   */\n      tag_130\n        /* \"#utility.yul\":4538:4539   */\n      0x00\n        /* \"#utility.yul\":4527:4536   */\n      dup4\n        /* \"#utility.yul\":4523:4540   */\n      add\n        /* \"#utility.yul\":4514:4520   */\n      dup5\n        /* \"#utility.yul\":4470:4541   */\n      tag_74\n      jump\t// in\n    tag_130:\n        /* \"#utility.yul\":4326:4548   */\n      swap3\n      swap2\n      pop\n      pop\n      jump\t// out\n        /* \"#utility.yul\":4554:5028   */\n    tag_33:\n        /* \"#utility.yul\":4622:4628   */\n      0x00\n        /* \"#utility.yul\":4630:4636   */\n      dup1\n        /* \"#utility.yul\":4679:4681   */\n      0x40\n        /* \"#utility.yul\":4667:4676   */\n      dup4\n        /* \"#utility.yul\":4658:4665   */\n      dup6\n        /* \"#utility.yul\":4654:4677   */\n      sub\n        /* \"#utility.yul\":4650:4682   */\n      slt\n        /* \"#utility.yul\":4647:4766   */\n      iszero\n      tag_132\n      jumpi\n        /* \"#utility.yul\":4685:4764   */\n      tag_133\n      tag_57\n      jump\t// in\n    tag_133:\n        /* \"#utility.yul\":4647:4766   */\n    tag_132:\n        /* \"#utility.yul\":4805:4806   */\n      0x00\n        /* \"#utility.yul\":4830:4883   */\n      tag_134\n        /* \"#utility.yul\":4875:4882   */\n      dup6\n        /* \"#utility.yul\":4866:4872   */\n      dup3\n        /* \"#utility.yul\":4855:4864   */\n      dup7\n        /* \"#utility.yul\":4851:4873   */\n      add\n        /* \"#utility.yul\":4830:4883   */\n      tag_73\n      jump\t// in\n    tag_134:\n        /* \"#utility.yul\":4820:4883   */\n      swap3\n      pop\n        /* \"#utility.yul\":4776:4893   */\n      pop\n        /* \"#utility.yul\":4932:4934   */\n      0x20\n        /* \"#utility.yul\":4958:5011   */\n      tag_135\n        /* \"#utility.yul\":5003:5010   */\n      dup6\n        /* \"#utility.yul\":4994:5000   */\n      dup3\n        /* \"#utility.yul\":4983:4992   */\n      dup7\n        /* \"#utility.yul\":4979:5001   */\n      add\n        /* \"#utility.yul\":4958:5011   */\n      tag_61\n      jump\t// in\n    tag_135:\n        /* \"#utility.yul\":4948:5011   */\n      swap2\n      pop\n        /* \"#utility.yul\":4903:5021   */\n      pop\n        /* \"#utility.yul\":4554:5028   */\n      swap3\n      pop\n      swap3\n      swap1\n      pop\n      jump\t// out\n        /* \"#utility.yul\":5034:5244   */\n    tag_36:\n        /* \"#utility.yul\":5121:5125   */\n      0x00\n        /* \"#utility.yul\":5159:5161   */\n      0x20\n        /* \"#utility.yul\":5148:5157   */\n      dup3\n        /* \"#utility.yul\":5144:5162   */\n      add\n        /* \"#utility.yul\":5136:5162   */\n      swap1\n      pop\n        /* \"#utility.yul\":5172:5237   */\n      tag_137\n        /* \"#utility.yul\":5234:5235   */\n      0x00\n        /* \"#utility.yul\":5223:5232   */\n      dup4\n        /* \"#utility.yul\":5219:5236   */\n      add\n        /* \"#utility.yul\":5210:5216   */\n      dup5\n        /* \"#utility.yul\":5172:5237   */\n      tag_69\n      jump\t// in\n    tag_137:\n        /* \"#utility.yul\":5034:5244   */\n      swap3\n      swap2\n      pop\n      pop\n      jump\t// out\n        /* \"#utility.yul\":5250:5692   */\n    tag_45:\n        /* \"#utility.yul\":5399:5403   */\n      0x00\n        /* \"#utility.yul\":5437:5439   */\n      0x60\n        /* \"#utility.yul\":5426:5435   */\n      dup3\n        /* \"#utility.yul\":5422:5440   */\n      add\n        /* \"#utility.yul\":5414:5440   */\n      swap1\n      pop\n        /* \"#utility.yul\":5450:5521   */\n      tag_139\n        /* \"#utility.yul\":5518:5519   */\n      0x00\n        /* \"#utility.yul\":5507:5516   */\n      dup4\n        /* \"#utility.yul\":5503:5520   */\n      add\n        /* \"#utility.yul\":5494:5500   */\n      dup7\n        /* \"#utility.yul\":5450:5521   */\n      tag_74\n      jump\t// in\n    tag_139:\n        /* \"#utility.yul\":5531:5603   */\n      tag_140\n        /* \"#utility.yul\":5599:5601   */\n      0x20\n        /* \"#utility.yul\":5588:5597   */\n      dup4\n        /* \"#utility.yul\":5584:5602   */\n      add\n        /* \"#utility.yul\":5575:5581   */\n      dup6\n        /* \"#utility.yul\":5531:5603   */\n      tag_67\n      jump\t// in\n    tag_140:\n        /* \"#utility.yul\":5613:5685   */\n      tag_141\n        /* \"#utility.yul\":5681:5683   */\n      0x40\n        /* \"#utility.yul\":5670:5679   */\n      dup4\n        /* \"#utility.yul\":5666:5684   */\n      add\n        /* \"#utility.yul\":5657:5663   */\n      dup5\n        /* \"#utility.yul\":5613:5685   */\n      tag_67\n      jump\t// in\n    tag_141:\n        /* \"#utility.yul\":5250:5692   */\n      swap5\n      swap4\n      pop\n      pop\n      pop\n      pop\n      jump\t// out\n        /* \"#utility.yul\":5698:5878   */\n    tag_75:\n        /* \"#utility.yul\":5746:5823   */\n      0x4e487b7100000000000000000000000000000000000000000000000000000000\n        /* \"#utility.yul\":5743:5744   */\n      0x00\n        /* \"#utility.yul\":5736:5824   */\n      mstore\n        /* \"#utility.yul\":5843:5847   */\n      0x22\n        /* \"#utility.yul\":5840:5841   */\n      0x04\n        /* \"#utility.yul\":5833:5848   */\n      mstore\n        /* \"#utility.yul\":5867:5871   */\n      0x24\n        /* \"#utility.yul\":5864:5865   */\n      0x00\n        /* \"#utility.yul\":5857:5872   */\n      revert\n        /* \"#utility.yul\":5884:6204   */\n    tag_49:\n        /* \"#utility.yul\":5928:5934   */\n      0x00\n        /* \"#utility.yul\":5965:5966   */\n      0x02\n        /* \"#utility.yul\":5959:5963   */\n      dup3\n        /* \"#utility.yul\":5955:5967   */\n      div\n        /* \"#utility.yul\":5945:5967   */\n      swap1\n      pop\n        /* \"#utility.yul\":6012:6013   */\n      0x01\n        /* \"#utility.yul\":6006:6010   */\n      dup3\n        /* \"#utility.yul\":6002:6014   */\n      and\n        /* \"#utility.yul\":6033:6051   */\n      dup1\n        /* \"#utility.yul\":6023:6104   */\n      tag_144\n      jumpi\n        /* \"#utility.yul\":6089:6093   */\n      0x7f\n        /* \"#utility.yul\":6081:6087   */\n      dup3\n        /* \"#utility.yul\":6077:6094   */\n      and\n        /* \"#utility.yul\":6067:6094   */\n      swap2\n      pop\n        /* \"#utility.yul\":6023:6104   */\n    tag_144:\n        /* \"#utility.yul\":6151:6153   */\n      0x20\n        /* \"#utility.yul\":6143:6149   */\n      dup3\n        /* \"#utility.yul\":6140:6154   */\n      lt\n        /* \"#utility.yul\":6120:6138   */\n      dup2\n        /* \"#utility.yul\":6117:6155   */\n      sub\n        /* \"#utility.yul\":6114:6198   */\n      tag_145\n      jumpi\n        /* \"#utility.yul\":6170:6188   */\n      tag_146\n      tag_75\n      jump\t// in\n    tag_146:\n        /* \"#utility.yul\":6114:6198   */\n    tag_145:\n        /* \"#utility.yul\":5935:6204   */\n      pop\n        /* \"#utility.yul\":5884:6204   */\n      swap2\n      swap1\n      pop\n      jump\t// out\n\n    auxdata: 0xa26469706673582212209d81faab0722ce03d1ce6a6886fbb0d655e372f3bd1313e7524094631862cd1b64736f6c63430008160033\n}\n",
				"bytecode": {
					"linkReferences": {},
					"object": "608060405234801561000f575f80fd5b506106c98061001d5f395ff3fe608060405234801561000f575f80fd5b506004361061007b575f3560e01c80635daf08ca116100595780635daf08ca146101015780639f2524ee14610131578063a230c52414610161578063a313c371146101915761007b565b8063013cf08b1461007f57806318160ddd146100b357806327e235e3146100d1575b5f80fd5b610099600480360381019061009491906103ae565b6101c3565b6040516100aa95949392919061048c565b60405180910390f35b6100bb610296565b6040516100c891906104e4565b60405180910390f35b6100eb60048036038101906100e69190610557565b61029c565b6040516100f891906104e4565b60405180910390f35b61011b600480360381019061011691906103ae565b6102b1565b6040516101289190610591565b60405180910390f35b61014b600480360381019061014691906105aa565b6102eb565b60405161015891906105e8565b60405180910390f35b61017b60048036038101906101769190610557565b610315565b60405161018891906105e8565b60405180910390f35b6101ab60048036038101906101a69190610557565b610332565b6040516101ba93929190610601565b60405180910390f35b600481815481106101d2575f80fd5b905f5260205f2090600502015f91509050805f0180546101f190610663565b80601f016020809104026020016040519081016040528092919081815260200182805461021d90610663565b80156102685780601f1061023f57610100808354040283529160200191610268565b820191905f5260205f20905b81548152906001019060200180831161024b57829003601f168201915b505050505090806001015490806002015490806003015490806004015f9054906101000a900460ff16905085565b60055481565b6006602052805f5260405f205f915090505481565b5f81815481106102bf575f80fd5b905f5260205f20015f915054906101000a900473ffffffffffffffffffffffffffffffffffffffff1681565b6003602052815f5260405f20602052805f5260405f205f915091509054906101000a900460ff1681565b6001602052805f5260405f205f915054906101000a900460ff1681565b6002602052805f5260405f205f91509050805f015f9054906101000a900473ffffffffffffffffffffffffffffffffffffffff16908060010154908060020154905083565b5f80fd5b5f819050919050565b61038d8161037b565b8114610397575f80fd5b50565b5f813590506103a881610384565b92915050565b5f602082840312156103c3576103c2610377565b5b5f6103d08482850161039a565b91505092915050565b5f81519050919050565b5f82825260208201905092915050565b5f5b838110156104105780820151818401526020810190506103f5565b5f8484015250505050565b5f601f19601f8301169050919050565b5f610435826103d9565b61043f81856103e3565b935061044f8185602086016103f3565b6104588161041b565b840191505092915050565b61046c8161037b565b82525050565b5f8115159050919050565b61048681610472565b82525050565b5f60a0820190508181035f8301526104a4818861042b565b90506104b36020830187610463565b6104c06040830186610463565b6104cd6060830185610463565b6104da608083018461047d565b9695505050505050565b5f6020820190506104f75f830184610463565b92915050565b5f73ffffffffffffffffffffffffffffffffffffffff82169050919050565b5f610526826104fd565b9050919050565b6105368161051c565b8114610540575f80fd5b50565b5f813590506105518161052d565b92915050565b5f6020828403121561056c5761056b610377565b5b5f61057984828501610543565b91505092915050565b61058b8161051c565b82525050565b5f6020820190506105a45f830184610582565b92915050565b5f80604083850312156105c0576105bf610377565b5b5f6105cd85828601610543565b92505060206105de8582860161039a565b9150509250929050565b5f6020820190506105fb5f83018461047d565b92915050565b5f6060820190506106145f830186610582565b6106216020830185610463565b61062e6040830184610463565b949350505050565b7f4e487b71000000000000000000000000000000000000000000000000000000005f52602260045260245ffd5b5f600282049050600182168061067a57607f821691505b60208210810361068d5761068c610636565b5b5091905056fea26469706673582212209d81faab0722ce03d1ce6a6886fbb0d655e372f3bd1313e7524094631862cd1b64736f6c63430008160033",
					"opcodes": "PUSH1 0x80 PUSH1 0x40 MSTORE CALLVALUE DUP1 ISZERO PUSH2 0xF JUMPI PUSH0 DUP1 REVERT JUMPDEST POP PUSH2 0x6C9 DUP1 PUSH2 0x1D PUSH0 CODECOPY PUSH0 RETURN INVALID PUSH1 0x80 PUSH1 0x40 MSTORE CALLVALUE DUP1 ISZERO PUSH2 0xF JUMPI PUSH0 DUP1 REVERT JUMPDEST POP PUSH1 0x4 CALLDATASIZE LT PUSH2 0x7B JUMPI PUSH0 CALLDATALOAD PUSH1 0xE0 SHR DUP1 PUSH4 0x5DAF08CA GT PUSH2 0x59 JUMPI DUP1 PUSH4 0x5DAF08CA EQ PUSH2 0x101 JUMPI DUP1 PUSH4 0x9F2524EE EQ PUSH2 0x131 JUMPI DUP1 PUSH4 0xA230C524 EQ PUSH2 0x161 JUMPI DUP1 PUSH4 0xA313C371 EQ PUSH2 0x191 JUMPI PUSH2 0x7B JUMP JUMPDEST DUP1 PUSH4 0x13CF08B EQ PUSH2 0x7F JUMPI DUP1 PUSH4 0x18160DDD EQ PUSH2 0xB3 JUMPI DUP1 PUSH4 0x27E235E3 EQ PUSH2 0xD1 JUMPI JUMPDEST PUSH0 DUP1 REVERT JUMPDEST PUSH2 0x99 PUSH1 0x4 DUP1 CALLDATASIZE SUB DUP2 ADD SWAP1 PUSH2 0x94 SWAP2 SWAP1 PUSH2 0x3AE JUMP JUMPDEST PUSH2 0x1C3 JUMP JUMPDEST PUSH1 0x40 MLOAD PUSH2 0xAA SWAP6 SWAP5 SWAP4 SWAP3 SWAP2 SWAP1 PUSH2 0x48C JUMP JUMPDEST PUSH1 0x40 MLOAD DUP1 SWAP2 SUB SWAP1 RETURN JUMPDEST PUSH2 0xBB PUSH2 0x296 JUMP JUMPDEST PUSH1 0x40 MLOAD PUSH2 0xC8 SWAP2 SWAP1 PUSH2 0x4E4 JUMP JUMPDEST PUSH1 0x40 MLOAD DUP1 SWAP2 SUB SWAP1 RETURN JUMPDEST PUSH2 0xEB PUSH1 0x4 DUP1 CALLDATASIZE SUB DUP2 ADD SWAP1 PUSH2 0xE6 SWAP2 SWAP1 PUSH2 0x557 JUMP JUMPDEST PUSH2 0x29C JUMP JUMPDEST PUSH1 0x40 MLOAD PUSH2 0xF8 SWAP2 SWAP1 PUSH2 0x4E4 JUMP JUMPDEST PUSH1 0x40 MLOAD DUP1 SWAP2 SUB SWAP1 RETURN JUMPDEST PUSH2 0x11B PUSH1 0x4 DUP1 CALLDATASIZE SUB DUP2 ADD SWAP1 PUSH2 0x116 SWAP2 SWAP1 PUSH2 0x3AE JUMP JUMPDEST PUSH2 0x2B1 JUMP JUMPDEST PUSH1 0x40 MLOAD PUSH2 0x128 SWAP2 SWAP1 PUSH2 0x591 JUMP JUMPDEST PUSH1 0x40 MLOAD DUP1 SWAP2 SUB SWAP1 RETURN JUMPDEST PUSH2 0x14B PUSH1 0x4 DUP1 CALLDATASIZE SUB DUP2 ADD SWAP1 PUSH2 0x146 SWAP2 SWAP1 PUSH2 0x5AA JUMP JUMPDEST PUSH2 0x2EB JUMP JUMPDEST PUSH1 0x40 MLOAD PUSH2 0x158 SWAP2 SWAP1 PUSH2 0x5E8 JUMP JUMPDEST PUSH1 0x40 MLOAD DUP1 SWAP2 SUB SWAP1 RETURN JUMPDEST PUSH2 0x17B PUSH1 0x4 DUP1 CALLDATASIZE SUB DUP2 ADD SWAP1 PUSH2 0x176 SWAP2 SWAP1 PUSH2 0x557 JUMP JUMPDEST PUSH2 0x315 JUMP JUMPDEST PUSH1 0x40 MLOAD PUSH2 0x188 SWAP2 SWAP1 PUSH2 0x5E8 JUMP JUMPDEST PUSH1 0x40 MLOAD DUP1 SWAP2 SUB SWAP1 RETURN JUMPDEST PUSH2 0x1AB PUSH1 0x4 DUP1 CALLDATASIZE SUB DUP2 ADD SWAP1 PUSH2 0x1A6 SWAP2 SWAP1 PUSH2 0x557 JUMP JUMPDEST PUSH2 0x332 JUMP JUMPDEST PUSH1 0x40 MLOAD PUSH2 0x1BA SWAP4 SWAP3 SWAP2 SWAP1 PUSH2 0x601 JUMP JUMPDEST PUSH1 0x40 MLOAD DUP1 SWAP2 SUB SWAP1 RETURN JUMPDEST PUSH1 0x4 DUP2 DUP2 SLOAD DUP2 LT PUSH2 0x1D2 JUMPI PUSH0 DUP1 REVERT JUMPDEST SWAP1 PUSH0 MSTORE PUSH1 0x20 PUSH0 KECCAK256 SWAP1 PUSH1 0x5 MUL ADD PUSH0 SWAP2 POP SWAP1 POP DUP1 PUSH0 ADD DUP1 SLOAD PUSH2 0x1F1 SWAP1 PUSH2 0x663 JUMP JUMPDEST DUP1 PUSH1 0x1F ADD PUSH1 0x20 DUP1 SWAP2 DIV MUL PUSH1 0x20 ADD PUSH1 0x40 MLOAD SWAP1 DUP2 ADD PUSH1 0x40 MSTORE DUP1 SWAP3 SWAP2 SWAP1 DUP2 DUP2 MSTORE PUSH1 0x20 ADD DUP3 DUP1 SLOAD PUSH2 0x21D SWAP1 PUSH2 0x663 JUMP JUMPDEST DUP1 ISZERO PUSH2 0x268 JUMPI DUP1 PUSH1 0x1F LT PUSH2 0x23F JUMPI PUSH2 0x100 DUP1 DUP4 SLOAD DIV MUL DUP4 MSTORE SWAP2 PUSH1 0x20 ADD SWAP2 PUSH2 0x268 JUMP JUMPDEST DUP3 ADD SWAP2 SWAP1 PUSH0 MSTORE PUSH1 0x20 PUSH0 KECCAK256 SWAP1 JUMPDEST DUP2 SLOAD DUP2 MSTORE SWAP1 PUSH1 0x1 ADD SWAP1 PUSH1 0x20 ADD DUP1 DUP4 GT PUSH2 0x24B JUMPI DUP3 SWAP1 SUB PUSH1 0x1F AND DUP3 ADD SWAP2 JUMPDEST POP POP POP POP POP SWAP1 DUP1 PUSH1 0x1 ADD SLOAD SWAP1 DUP1 PUSH1 0x2 ADD SLOAD SWAP1 DUP1 PUSH1 0x3 ADD SLOAD SWAP1 DUP1 PUSH1 0x4 ADD PUSH0 SWAP1 SLOAD SWAP1 PUSH2 0x100 EXP SWAP1 DIV PUSH1 0xFF AND SWAP1 POP DUP6 JUMP JUMPDEST PUSH1 0x5 SLOAD DUP2 JUMP JUMPDEST PUSH1 0x6 PUSH1 0x20 MSTORE DUP1 PUSH0 MSTORE PUSH1 0x40 PUSH0 KECCAK256 PUSH0 SWAP2 POP SWAP1 POP SLOAD DUP2 JUMP JUMPDEST PUSH0 DUP2 DUP2 SLOAD DUP2 LT PUSH2 0x2BF JUMPI PUSH0 DUP1 REVERT JUMPDEST SWAP1 PUSH0 MSTORE PUSH1 0x20 PUSH0 KECCAK256 ADD PUSH0 SWAP2 POP SLOAD SWAP1 PUSH2 0x100 EXP SWAP1 DIV PUSH20 0xFFFFFFFFFFFFFFFFFFFFFFFFFFFFFFFFFFFFFFFF AND DUP2 JUMP JUMPDEST PUSH1 0x3 PUSH1 0x20 MSTORE DUP2 PUSH0 MSTORE PUSH1 0x40 PUSH0 KECCAK256 PUSH1 0x20 MSTORE DUP1 PUSH0 MSTORE PUSH1 0x40 PUSH0 KECCAK256 PUSH0 SWAP2 POP SWAP2 POP SWAP1 SLOAD SWAP1 PUSH2 0x100 EXP SWAP1 DIV PUSH1 0xFF AND DUP2 JUMP JUMPDEST PUSH1 0x1 PUSH1 0x20 MSTORE DUP1 PUSH0 MSTORE PUSH1 0x40 PUSH0 KECCAK256 PUSH0 SWAP2 POP SLOAD SWAP1 PUSH2 0x100 EXP SWAP1 DIV PUSH1 0xFF AND DUP2 JUMP JUMPDEST PUSH1 0x2 PUSH1 0x20 MSTORE DUP1 PUSH0 MSTORE PUSH1 0x40 PUSH0 KECCAK256 PUSH0 SWAP2 POP SWAP1 POP DUP1 PUSH0 ADD PUSH0 SWAP1 SLOAD SWAP1 PUSH2 0x100 EXP SWAP1 DIV PUSH20 0xFFFFFFFFFFFFFFFFFFFFFFFFFFFFFFFFFFFFFFFF AND SWAP1 DUP1 PUSH1 0x1 ADD SLOAD SWAP1 DUP1 PUSH1 0x2 ADD SLOAD SWAP1 POP DUP4 JUMP JUMPDEST PUSH0 DUP1 REVERT JUMPDEST PUSH0 DUP2 SWAP1 POP SWAP2 SWAP1 POP JUMP JUMPDEST PUSH2 0x38D DUP2 PUSH2 0x37B JUMP JUMPDEST DUP2 EQ PUSH2 0x397 JUMPI PUSH0 DUP1 REVERT JUMPDEST POP JUMP JUMPDEST PUSH0 DUP2 CALLDATALOAD SWAP1 POP PUSH2 0x3A8 DUP2 PUSH2 0x384 JUMP JUMPDEST SWAP3 SWAP2 POP POP JUMP JUMPDEST PUSH0 PUSH1 0x20 DUP3 DUP5 SUB SLT ISZERO PUSH2 0x3C3 JUMPI PUSH2 0x3C2 PUSH2 0x377 JUMP JUMPDEST JUMPDEST PUSH0 PUSH2 0x3D0 DUP5 DUP3 DUP6 ADD PUSH2 0x39A JUMP JUMPDEST SWAP2 POP POP SWAP3 SWAP2 POP POP JUMP JUMPDEST PUSH0 DUP2 MLOAD SWAP1 POP SWAP2 SWAP1 POP JUMP JUMPDEST PUSH0 DUP3 DUP3 MSTORE PUSH1 0x20 DUP3 ADD SWAP1 POP SWAP3 SWAP2 POP POP JUMP JUMPDEST PUSH0 JUMPDEST DUP4 DUP2 LT ISZERO PUSH2 0x410 JUMPI DUP1 DUP3 ADD MLOAD DUP2 DUP5 ADD MSTORE PUSH1 0x20 DUP2 ADD SWAP1 POP PUSH2 0x3F5 JUMP JUMPDEST PUSH0 DUP5 DUP5 ADD MSTORE POP POP POP POP JUMP JUMPDEST PUSH0 PUSH1 0x1F NOT PUSH1 0x1F DUP4 ADD AND SWAP1 POP SWAP2 SWAP1 POP JUMP JUMPDEST PUSH0 PUSH2 0x435 DUP3 PUSH2 0x3D9 JUMP JUMPDEST PUSH2 0x43F DUP2 DUP6 PUSH2 0x3E3 JUMP JUMPDEST SWAP4 POP PUSH2 0x44F DUP2 DUP6 PUSH1 0x20 DUP7 ADD PUSH2 0x3F3 JUMP JUMPDEST PUSH2 0x458 DUP2 PUSH2 0x41B JUMP JUMPDEST DUP5 ADD SWAP2 POP POP SWAP3 SWAP2 POP POP JUMP JUMPDEST PUSH2 0x46C DUP2 PUSH2 0x37B JUMP JUMPDEST DUP3 MSTORE POP POP JUMP JUMPDEST PUSH0 DUP2 ISZERO ISZERO SWAP1 POP SWAP2 SWAP1 POP JUMP JUMPDEST PUSH2 0x486 DUP2 PUSH2 0x472 JUMP JUMPDEST DUP3 MSTORE POP POP JUMP JUMPDEST PUSH0 PUSH1 0xA0 DUP3 ADD SWAP1 POP DUP2 DUP2 SUB PUSH0 DUP4 ADD MSTORE PUSH2 0x4A4 DUP2 DUP9 PUSH2 0x42B JUMP JUMPDEST SWAP1 POP PUSH2 0x4B3 PUSH1 0x20 DUP4 ADD DUP8 PUSH2 0x463 JUMP JUMPDEST PUSH2 0x4C0 PUSH1 0x40 DUP4 ADD DUP7 PUSH2 0x463 JUMP JUMPDEST PUSH2 0x4CD PUSH1 0x60 DUP4 ADD DUP6 PUSH2 0x463 JUMP JUMPDEST PUSH2 0x4DA PUSH1 0x80 DUP4 ADD DUP5 PUSH2 0x47D JUMP JUMPDEST SWAP7 SWAP6 POP POP POP POP POP POP JUMP JUMPDEST PUSH0 PUSH1 0x20 DUP3 ADD SWAP1 POP PUSH2 0x4F7 PUSH0 DUP4 ADD DUP5 PUSH2 0x463 JUMP JUMPDEST SWAP3 SWAP2 POP POP JUMP JUMPDEST PUSH0 PUSH20 0xFFFFFFFFFFFFFFFFFFFFFFFFFFFFFFFFFFFFFFFF DUP3 AND SWAP1 POP SWAP2 SWAP1 POP JUMP JUMPDEST PUSH0 PUSH2 0x526 DUP3 PUSH2 0x4FD JUMP JUMPDEST SWAP1 POP SWAP2 SWAP1 POP JUMP JUMPDEST PUSH2 0x536 DUP2 PUSH2 0x51C JUMP JUMPDEST DUP2 EQ PUSH2 0x540 JUMPI PUSH0 DUP1 REVERT JUMPDEST POP JUMP JUMPDEST PUSH0 DUP2 CALLDATALOAD SWAP1 POP PUSH2 0x551 DUP2 PUSH2 0x52D JUMP JUMPDEST SWAP3 SWAP2 POP POP JUMP JUMPDEST PUSH0 PUSH1 0x20 DUP3 DUP5 SUB SLT ISZERO PUSH2 0x56C JUMPI PUSH2 0x56B PUSH2 0x377 JUMP JUMPDEST JUMPDEST PUSH0 PUSH2 0x579 DUP5 DUP3 DUP6 ADD PUSH2 0x543 JUMP JUMPDEST SWAP2 POP POP SWAP3 SWAP2 POP POP JUMP JUMPDEST PUSH2 0x58B DUP2 PUSH2 0x51C JUMP JUMPDEST DUP3 MSTORE POP POP JUMP JUMPDEST PUSH0 PUSH1 0x20 DUP3 ADD SWAP1 POP PUSH2 0x5A4 PUSH0 DUP4 ADD DUP5 PUSH2 0x582 JUMP JUMPDEST SWAP3 SWAP2 POP POP JUMP JUMPDEST PUSH0 DUP1 PUSH1 0x40 DUP4 DUP6 SUB SLT ISZERO PUSH2 0x5C0 JUMPI PUSH2 0x5BF PUSH2 0x377 JUMP JUMPDEST JUMPDEST PUSH0 PUSH2 0x5CD DUP6 DUP3 DUP7 ADD PUSH2 0x543 JUMP JUMPDEST SWAP3 POP POP PUSH1 0x20 PUSH2 0x5DE DUP6 DUP3 DUP7 ADD PUSH2 0x39A JUMP JUMPDEST SWAP2 POP POP SWAP3 POP SWAP3 SWAP1 POP JUMP JUMPDEST PUSH0 PUSH1 0x20 DUP3 ADD SWAP1 POP PUSH2 0x5FB PUSH0 DUP4 ADD DUP5 PUSH2 0x47D JUMP JUMPDEST SWAP3 SWAP2 POP POP JUMP JUMPDEST PUSH0 PUSH1 0x60 DUP3 ADD SWAP1 POP PUSH2 0x614 PUSH0 DUP4 ADD DUP7 PUSH2 0x582 JUMP JUMPDEST PUSH2 0x621 PUSH1 0x20 DUP4 ADD DUP6 PUSH2 0x463 JUMP JUMPDEST PUSH2 0x62E PUSH1 0x40 DUP4 ADD DUP5 PUSH2 0x463 JUMP JUMPDEST SWAP5 SWAP4 POP POP POP POP JUMP JUMPDEST PUSH32 0x4E487B7100000000000000000000000000000000000000000000000000000000 PUSH0 MSTORE PUSH1 0x22 PUSH1 0x4 MSTORE PUSH1 0x24 PUSH0 REVERT JUMPDEST PUSH0 PUSH1 0x2 DUP3 DIV SWAP1 POP PUSH1 0x1 DUP3 AND DUP1 PUSH2 0x67A JUMPI PUSH1 0x7F DUP3 AND SWAP2 POP JUMPDEST PUSH1 0x20 DUP3 LT DUP2 SUB PUSH2 0x68D JUMPI PUSH2 0x68C PUSH2 0x636 JUMP JUMPDEST JUMPDEST POP SWAP2 SWAP1 POP JUMP INVALID LOG2 PUSH5 0x6970667358 0x22 SLT KECCAK256 SWAP14 DUP2 STATICCALL 0xAB SMOD 0x22 0xCE SUB 0xD1 0xCE PUSH11 0x6886FBB0D655E372F3BD13 SGT 0xE7 MSTORE BLOCKHASH SWAP5 PUSH4 0x1862CD1B PUSH5 0x736F6C6343 STOP ADDMOD AND STOP CALLER "
				},
				"gasEstimates": {
					"creation": {
						"codeDepositCost": "347400",
						"executionCost": "384",
						"totalCost": "347784"
					},
					"external": {
						"balances(address)": "2847",
						"isMember(address)": "2877",
						"memberInfo(address)": "infinite",
						"members(uint256)": "4943",
						"proposals(uint256)": "infinite",
						"totalSupply()": "2448",
						"votes(address,uint256)": "3093"
					}
				},
				"methodIdentifiers": {
					"balances(address)": "27e235e3",
					"isMember(address)": "a230c524",
					"memberInfo(address)": "a313c371",
					"members(uint256)": "5daf08ca",
					"proposals(uint256)": "013cf08b",
					"totalSupply()": "18160ddd",
					"votes(address,uint256)": "9f2524ee"
				}
			},
			"storageLayout": {
				"storage": [
					{
						"astId": 22,
						"contract": "contracts/MyFirstDAO.sol:DAO",
						"label": "members",
						"offset": 0,
						"slot": "0",
						"type": "t_array(t_address)dyn_storage"
					},
					{
						"astId": 26,
						"contract": "contracts/MyFirstDAO.sol:DAO",
						"label": "isMember",
						"offset": 0,
						"slot": "1",
						"type": "t_mapping(t_address,t_bool)"
					},
					{
						"astId": 31,
						"contract": "contracts/MyFirstDAO.sol:DAO",
						"label": "memberInfo",
						"offset": 0,
						"slot": "2",
						"type": "t_mapping(t_address,t_struct(Members)19_storage)"
					},
					{
						"astId": 37,
						"contract": "contracts/MyFirstDAO.sol:DAO",
						"label": "votes",
						"offset": 0,
						"slot": "3",
						"type": "t_mapping(t_address,t_mapping(t_uint256,t_bool))"
					},
					{
						"astId": 41,
						"contract": "contracts/MyFirstDAO.sol:DAO",
						"label": "proposals",
						"offset": 0,
						"slot": "4",
						"type": "t_array(t_struct(Proposal)12_storage)dyn_storage"
					},
					{
						"astId": 43,
						"contract": "contracts/MyFirstDAO.sol:DAO",
						"label": "totalSupply",
						"offset": 0,
						"slot": "5",
						"type": "t_uint256"
					},
					{
						"astId": 47,
						"contract": "contracts/MyFirstDAO.sol:DAO",
						"label": "balances",
						"offset": 0,
						"slot": "6",
						"type": "t_mapping(t_address,t_uint256)"
					}
				],
				"types": {
					"t_address": {
						"encoding": "inplace",
						"label": "address",
						"numberOfBytes": "20"
					},
					"t_array(t_address)dyn_storage": {
						"base": "t_address",
						"encoding": "dynamic_array",
						"label": "address[]",
						"numberOfBytes": "32"
					},
					"t_array(t_struct(Proposal)12_storage)dyn_storage": {
						"base": "t_struct(Proposal)12_storage",
						"encoding": "dynamic_array",
						"label": "struct DAO.Proposal[]",
						"numberOfBytes": "32"
					},
					"t_bool": {
						"encoding": "inplace",
						"label": "bool",
						"numberOfBytes": "1"
					},
					"t_mapping(t_address,t_bool)": {
						"encoding": "mapping",
						"key": "t_address",
						"label": "mapping(address => bool)",
						"numberOfBytes": "32",
						"value": "t_bool"
					},
					"t_mapping(t_address,t_mapping(t_uint256,t_bool))": {
						"encoding": "mapping",
						"key": "t_address",
						"label": "mapping(address => mapping(uint256 => bool))",
						"numberOfBytes": "32",
						"value": "t_mapping(t_uint256,t_bool)"
					},
					"t_mapping(t_address,t_struct(Members)19_storage)": {
						"encoding": "mapping",
						"key": "t_address",
						"label": "mapping(address => struct DAO.Members)",
						"numberOfBytes": "32",
						"value": "t_struct(Members)19_storage"
					},
					"t_mapping(t_address,t_uint256)": {
						"encoding": "mapping",
						"key": "t_address",
						"label": "mapping(address => uint256)",
						"numberOfBytes": "32",
						"value": "t_uint256"
					},
					"t_mapping(t_uint256,t_bool)": {
						"encoding": "mapping",
						"key": "t_uint256",
						"label": "mapping(uint256 => bool)",
						"numberOfBytes": "32",
						"value": "t_bool"
					},
					"t_string_storage": {
						"encoding": "bytes",
						"label": "string",
						"numberOfBytes": "32"
					},
					"t_struct(Members)19_storage": {
						"encoding": "inplace",
						"label": "struct DAO.Members",
						"members": [
							{
								"astId": 14,
								"contract": "contracts/MyFirstDAO.sol:DAO",
								"label": "memberAddress",
								"offset": 0,
								"slot": "0",
								"type": "t_address"
							},
							{
								"astId": 16,
								"contract": "contracts/MyFirstDAO.sol:DAO",
								"label": "memberSince",
								"offset": 0,
								"slot": "1",
								"type": "t_uint256"
							},
							{
								"astId": 18,
								"contract": "contracts/MyFirstDAO.sol:DAO",
								"label": "tokenBalance",
								"offset": 0,
								"slot": "2",
								"type": "t_uint256"
							}
						],
						"numberOfBytes": "96"
					},
					"t_struct(Proposal)12_storage": {
						"encoding": "inplace",
						"label": "struct DAO.Proposal",
						"members": [
							{
								"astId": 3,
								"contract": "contracts/MyFirstDAO.sol:DAO",
								"label": "description",
								"offset": 0,
								"slot": "0",
								"type": "t_string_storage"
							},
							{
								"astId": 5,
								"contract": "contracts/MyFirstDAO.sol:DAO",
								"label": "voteCount",
								"offset": 0,
								"slot": "1",
								"type": "t_uint256"
							},
							{
								"astId": 7,
								"contract": "contracts/MyFirstDAO.sol:DAO",
								"label": "yesCount",
								"offset": 0,
								"slot": "2",
								"type": "t_uint256"
							},
							{
								"astId": 9,
								"contract": "contracts/MyFirstDAO.sol:DAO",
								"label": "noCount",
								"offset": 0,
								"slot": "3",
								"type": "t_uint256"
							},
							{
								"astId": 11,
								"contract": "contracts/MyFirstDAO.sol:DAO",
								"label": "execute",
								"offset": 0,
								"slot": "4",
								"type": "t_bool"
							}
						],
						"numberOfBytes": "160"
					},
					"t_uint256": {
						"encoding": "inplace",
						"label": "uint256",
						"numberOfBytes": "32"
					}
				}
			},
			"userdoc": {
				"kind": "user",
				"methods": {},
				"version": 1
			}
		}
	}
}